{
  "_format": "hh-sol-artifact-1",
  "contractName": "Governance",
  "sourceName": "contracts/Governance.sol",
  "abi": [
    {
      "inputs": [
        {
          "internalType": "contract ERC20Votes",
          "name": "_token",
          "type": "address"
        },
        {
          "internalType": "contract TimelockController",
          "name": "_timelock",
          "type": "address"
        },
        {
          "internalType": "uint256",
          "name": "_quorum",
          "type": "uint256"
        },
        {
          "internalType": "uint256",
          "name": "_votingDelay",
          "type": "uint256"
        },
        {
          "internalType": "uint256",
          "name": "_votingPeriod",
          "type": "uint256"
        }
      ],
      "stateMutability": "nonpayable",
      "type": "constructor"
    },
    {
      "inputs": [],
      "name": "Empty",
      "type": "error"
    },
    {
      "anonymous": false,
      "inputs": [
        {
          "indexed": false,
          "internalType": "uint256",
          "name": "proposalId",
          "type": "uint256"
        }
      ],
      "name": "ProposalCanceled",
      "type": "event"
    },
    {
      "anonymous": false,
      "inputs": [
        {
          "indexed": false,
          "internalType": "uint256",
          "name": "proposalId",
          "type": "uint256"
        },
        {
          "indexed": false,
          "internalType": "address",
          "name": "proposer",
          "type": "address"
        },
        {
          "indexed": false,
          "internalType": "address[]",
          "name": "targets",
          "type": "address[]"
        },
        {
          "indexed": false,
          "internalType": "uint256[]",
          "name": "values",
          "type": "uint256[]"
        },
        {
          "indexed": false,
          "internalType": "string[]",
          "name": "signatures",
          "type": "string[]"
        },
        {
          "indexed": false,
          "internalType": "bytes[]",
          "name": "calldatas",
          "type": "bytes[]"
        },
        {
          "indexed": false,
          "internalType": "uint256",
          "name": "startBlock",
          "type": "uint256"
        },
        {
          "indexed": false,
          "internalType": "uint256",
          "name": "endBlock",
          "type": "uint256"
        },
        {
          "indexed": false,
          "internalType": "string",
          "name": "description",
          "type": "string"
        }
      ],
      "name": "ProposalCreated",
      "type": "event"
    },
    {
      "anonymous": false,
      "inputs": [
        {
          "indexed": false,
          "internalType": "uint256",
          "name": "proposalId",
          "type": "uint256"
        }
      ],
      "name": "ProposalExecuted",
      "type": "event"
    },
    {
      "anonymous": false,
      "inputs": [
        {
          "indexed": false,
          "internalType": "uint256",
          "name": "proposalId",
          "type": "uint256"
        },
        {
          "indexed": false,
          "internalType": "uint256",
          "name": "eta",
          "type": "uint256"
        }
      ],
      "name": "ProposalQueued",
      "type": "event"
    },
    {
      "anonymous": false,
      "inputs": [
        {
          "indexed": false,
          "internalType": "uint256",
          "name": "oldQuorumNumerator",
          "type": "uint256"
        },
        {
          "indexed": false,
          "internalType": "uint256",
          "name": "newQuorumNumerator",
          "type": "uint256"
        }
      ],
      "name": "QuorumNumeratorUpdated",
      "type": "event"
    },
    {
      "anonymous": false,
      "inputs": [
        {
          "indexed": false,
          "internalType": "address",
          "name": "oldTimelock",
          "type": "address"
        },
        {
          "indexed": false,
          "internalType": "address",
          "name": "newTimelock",
          "type": "address"
        }
      ],
      "name": "TimelockChange",
      "type": "event"
    },
    {
      "anonymous": false,
      "inputs": [
        {
          "indexed": true,
          "internalType": "address",
          "name": "voter",
          "type": "address"
        },
        {
          "indexed": false,
          "internalType": "uint256",
          "name": "proposalId",
          "type": "uint256"
        },
        {
          "indexed": false,
          "internalType": "uint8",
          "name": "support",
          "type": "uint8"
        },
        {
          "indexed": false,
          "internalType": "uint256",
          "name": "weight",
          "type": "uint256"
        },
        {
          "indexed": false,
          "internalType": "string",
          "name": "reason",
          "type": "string"
        }
      ],
      "name": "VoteCast",
      "type": "event"
    },
    {
      "anonymous": false,
      "inputs": [
        {
          "indexed": true,
          "internalType": "address",
          "name": "voter",
          "type": "address"
        },
        {
          "indexed": false,
          "internalType": "uint256",
          "name": "proposalId",
          "type": "uint256"
        },
        {
          "indexed": false,
          "internalType": "uint8",
          "name": "support",
          "type": "uint8"
        },
        {
          "indexed": false,
          "internalType": "uint256",
          "name": "weight",
          "type": "uint256"
        },
        {
          "indexed": false,
          "internalType": "string",
          "name": "reason",
          "type": "string"
        },
        {
          "indexed": false,
          "internalType": "bytes",
          "name": "params",
          "type": "bytes"
        }
      ],
      "name": "VoteCastWithParams",
      "type": "event"
    },
    {
      "inputs": [],
      "name": "BALLOT_TYPEHASH",
      "outputs": [
        {
          "internalType": "bytes32",
          "name": "",
          "type": "bytes32"
        }
      ],
      "stateMutability": "view",
      "type": "function"
    },
    {
      "inputs": [],
      "name": "COUNTING_MODE",
      "outputs": [
        {
          "internalType": "string",
          "name": "",
          "type": "string"
        }
      ],
      "stateMutability": "pure",
      "type": "function"
    },
    {
      "inputs": [],
      "name": "EXTENDED_BALLOT_TYPEHASH",
      "outputs": [
        {
          "internalType": "bytes32",
          "name": "",
          "type": "bytes32"
        }
      ],
      "stateMutability": "view",
      "type": "function"
    },
    {
      "inputs": [
        {
          "internalType": "uint256",
          "name": "proposalId",
          "type": "uint256"
        },
        {
          "internalType": "uint8",
          "name": "support",
          "type": "uint8"
        }
      ],
      "name": "castVote",
      "outputs": [
        {
          "internalType": "uint256",
          "name": "",
          "type": "uint256"
        }
      ],
      "stateMutability": "nonpayable",
      "type": "function"
    },
    {
      "inputs": [
        {
          "internalType": "uint256",
          "name": "proposalId",
          "type": "uint256"
        },
        {
          "internalType": "uint8",
          "name": "support",
          "type": "uint8"
        },
        {
          "internalType": "uint8",
          "name": "v",
          "type": "uint8"
        },
        {
          "internalType": "bytes32",
          "name": "r",
          "type": "bytes32"
        },
        {
          "internalType": "bytes32",
          "name": "s",
          "type": "bytes32"
        }
      ],
      "name": "castVoteBySig",
      "outputs": [
        {
          "internalType": "uint256",
          "name": "",
          "type": "uint256"
        }
      ],
      "stateMutability": "nonpayable",
      "type": "function"
    },
    {
      "inputs": [
        {
          "internalType": "uint256",
          "name": "proposalId",
          "type": "uint256"
        },
        {
          "internalType": "uint8",
          "name": "support",
          "type": "uint8"
        },
        {
          "internalType": "string",
          "name": "reason",
          "type": "string"
        }
      ],
      "name": "castVoteWithReason",
      "outputs": [
        {
          "internalType": "uint256",
          "name": "",
          "type": "uint256"
        }
      ],
      "stateMutability": "nonpayable",
      "type": "function"
    },
    {
      "inputs": [
        {
          "internalType": "uint256",
          "name": "proposalId",
          "type": "uint256"
        },
        {
          "internalType": "uint8",
          "name": "support",
          "type": "uint8"
        },
        {
          "internalType": "string",
          "name": "reason",
          "type": "string"
        },
        {
          "internalType": "bytes",
          "name": "params",
          "type": "bytes"
        }
      ],
      "name": "castVoteWithReasonAndParams",
      "outputs": [
        {
          "internalType": "uint256",
          "name": "",
          "type": "uint256"
        }
      ],
      "stateMutability": "nonpayable",
      "type": "function"
    },
    {
      "inputs": [
        {
          "internalType": "uint256",
          "name": "proposalId",
          "type": "uint256"
        },
        {
          "internalType": "uint8",
          "name": "support",
          "type": "uint8"
        },
        {
          "internalType": "string",
          "name": "reason",
          "type": "string"
        },
        {
          "internalType": "bytes",
          "name": "params",
          "type": "bytes"
        },
        {
          "internalType": "uint8",
          "name": "v",
          "type": "uint8"
        },
        {
          "internalType": "bytes32",
          "name": "r",
          "type": "bytes32"
        },
        {
          "internalType": "bytes32",
          "name": "s",
          "type": "bytes32"
        }
      ],
      "name": "castVoteWithReasonAndParamsBySig",
      "outputs": [
        {
          "internalType": "uint256",
          "name": "",
          "type": "uint256"
        }
      ],
      "stateMutability": "nonpayable",
      "type": "function"
    },
    {
      "inputs": [
        {
          "internalType": "address[]",
          "name": "targets",
          "type": "address[]"
        },
        {
          "internalType": "uint256[]",
          "name": "values",
          "type": "uint256[]"
        },
        {
          "internalType": "bytes[]",
          "name": "calldatas",
          "type": "bytes[]"
        },
        {
          "internalType": "bytes32",
          "name": "descriptionHash",
          "type": "bytes32"
        }
      ],
      "name": "execute",
      "outputs": [
        {
          "internalType": "uint256",
          "name": "",
          "type": "uint256"
        }
      ],
      "stateMutability": "payable",
      "type": "function"
    },
    {
      "inputs": [
        {
          "internalType": "address",
          "name": "account",
          "type": "address"
        },
        {
          "internalType": "uint256",
          "name": "blockNumber",
          "type": "uint256"
        }
      ],
      "name": "getVotes",
      "outputs": [
        {
          "internalType": "uint256",
          "name": "",
          "type": "uint256"
        }
      ],
      "stateMutability": "view",
      "type": "function"
    },
    {
      "inputs": [
        {
          "internalType": "address",
          "name": "account",
          "type": "address"
        },
        {
          "internalType": "uint256",
          "name": "blockNumber",
          "type": "uint256"
        },
        {
          "internalType": "bytes",
          "name": "params",
          "type": "bytes"
        }
      ],
      "name": "getVotesWithParams",
      "outputs": [
        {
          "internalType": "uint256",
          "name": "",
          "type": "uint256"
        }
      ],
      "stateMutability": "view",
      "type": "function"
    },
    {
      "inputs": [
        {
          "internalType": "uint256",
          "name": "proposalId",
          "type": "uint256"
        },
        {
          "internalType": "address",
          "name": "account",
          "type": "address"
        }
      ],
      "name": "hasVoted",
      "outputs": [
        {
          "internalType": "bool",
          "name": "",
          "type": "bool"
        }
      ],
      "stateMutability": "view",
      "type": "function"
    },
    {
      "inputs": [
        {
          "internalType": "address[]",
          "name": "targets",
          "type": "address[]"
        },
        {
          "internalType": "uint256[]",
          "name": "values",
          "type": "uint256[]"
        },
        {
          "internalType": "bytes[]",
          "name": "calldatas",
          "type": "bytes[]"
        },
        {
          "internalType": "bytes32",
          "name": "descriptionHash",
          "type": "bytes32"
        }
      ],
      "name": "hashProposal",
      "outputs": [
        {
          "internalType": "uint256",
          "name": "",
          "type": "uint256"
        }
      ],
      "stateMutability": "pure",
      "type": "function"
    },
    {
      "inputs": [],
      "name": "name",
      "outputs": [
        {
          "internalType": "string",
          "name": "",
          "type": "string"
        }
      ],
      "stateMutability": "view",
      "type": "function"
    },
    {
      "inputs": [
        {
          "internalType": "address",
          "name": "",
          "type": "address"
        },
        {
          "internalType": "address",
          "name": "",
          "type": "address"
        },
        {
          "internalType": "uint256[]",
          "name": "",
          "type": "uint256[]"
        },
        {
          "internalType": "uint256[]",
          "name": "",
          "type": "uint256[]"
        },
        {
          "internalType": "bytes",
          "name": "",
          "type": "bytes"
        }
      ],
      "name": "onERC1155BatchReceived",
      "outputs": [
        {
          "internalType": "bytes4",
          "name": "",
          "type": "bytes4"
        }
      ],
      "stateMutability": "nonpayable",
      "type": "function"
    },
    {
      "inputs": [
        {
          "internalType": "address",
          "name": "",
          "type": "address"
        },
        {
          "internalType": "address",
          "name": "",
          "type": "address"
        },
        {
          "internalType": "uint256",
          "name": "",
          "type": "uint256"
        },
        {
          "internalType": "uint256",
          "name": "",
          "type": "uint256"
        },
        {
          "internalType": "bytes",
          "name": "",
          "type": "bytes"
        }
      ],
      "name": "onERC1155Received",
      "outputs": [
        {
          "internalType": "bytes4",
          "name": "",
          "type": "bytes4"
        }
      ],
      "stateMutability": "nonpayable",
      "type": "function"
    },
    {
      "inputs": [
        {
          "internalType": "address",
          "name": "",
          "type": "address"
        },
        {
          "internalType": "address",
          "name": "",
          "type": "address"
        },
        {
          "internalType": "uint256",
          "name": "",
          "type": "uint256"
        },
        {
          "internalType": "bytes",
          "name": "",
          "type": "bytes"
        }
      ],
      "name": "onERC721Received",
      "outputs": [
        {
          "internalType": "bytes4",
          "name": "",
          "type": "bytes4"
        }
      ],
      "stateMutability": "nonpayable",
      "type": "function"
    },
    {
      "inputs": [
        {
          "internalType": "uint256",
          "name": "proposalId",
          "type": "uint256"
        }
      ],
      "name": "proposalDeadline",
      "outputs": [
        {
          "internalType": "uint256",
          "name": "",
          "type": "uint256"
        }
      ],
      "stateMutability": "view",
      "type": "function"
    },
    {
      "inputs": [
        {
          "internalType": "uint256",
          "name": "proposalId",
          "type": "uint256"
        }
      ],
      "name": "proposalEta",
      "outputs": [
        {
          "internalType": "uint256",
          "name": "",
          "type": "uint256"
        }
      ],
      "stateMutability": "view",
      "type": "function"
    },
    {
      "inputs": [],
      "name": "proposalIterator",
      "outputs": [
        {
          "internalType": "uint256",
          "name": "",
          "type": "uint256"
        }
      ],
      "stateMutability": "view",
      "type": "function"
    },
    {
      "inputs": [
        {
          "internalType": "uint256",
          "name": "proposalId",
          "type": "uint256"
        }
      ],
      "name": "proposalSnapshot",
      "outputs": [
        {
          "internalType": "uint256",
          "name": "",
          "type": "uint256"
        }
      ],
      "stateMutability": "view",
      "type": "function"
    },
    {
      "inputs": [],
      "name": "proposalThreshold",
      "outputs": [
        {
          "internalType": "uint256",
          "name": "",
          "type": "uint256"
        }
      ],
      "stateMutability": "view",
      "type": "function"
    },
    {
      "inputs": [
        {
          "internalType": "uint256",
          "name": "proposalId",
          "type": "uint256"
        }
      ],
      "name": "proposalVotes",
      "outputs": [
        {
          "internalType": "uint256",
          "name": "againstVotes",
          "type": "uint256"
        },
        {
          "internalType": "uint256",
          "name": "forVotes",
          "type": "uint256"
        },
        {
          "internalType": "uint256",
          "name": "abstainVotes",
          "type": "uint256"
        }
      ],
      "stateMutability": "view",
      "type": "function"
    },
    {
      "inputs": [
        {
          "internalType": "uint256",
          "name": "",
          "type": "uint256"
        }
      ],
      "name": "proposals",
      "outputs": [
        {
          "internalType": "uint256",
          "name": "iterator",
          "type": "uint256"
        },
        {
          "internalType": "string",
          "name": "description",
          "type": "string"
        },
        {
          "internalType": "uint256",
          "name": "proposalId",
          "type": "uint256"
        },
        {
          "internalType": "uint256",
          "name": "startBlock",
          "type": "uint256"
        },
        {
          "internalType": "uint256",
          "name": "endBlock",
          "type": "uint256"
        }
      ],
      "stateMutability": "view",
      "type": "function"
    },
    {
      "inputs": [
        {
          "internalType": "address[]",
          "name": "targets",
          "type": "address[]"
        },
        {
          "internalType": "uint256[]",
          "name": "values",
          "type": "uint256[]"
        },
        {
          "internalType": "bytes[]",
          "name": "calldatas",
          "type": "bytes[]"
        },
        {
          "internalType": "string",
          "name": "description",
          "type": "string"
        }
      ],
      "name": "propose",
      "outputs": [
        {
          "internalType": "uint256",
          "name": "",
          "type": "uint256"
        }
      ],
      "stateMutability": "nonpayable",
      "type": "function"
    },
    {
      "inputs": [
        {
          "internalType": "address[]",
          "name": "targets",
          "type": "address[]"
        },
        {
          "internalType": "uint256[]",
          "name": "values",
          "type": "uint256[]"
        },
        {
          "internalType": "bytes[]",
          "name": "calldatas",
          "type": "bytes[]"
        },
        {
          "internalType": "bytes32",
          "name": "descriptionHash",
          "type": "bytes32"
        }
      ],
      "name": "queue",
      "outputs": [
        {
          "internalType": "uint256",
          "name": "",
          "type": "uint256"
        }
      ],
      "stateMutability": "nonpayable",
      "type": "function"
    },
    {
      "inputs": [
        {
          "internalType": "uint256",
          "name": "blockNumber",
          "type": "uint256"
        }
      ],
      "name": "quorum",
      "outputs": [
        {
          "internalType": "uint256",
          "name": "",
          "type": "uint256"
        }
      ],
      "stateMutability": "view",
      "type": "function"
    },
    {
      "inputs": [],
      "name": "quorumDenominator",
      "outputs": [
        {
          "internalType": "uint256",
          "name": "",
          "type": "uint256"
        }
      ],
      "stateMutability": "view",
      "type": "function"
    },
    {
      "inputs": [],
      "name": "quorumNumerator",
      "outputs": [
        {
          "internalType": "uint256",
          "name": "",
          "type": "uint256"
        }
      ],
      "stateMutability": "view",
      "type": "function"
    },
    {
      "inputs": [
        {
          "internalType": "address",
          "name": "target",
          "type": "address"
        },
        {
          "internalType": "uint256",
          "name": "value",
          "type": "uint256"
        },
        {
          "internalType": "bytes",
          "name": "data",
          "type": "bytes"
        }
      ],
      "name": "relay",
      "outputs": [],
      "stateMutability": "nonpayable",
      "type": "function"
    },
    {
      "inputs": [
        {
          "internalType": "uint256",
          "name": "proposalId",
          "type": "uint256"
        }
      ],
      "name": "state",
      "outputs": [
        {
          "internalType": "enum IGovernor.ProposalState",
          "name": "",
          "type": "uint8"
        }
      ],
      "stateMutability": "view",
      "type": "function"
    },
    {
      "inputs": [
        {
          "internalType": "bytes4",
          "name": "interfaceId",
          "type": "bytes4"
        }
      ],
      "name": "supportsInterface",
      "outputs": [
        {
          "internalType": "bool",
          "name": "",
          "type": "bool"
        }
      ],
      "stateMutability": "view",
      "type": "function"
    },
    {
      "inputs": [],
      "name": "timelock",
      "outputs": [
        {
          "internalType": "address",
          "name": "",
          "type": "address"
        }
      ],
      "stateMutability": "view",
      "type": "function"
    },
    {
      "inputs": [],
      "name": "token",
      "outputs": [
        {
          "internalType": "contract IVotes",
          "name": "",
          "type": "address"
        }
      ],
      "stateMutability": "view",
      "type": "function"
    },
    {
      "inputs": [
        {
          "internalType": "uint256",
          "name": "newQuorumNumerator",
          "type": "uint256"
        }
      ],
      "name": "updateQuorumNumerator",
      "outputs": [],
      "stateMutability": "nonpayable",
      "type": "function"
    },
    {
      "inputs": [
        {
          "internalType": "contract TimelockController",
          "name": "newTimelock",
          "type": "address"
        }
      ],
      "name": "updateTimelock",
      "outputs": [],
      "stateMutability": "nonpayable",
      "type": "function"
    },
    {
      "inputs": [],
      "name": "version",
      "outputs": [
        {
          "internalType": "string",
          "name": "",
          "type": "string"
        }
      ],
      "stateMutability": "view",
      "type": "function"
    },
    {
      "inputs": [],
      "name": "votingDelay",
      "outputs": [
        {
          "internalType": "uint256",
          "name": "",
          "type": "uint256"
        }
      ],
      "stateMutability": "view",
      "type": "function"
    },
    {
      "inputs": [],
      "name": "votingDelay_",
      "outputs": [
        {
          "internalType": "uint256",
          "name": "",
          "type": "uint256"
        }
      ],
      "stateMutability": "view",
      "type": "function"
    },
    {
      "inputs": [],
      "name": "votingPeriod",
      "outputs": [
        {
          "internalType": "uint256",
          "name": "",
          "type": "uint256"
        }
      ],
      "stateMutability": "view",
      "type": "function"
    },
    {
      "inputs": [],
      "name": "votingPeriod_",
      "outputs": [
        {
          "internalType": "uint256",
          "name": "",
          "type": "uint256"
        }
      ],
      "stateMutability": "view",
      "type": "function"
    },
    {
      "stateMutability": "payable",
      "type": "receive"
    }
  ],
  "bytecode": "0x6101606040523480156200001257600080fd5b5060405162003c1638038062003c1683398101604081905262000035916200035d565b8383866040518060400160405280601381526020017f4441707020556e69766572736974792044414f00000000000000000000000000815250806200007f6200016660201b60201c565b815160208084019190912082518383012060e08290526101008190524660a0818152604080517f8b73c3c69bb8fe3d512ecc4cf759cc79239f7b179b0ffacaa9a75d522b39400f81880181905281830187905260608201869052608082019490945230818401528151808203909301835260c00190528051940193909320919290916080523060601b60c0526101205250508251620001289250600091506020840190620002b7565b505060601b6001600160601b03191661014052620001468162000181565b5062000152816200024e565b50600991909155600a55506200040a915050565b6040805180820190915260018152603160f81b602082015290565b6064811115620002095760405162461bcd60e51b815260206004820152604360248201527f476f7665726e6f72566f74657351756f72756d4672616374696f6e3a2071756f60448201527f72756d4e756d657261746f72206f7665722071756f72756d44656e6f6d696e616064820152623a37b960e91b608482015260a40160405180910390fd5b600580549082905560408051828152602081018490527f0553476bf02ef2726e8ce5ced78d63e26e602e4a2257b1f559418e24b4633997910160405180910390a15050565b600654604080516001600160a01b03928316815291831660208301527f08f74ea46ef7894f65eabfb5e6e695de773a000b47c529ab559178069b226401910160405180910390a1600680546001600160a01b0319166001600160a01b0392909216919091179055565b828054620002c590620003b4565b90600052602060002090601f016020900481019282620002e9576000855562000334565b82601f106200030457805160ff191683800117855562000334565b8280016001018555821562000334579182015b828111156200033457825182559160200191906001019062000317565b506200034292915062000346565b5090565b5b8082111562000342576000815560010162000347565b600080600080600060a0868803121562000375578081fd5b85516200038281620003f1565b60208701519095506200039581620003f1565b6040870151606088015160809098015196999198509695945092505050565b600181811c90821680620003c957607f821691505b60208210811415620003eb57634e487b7160e01b600052602260045260246000fd5b50919050565b6001600160a01b03811681146200040757600080fd5b50565b60805160a05160c05160601c60e05161010051610120516101405160601c61379d620004796000396000818161086801528181611c8c0152611dd501526000611f6001526000611faf01526000611f8a01526000611ee301526000611f0d01526000611f37015261379d6000f3fe60806040526004361061024a5760003560e01c80637b3c71d311610139578063c01f9e37116100b6578063dd4e2ba51161007a578063dd4e2ba514610770578063deaaa7cc146107b6578063eb9019d4146107ea578063f23a6e611461080a578063f8ce560a14610836578063fc0c546a1461085657600080fd5b8063c01f9e37146106c8578063c28bc2fa146106e8578063c59057e414610708578063c8d06ff914610728578063d33219b41461073e57600080fd5b8063a7713a70116100fd578063a7713a7014610633578063a890c91014610648578063ab58fb8e14610668578063b58131b014610688578063bc197c811461069c57600080fd5b80637b3c71d3146105a95780637d5e81e2146105c95780638b02dbde146105e957806397c3d334146105ff5780639a802a6d1461061357600080fd5b80632fe3e261116101c7578063438596321161018b57806343859632146104a0578063544ffc9c146104ea57806354fd4d501461053f57806356781388146105695780635f398a141461058957600080fd5b80632fe3e261146103f45780633932abb1146104285780633bccf4fd1461043d5780633e4f49e61461045d57806342024c2b1461048a57600080fd5b806306fdde031161020e57806306fdde031461033b578063150b7a021461035d578063160cbed7146103a15780632656227d146103c15780632d63f693146103d457600080fd5b8063013cf08b1461027257806301ffc9a7146102ac57806302a251a3146102dc57806303420181146102fb57806306f3f9e61461031b57600080fd5b3661026d573061025861088a565b6001600160a01b03161461026b57600080fd5b005b600080fd5b34801561027e57600080fd5b5061029261028d366004612eef565b6108a3565b6040516102a39594939291906134e7565b60405180910390f35b3480156102b857600080fd5b506102cc6102c7366004612eab565b61095a565b60405190151581526020016102a3565b3480156102e857600080fd5b50600a545b6040519081526020016102a3565b34801561030757600080fd5b506102ed610316366004613006565b61096b565b34801561032757600080fd5b5061026b610336366004612eef565b610a63565b34801561034757600080fd5b50610350610afb565b6040516102a3919061332d565b34801561036957600080fd5b50610388610378366004612b91565b630a85bd0160e11b949350505050565b6040516001600160e01b031990911681526020016102a3565b3480156103ad57600080fd5b506102ed6103bc366004612d3a565b610b8d565b6102ed6103cf366004612d3a565b610db9565b3480156103e057600080fd5b506102ed6103ef366004612eef565b610ec2565b34801561040057600080fd5b506102ed7fb3b3f3b703cd84ce352197dcff232b1b5d3cfb2025ce47cf04742d0651f1af8881565b34801561043457600080fd5b506009546102ed565b34801561044957600080fd5b506102ed6104583660046130a9565b610ef9565b34801561046957600080fd5b5061047d610478366004612eef565b610f6f565b6040516102a39190613305565b34801561049657600080fd5b506102ed600a5481565b3480156104ac57600080fd5b506102cc6104bb366004612f07565b60008281526004602090815260408083206001600160a01b038516845260030190915290205460ff1692915050565b3480156104f657600080fd5b50610524610505366004612eef565b6000908152600460205260409020805460018201546002909201549092565b604080519384526020840192909252908201526060016102a3565b34801561054b57600080fd5b506040805180820190915260018152603160f81b6020820152610350565b34801561057557600080fd5b506102ed610584366004612f36565b610f7a565b34801561059557600080fd5b506102ed6105a4366004612fa0565b610fa3565b3480156105b557600080fd5b506102ed6105c4366004612f61565b610fed565b3480156105d557600080fd5b506102ed6105e4366004612dc5565b61103f565b3480156105f557600080fd5b506102ed60095481565b34801561060b57600080fd5b5060646102ed565b34801561061f57600080fd5b506102ed61062e366004612ce4565b611100565b34801561063f57600080fd5b506005546102ed565b34801561065457600080fd5b5061026b610663366004612ed3565b611117565b34801561067457600080fd5b506102ed610683366004612eef565b6111a3565b34801561069457600080fd5b5060006102ed565b3480156106a857600080fd5b506103886106b7366004612ae8565b63bc197c8160e01b95945050505050565b3480156106d457600080fd5b506102ed6106e3366004612eef565b61124c565b3480156106f457600080fd5b5061026b610703366004612c8b565b61127b565b34801561071457600080fd5b506102ed610723366004612d3a565b611347565b34801561073457600080fd5b506102ed600b5481565b34801561074a57600080fd5b506006546001600160a01b03165b6040516001600160a01b0390911681526020016102a3565b34801561077c57600080fd5b506040805180820190915260208082527f737570706f72743d627261766f2671756f72756d3d666f722c6162737461696e90820152610350565b3480156107c257600080fd5b506102ed7f150214d74d59b7d1e90c73fc22ef3d991dd0a76b046543d4d80ab92d2a50328f81565b3480156107f657600080fd5b506102ed610805366004612c60565b611381565b34801561081657600080fd5b50610388610825366004612bfa565b63f23a6e6160e01b95945050505050565b34801561084257600080fd5b506102ed610851366004612eef565b61138d565b34801561086257600080fd5b506107587f000000000000000000000000000000000000000000000000000000000000000081565b600061089e6006546001600160a01b031690565b905090565b600860205260009081526040902080546001820180549192916108c5906136a7565b80601f01602080910402602001604051908101604052809291908181526020018280546108f1906136a7565b801561093e5780601f106109135761010080835404028352916020019161093e565b820191906000526020600020905b81548152906001019060200180831161092157829003601f168201915b5050505050908060020154908060030154908060040154905085565b600061096582611398565b92915050565b600080610a0f610a077fb3b3f3b703cd84ce352197dcff232b1b5d3cfb2025ce47cf04742d0651f1af888c8c8c8c6040516109a79291906131e8565b60405180910390208b805190602001206040516020016109ec959493929190948552602085019390935260ff9190911660408401526060830152608082015260a00190565b604051602081830303815290604052805190602001206113bd565b86868661140b565b9050610a558a828b8b8b8080601f0160208091040260200160405190810160405280939291908181526020018383808284376000920191909152508d9250611429915050565b9a9950505050505050505050565b610a6b61088a565b6001600160a01b0316336001600160a01b031614610aa45760405162461bcd60e51b8152600401610a9b90613340565b60405180910390fd5b30610aad61088a565b6001600160a01b031614610aef5760008036604051610acd9291906131e8565b604051809103902090505b80610ae36002611599565b14610aed57610ad8565b505b610af881611625565b50565b606060008054610b0a906136a7565b80601f0160208091040260200160405190810160405280929190818152602001828054610b36906136a7565b8015610b835780601f10610b5857610100808354040283529160200191610b83565b820191906000526020600020905b815481529060010190602001808311610b6657829003601f168201915b5050505050905090565b600080610b9c86868686611347565b90506004610ba982610f6f565b6007811115610bc857634e487b7160e01b600052602160045260246000fd5b14610be55760405162461bcd60e51b8152600401610a9b906133b8565b6006546040805163793d064960e11b815290516000926001600160a01b03169163f27a0c92916004808301926020929190829003018186803b158015610c2a57600080fd5b505afa158015610c3e573d6000803e3d6000fd5b505050506040513d601f19601f82011682018060405250810190610c629190612e93565b60065460405163b1c5f42760e01b81529192506001600160a01b03169063b1c5f42790610c9c908a908a908a906000908b9060040161325f565b60206040518083038186803b158015610cb457600080fd5b505afa158015610cc8573d6000803e3d6000fd5b505050506040513d601f19601f82011682018060405250810190610cec9190612e93565b6000838152600760205260408082209290925560065491516308f2a0bb60e41b81526001600160a01b0390921691638f2a0bb091610d37918b918b918b91908b9089906004016132ad565b600060405180830381600087803b158015610d5157600080fd5b505af1158015610d65573d6000803e3d6000fd5b505050507f9a2e42fd6722813d69113e7d0079d3d940171428df7373df9c7f7617cfda2892828242610d9791906135de565b6040805192835260208301919091520160405180910390a15095945050505050565b600080610dc886868686611347565b90506000610dd582610f6f565b90506004816007811115610df957634e487b7160e01b600052602160045260246000fd5b1480610e2457506005816007811115610e2257634e487b7160e01b600052602160045260246000fd5b145b610e405760405162461bcd60e51b8152600401610a9b906133b8565b600082815260016020818152604092839020600201805460ff191690921790915590518381527f712ae1383f79ac853f8d882153778e0260ef8f03b504e2866e0593e04d2b291f910160405180910390a1610e9e82888888886116ed565b610eab82888888886117ab565b610eb882888888886117b8565b5095945050505050565b60008181526001602090815260408083208151928301909152546001600160401b0316908190525b6001600160401b031692915050565b604080517f150214d74d59b7d1e90c73fc22ef3d991dd0a76b046543d4d80ab92d2a50328f602082015290810186905260ff851660608201526000908190610f4790610a07906080016109ec565b9050610f64878288604051806020016040528060008152506117f5565b979650505050505050565b600061096582611821565b600080339050610f9b848285604051806020016040528060008152506117f5565b949350505050565b600080339050610f6487828888888080601f0160208091040260200160405190810160405280939291908181526020018383808284376000920191909152508a9250611429915050565b60008033905061103586828787878080601f0160208091040260200160405190810160405280939291908181526020018383808284376000920191909152506117f592505050565b9695505050505050565b60008061104e86868686611997565b9050600061105b82610ec2565b905060006110688361124c565b600b8054919250600061107a836136e2565b90915550506040805160a081018252600b54808252602080830189815283850188905260608401879052608084018690526000928352600882529390912082518155925180519293926110d39260018501920190612832565b50604082015160028201556060820151600382015560809091015160049091015550909695505050505050565b600061110d848484611c63565b90505b9392505050565b61111f61088a565b6001600160a01b0316336001600160a01b03161461114f5760405162461bcd60e51b8152600401610a9b90613340565b3061115861088a565b6001600160a01b03161461119a57600080366040516111789291906131e8565b604051809103902090505b8061118e6002611599565b1461119857611183565b505b610af881611d08565b60065460008281526007602052604080822054905163d45c443560e01b81526004810191909152909182916001600160a01b039091169063d45c44359060240160206040518083038186803b1580156111fb57600080fd5b505afa15801561120f573d6000803e3d6000fd5b505050506040513d601f19601f820116820180604052508101906112339190612e93565b9050806001146112435780611110565b60009392505050565b60008181526001602081815260408084208151928301909152909101546001600160401b031690819052610eea565b61128361088a565b6001600160a01b0316336001600160a01b0316146112b35760405162461bcd60e51b8152600401610a9b90613340565b306112bc61088a565b6001600160a01b0316146112fe57600080366040516112dc9291906131e8565b604051809103902090505b806112f26002611599565b146112fc576112e7565b505b6113408483838080601f016020809104026020016040519081016040528093929190818152602001838380828437600092019190915250889250611d71915050565b5050505050565b6000848484846040516020016113609493929190613214565b60408051601f19818403018152919052805160209091012095945050505050565b60006111108383611d97565b600061096582611db8565b60006001600160e01b03198216636e665ced60e01b1480610965575061096582611e6b565b60006109656113ca611ed6565b8360405161190160f01b6020820152602281018390526042810182905260009060620160405160208183030381529060405280519060200120905092915050565b600080600061141c87878787611ffd565b91509150610eb8816120ea565b600085815260016020819052604082209061144388610f6f565b600781111561146257634e487b7160e01b600052602160045260246000fd5b146114bb5760405162461bcd60e51b815260206004820152602360248201527f476f7665726e6f723a20766f7465206e6f742063757272656e746c792061637460448201526269766560e81b6064820152608401610a9b565b604080516020810190915281546001600160401b0316908190526000906114e490889086611c63565b90506114f388888884886122eb565b835161154557866001600160a01b03167fb8e138887d0aa13bab447e82de9d5c1777041ecd21ca36ba824ff1e6c07ddda489888489604051611538949392919061351d565b60405180910390a2610f64565b866001600160a01b03167fe2babfbac5889a709b63bb7f598b324e08bc5a4fb9ec647fb3cbc9ec07eb87128988848989604051611586959493929190613545565b60405180910390a2979650505050505050565b60006115b88254600f81810b810b600160801b909204810b900b131590565b156115d657604051631ed9509560e11b815260040160405180910390fd5b508054600f90810b80820b820b600090815260018085016020526040822080549290558454920190920b6001600160801b03166fffffffffffffffffffffffffffffffff199091161790915590565b60648111156116a85760405162461bcd60e51b815260206004820152604360248201527f476f7665726e6f72566f74657351756f72756d4672616374696f6e3a2071756f60448201527f72756d4e756d657261746f72206f7665722071756f72756d44656e6f6d696e616064820152623a37b960e91b608482015260a401610a9b565b600580549082905560408051828152602081018490527f0553476bf02ef2726e8ce5ced78d63e26e602e4a2257b1f559418e24b4633997910160405180910390a15050565b306116f661088a565b6001600160a01b0316146113405760005b84518110156117a357306001600160a01b031685828151811061173a57634e487b7160e01b600052603260045260246000fd5b60200260200101516001600160a01b031614156117935761179383828151811061177457634e487b7160e01b600052603260045260246000fd5b602002602001015180519060200120600261246a90919063ffffffff16565b61179c816136e2565b9050611707565b505050505050565b61134085858585856124b0565b306117c161088a565b6001600160a01b03161461134057600254600f81810b810b600160801b909204810b900b1315611340576000600255611340565b60006118188585858561181360408051602081019091526000815290565b611429565b95945050505050565b60008061182d83612524565b9050600481600781111561185157634e487b7160e01b600052602160045260246000fd5b1461185c5792915050565b60008381526007602052604090205480611877575092915050565b600654604051632ab0f52960e01b8152600481018390526001600160a01b0390911690632ab0f5299060240160206040518083038186803b1580156118bb57600080fd5b505afa1580156118cf573d6000803e3d6000fd5b505050506040513d601f19601f820116820180604052508101906118f39190612e73565b15611902575060079392505050565b600654604051632c258a9f60e11b8152600481018390526001600160a01b039091169063584b153e9060240160206040518083038186803b15801561194657600080fd5b505afa15801561195a573d6000803e3d6000fd5b505050506040513d601f19601f8201168201806040525081019061197e9190612e73565b1561198d575060059392505050565b5060029392505050565b6000806119a933610805600143613660565b1015611a115760405162461bcd60e51b815260206004820152603160248201527f476f7665726e6f723a2070726f706f73657220766f7465732062656c6f7720706044820152701c9bdc1bdcd85b081d1a1c995cda1bdb19607a1b6064820152608401610a9b565b6000611a268686868680519060200120611347565b90508451865114611a495760405162461bcd60e51b8152600401610a9b90613377565b8351865114611a6a5760405162461bcd60e51b8152600401610a9b90613377565b6000865111611abb5760405162461bcd60e51b815260206004820152601860248201527f476f7665726e6f723a20656d7074792070726f706f73616c00000000000000006044820152606401610a9b565b600081815260016020908152604091829020825191820190925281546001600160401b03169081905215611b3b5760405162461bcd60e51b815260206004820152602160248201527f476f7665726e6f723a2070726f706f73616c20616c72656164792065786973746044820152607360f81b6064820152608401610a9b565b6000611b4e611b4960095490565b612630565b611b5743612630565b611b6191906135f6565b90506000611b71611b49600a5490565b611b7b90836135f6565b835467ffffffffffffffff19166001600160401b038416178455905060018301805467ffffffffffffffff19166001600160401b0383161790557f7d84a6263ae0d98d3329bd7b46bb4e8d6f98cd35a7adb45c274c8b7fd5ebd5e084338b8b8d516001600160401b03811115611c0157634e487b7160e01b600052604160045260246000fd5b604051908082528060200260200182016040528015611c3457816020015b6060815260200190600190039081611c1f5790505b508c88888e604051611c4e999897969594939291906133f9565b60405180910390a15091979650505050505050565b604051630748d63560e31b81526001600160a01b038481166004830152602482018490526000917f000000000000000000000000000000000000000000000000000000000000000090911690633a46b1a89060440160206040518083038186803b158015611cd057600080fd5b505afa158015611ce4573d6000803e3d6000fd5b505050506040513d601f19601f8201168201806040525081019061110d9190612e93565b600654604080516001600160a01b03928316815291831660208301527f08f74ea46ef7894f65eabfb5e6e695de773a000b47c529ab559178069b226401910160405180910390a1600680546001600160a01b0319166001600160a01b0392909216919091179055565b606061110d84848460405180606001604052806029815260200161373f6029913961269c565b60006111108383611db360408051602081019091526000815290565b611c63565b60006064600554604051632394e7a360e21b8152600481018590527f00000000000000000000000000000000000000000000000000000000000000006001600160a01b031690638e539e8c9060240160206040518083038186803b158015611e1f57600080fd5b505afa158015611e33573d6000803e3d6000fd5b505050506040513d601f19601f82011682018060405250810190611e579190612e93565b611e619190613641565b6109659190613621565b60006001600160e01b0319821663bf26d89760e01b1480611e9c57506001600160e01b031982166379dd796f60e01b145b80611eb757506001600160e01b03198216630271189760e51b145b8061096557506301ffc9a760e01b6001600160e01b0319831614610965565b6000306001600160a01b037f000000000000000000000000000000000000000000000000000000000000000016148015611f2f57507f000000000000000000000000000000000000000000000000000000000000000046145b15611f5957507f000000000000000000000000000000000000000000000000000000000000000090565b50604080517f00000000000000000000000000000000000000000000000000000000000000006020808301919091527f0000000000000000000000000000000000000000000000000000000000000000828401527f000000000000000000000000000000000000000000000000000000000000000060608301524660808301523060a0808401919091528351808403909101815260c0909201909252805191012090565b6000807f7fffffffffffffffffffffffffffffff5d576e7357a4501ddfe92f46681b20a083111561203457506000905060036120e1565b8460ff16601b1415801561204c57508460ff16601c14155b1561205d57506000905060046120e1565b6040805160008082526020820180845289905260ff881692820192909252606081018690526080810185905260019060a0016020604051602081039080840390855afa1580156120b1573d6000803e3d6000fd5b5050604051601f1901519150506001600160a01b0381166120da576000600192509250506120e1565b9150600090505b94509492505050565b600081600481111561210c57634e487b7160e01b600052602160045260246000fd5b14156121155750565b600181600481111561213757634e487b7160e01b600052602160045260246000fd5b14156121855760405162461bcd60e51b815260206004820152601860248201527f45434453413a20696e76616c6964207369676e617475726500000000000000006044820152606401610a9b565b60028160048111156121a757634e487b7160e01b600052602160045260246000fd5b14156121f55760405162461bcd60e51b815260206004820152601f60248201527f45434453413a20696e76616c6964207369676e6174757265206c656e677468006044820152606401610a9b565b600381600481111561221757634e487b7160e01b600052602160045260246000fd5b14156122705760405162461bcd60e51b815260206004820152602260248201527f45434453413a20696e76616c6964207369676e6174757265202773272076616c604482015261756560f01b6064820152608401610a9b565b600481600481111561229257634e487b7160e01b600052602160045260246000fd5b1415610af85760405162461bcd60e51b815260206004820152602260248201527f45434453413a20696e76616c6964207369676e6174757265202776272076616c604482015261756560f01b6064820152608401610a9b565b60008581526004602090815260408083206001600160a01b0388168452600381019092529091205460ff16156123735760405162461bcd60e51b815260206004820152602760248201527f476f7665726e6f72566f74696e6753696d706c653a20766f746520616c726561604482015266191e4818d85cdd60ca1b6064820152608401610a9b565b6001600160a01b03851660009081526003820160205260408120805460ff1916600117905560ff168460ff1614156123c457828160000160008282546123b991906135de565b909155506117a39050565b60ff8416600114156123e457828160010160008282546123b991906135de565b60ff84166002141561240457828160020160008282546123b991906135de565b60405162461bcd60e51b815260206004820152603560248201527f476f7665726e6f72566f74696e6753696d706c653a20696e76616c69642076616044820152746c756520666f7220656e756d20566f74655479706560581b6064820152608401610a9b565b8154600160801b90819004600f90810b80820b820b6000908152600180870160205260409091209490945584549301900b6001600160801b039081169091029116179055565b60065460405163e38335e560e01b81526001600160a01b039091169063e38335e59034906124eb90889088908890600090899060040161325f565b6000604051808303818588803b15801561250457600080fd5b505af1158015612518573d6000803e3d6000fd5b50505050505050505050565b6000818152600160205260408120600281015460ff16156125485750600792915050565b6002810154610100900460ff16156125635750600292915050565b600061256e84610ec2565b9050806125bd5760405162461bcd60e51b815260206004820152601d60248201527f476f7665726e6f723a20756e6b6e6f776e2070726f706f73616c2069640000006044820152606401610a9b565b4381106125ce575060009392505050565b60006125d98561124c565b90504381106125ed57506001949350505050565b6125f6856127c2565b8015612615575060008581526004602052604090208054600190910154115b1561262557506004949350505050565b506003949350505050565b60006001600160401b038211156126985760405162461bcd60e51b815260206004820152602660248201527f53616665436173743a2076616c756520646f65736e27742066697420696e203660448201526534206269747360d01b6064820152608401610a9b565b5090565b6060824710156126fd5760405162461bcd60e51b815260206004820152602660248201527f416464726573733a20696e73756666696369656e742062616c616e636520666f6044820152651c8818d85b1b60d21b6064820152608401610a9b565b6001600160a01b0385163b6127545760405162461bcd60e51b815260206004820152601d60248201527f416464726573733a2063616c6c20746f206e6f6e2d636f6e74726163740000006044820152606401610a9b565b600080866001600160a01b0316858760405161277091906131f8565b60006040518083038185875af1925050503d80600081146127ad576040519150601f19603f3d011682016040523d82523d6000602084013e6127b2565b606091505b5091509150610f648282866127f9565b6000818152600460205260408120600281015460018201546127e491906135de565b6127f061085185610ec2565b11159392505050565b60608315612808575081611110565b8251156128185782518084602001fd5b8160405162461bcd60e51b8152600401610a9b919061332d565b82805461283e906136a7565b90600052602060002090601f01602090048101928261286057600085556128a6565b82601f1061287957805160ff19168380011785556128a6565b828001600101855582156128a6579182015b828111156128a657825182559160200191906001019061288b565b506126989291505b8082111561269857600081556001016128ae565b60006001600160401b038311156128db576128db613713565b6128ee601f8401601f191660200161358b565b905082815283838301111561290257600080fd5b828260208301376000602084830101529392505050565b600082601f830112612929578081fd5b8135602061293e612939836135bb565b61358b565b80838252828201915082860187848660051b890101111561295d578586fd5b855b8581101561298457813561297281613729565b8452928401929084019060010161295f565b5090979650505050505050565b600082601f8301126129a1578081fd5b813560206129b1612939836135bb565b80838252828201915082860187848660051b89010111156129d0578586fd5b855b858110156129845781356001600160401b038111156129ef578788fd5b6129fd8a87838c0101612ab3565b85525092840192908401906001016129d2565b600082601f830112612a20578081fd5b81356020612a30612939836135bb565b80838252828201915082860187848660051b8901011115612a4f578586fd5b855b8581101561298457813584529284019290840190600101612a51565b60008083601f840112612a7e578182fd5b5081356001600160401b03811115612a94578182fd5b602083019150836020828501011115612aac57600080fd5b9250929050565b600082601f830112612ac3578081fd5b611110838335602085016128c2565b803560ff81168114612ae357600080fd5b919050565b600080600080600060a08688031215612aff578081fd5b8535612b0a81613729565b94506020860135612b1a81613729565b935060408601356001600160401b0380821115612b35578283fd5b612b4189838a01612a10565b94506060880135915080821115612b56578283fd5b612b6289838a01612a10565b93506080880135915080821115612b77578283fd5b50612b8488828901612ab3565b9150509295509295909350565b60008060008060808587031215612ba6578384fd5b8435612bb181613729565b93506020850135612bc181613729565b92506040850135915060608501356001600160401b03811115612be2578182fd5b612bee87828801612ab3565b91505092959194509250565b600080600080600060a08688031215612c11578081fd5b8535612c1c81613729565b94506020860135612c2c81613729565b9350604086013592506060860135915060808601356001600160401b03811115612c54578182fd5b612b8488828901612ab3565b60008060408385031215612c72578182fd5b8235612c7d81613729565b946020939093013593505050565b60008060008060608587031215612ca0578182fd5b8435612cab81613729565b93506020850135925060408501356001600160401b03811115612ccc578283fd5b612cd887828801612a6d565b95989497509550505050565b600080600060608486031215612cf8578081fd5b8335612d0381613729565b92506020840135915060408401356001600160401b03811115612d24578182fd5b612d3086828701612ab3565b9150509250925092565b60008060008060808587031215612d4f578182fd5b84356001600160401b0380821115612d65578384fd5b612d7188838901612919565b95506020870135915080821115612d86578384fd5b612d9288838901612a10565b94506040870135915080821115612da7578384fd5b50612db487828801612991565b949793965093946060013593505050565b60008060008060808587031215612dda578182fd5b84356001600160401b0380821115612df0578384fd5b612dfc88838901612919565b95506020870135915080821115612e11578384fd5b612e1d88838901612a10565b94506040870135915080821115612e32578384fd5b612e3e88838901612991565b93506060870135915080821115612e53578283fd5b508501601f81018713612e64578182fd5b612bee878235602084016128c2565b600060208284031215612e84578081fd5b81518015158114611110578182fd5b600060208284031215612ea4578081fd5b5051919050565b600060208284031215612ebc578081fd5b81356001600160e01b031981168114611110578182fd5b600060208284031215612ee4578081fd5b813561111081613729565b600060208284031215612f00578081fd5b5035919050565b60008060408385031215612f19578182fd5b823591506020830135612f2b81613729565b809150509250929050565b60008060408385031215612f48578182fd5b82359150612f5860208401612ad2565b90509250929050565b60008060008060608587031215612f76578182fd5b84359350612f8660208601612ad2565b925060408501356001600160401b03811115612ccc578283fd5b600080600080600060808688031215612fb7578283fd5b85359450612fc760208701612ad2565b935060408601356001600160401b0380821115612fe2578485fd5b612fee89838a01612a6d565b90955093506060880135915080821115612b77578283fd5b60008060008060008060008060e0898b031215613021578586fd5b8835975061303160208a01612ad2565b965060408901356001600160401b038082111561304c578788fd5b6130588c838d01612a6d565b909850965060608b0135915080821115613070578485fd5b5061307d8b828c01612ab3565b94505061308c60808a01612ad2565b925060a0890135915060c089013590509295985092959890939650565b600080600080600060a086880312156130c0578283fd5b853594506130d060208701612ad2565b93506130de60408701612ad2565b94979396509394606081013594506080013592915050565b6000815180845260208085019450808401835b8381101561312e5781516001600160a01b031687529582019590820190600101613109565b509495945050505050565b600081518084526020808501808196508360051b81019150828601855b8581101561318057828403895261316e8483516131bc565b98850198935090840190600101613156565b5091979650505050505050565b6000815180845260208085019450808401835b8381101561312e578151875295820195908201906001016131a0565b600081518084526131d4816020860160208601613677565b601f01601f19169290920160200192915050565b8183823760009101908152919050565b6000825161320a818460208701613677565b9190910192915050565b60808152600061322760808301876130f6565b8281036020840152613239818761318d565b9050828103604084015261324d8186613139565b91505082606083015295945050505050565b60a08152600061327260a08301886130f6565b8281036020840152613284818861318d565b905082810360408401526132988187613139565b60608401959095525050608001529392505050565b60c0815260006132c060c08301896130f6565b82810360208401526132d2818961318d565b905082810360408401526132e68188613139565b60608401969096525050608081019290925260a0909101529392505050565b602081016008831061332757634e487b7160e01b600052602160045260246000fd5b91905290565b60208152600061111060208301846131bc565b60208082526018908201527f476f7665726e6f723a206f6e6c79476f7665726e616e63650000000000000000604082015260600190565b60208082526021908201527f476f7665726e6f723a20696e76616c69642070726f706f73616c206c656e67746040820152600d60fb1b606082015260800190565b60208082526021908201527f476f7665726e6f723a2070726f706f73616c206e6f74207375636365737366756040820152601b60fa1b606082015260800190565b60006101208b8352602060018060a01b038c16818501528160408501526134228285018c6130f6565b91508382036060850152613436828b61318d565b915083820360808501528189518084528284019150828160051b850101838c01865b8381101561348657601f198784030185526134748383516131bc565b94860194925090850190600101613458565b505086810360a088015261349a818c613139565b9450505050506134b560c08401876001600160401b03169052565b6001600160401b03851660e08401528281036101008401526134d781856131bc565b9c9b505050505050505050505050565b85815260a06020820152600061350060a08301876131bc565b604083019590955250606081019290925260809091015292915050565b84815260ff8416602082015282604082015260806060820152600061103560808301846131bc565b85815260ff8516602082015283604082015260a06060820152600061356d60a08301856131bc565b828103608084015261357f81856131bc565b98975050505050505050565b604051601f8201601f191681016001600160401b03811182821017156135b3576135b3613713565b604052919050565b60006001600160401b038211156135d4576135d4613713565b5060051b60200190565b600082198211156135f1576135f16136fd565b500190565b60006001600160401b03808316818516808303821115613618576136186136fd565b01949350505050565b60008261363c57634e487b7160e01b81526012600452602481fd5b500490565b600081600019048311821515161561365b5761365b6136fd565b500290565b600082821015613672576136726136fd565b500390565b60005b8381101561369257818101518382015260200161367a565b838111156136a1576000848401525b50505050565b600181811c908216806136bb57607f821691505b602082108114156136dc57634e487b7160e01b600052602260045260246000fd5b50919050565b60006000198214156136f6576136f66136fd565b5060010190565b634e487b7160e01b600052601160045260246000fd5b634e487b7160e01b600052604160045260246000fd5b6001600160a01b0381168114610af857600080fdfe416464726573733a206c6f772d6c6576656c2063616c6c20776974682076616c7565206661696c6564a2646970667358221220f29e8b66822055fbc5bd69a2b0e4e374bbe07ac717eea4c039e1e35cc329461a64736f6c63430008040033",
  "linkReferences": {},
  "deployedLinkReferences": {}
}