{
  "_format": "hh-sol-artifact-1",
  "contractName": "Governance",
  "sourceName": "contracts/Governance.sol",
  "abi": [
    {
      "inputs": [
        {
          "internalType": "contract ERC20Votes",
          "name": "_token",
          "type": "address"
        },
        {
          "internalType": "contract TimelockController",
          "name": "_timelock",
          "type": "address"
        },
        {
          "internalType": "uint256",
          "name": "_quorum",
          "type": "uint256"
        },
        {
          "internalType": "uint256",
          "name": "_votingDelay",
          "type": "uint256"
        },
        {
          "internalType": "uint256",
          "name": "_votingPeriod",
          "type": "uint256"
        }
      ],
      "stateMutability": "nonpayable",
      "type": "constructor"
    },
    {
      "inputs": [],
      "name": "Empty",
      "type": "error"
    },
    {
      "anonymous": false,
      "inputs": [
        {
          "indexed": false,
          "internalType": "uint256",
          "name": "proposalId",
          "type": "uint256"
        }
      ],
      "name": "ProposalCanceled",
      "type": "event"
    },
    {
      "anonymous": false,
      "inputs": [
        {
          "indexed": false,
          "internalType": "uint256",
          "name": "proposalId",
          "type": "uint256"
        },
        {
          "indexed": false,
          "internalType": "address",
          "name": "proposer",
          "type": "address"
        },
        {
          "indexed": false,
          "internalType": "address[]",
          "name": "targets",
          "type": "address[]"
        },
        {
          "indexed": false,
          "internalType": "uint256[]",
          "name": "values",
          "type": "uint256[]"
        },
        {
          "indexed": false,
          "internalType": "string[]",
          "name": "signatures",
          "type": "string[]"
        },
        {
          "indexed": false,
          "internalType": "bytes[]",
          "name": "calldatas",
          "type": "bytes[]"
        },
        {
          "indexed": false,
          "internalType": "uint256",
          "name": "startBlock",
          "type": "uint256"
        },
        {
          "indexed": false,
          "internalType": "uint256",
          "name": "endBlock",
          "type": "uint256"
        },
        {
          "indexed": false,
          "internalType": "string",
          "name": "description",
          "type": "string"
        }
      ],
      "name": "ProposalCreated",
      "type": "event"
    },
    {
      "anonymous": false,
      "inputs": [
        {
          "indexed": false,
          "internalType": "uint256",
          "name": "proposalId",
          "type": "uint256"
        }
      ],
      "name": "ProposalExecuted",
      "type": "event"
    },
    {
      "anonymous": false,
      "inputs": [
        {
          "indexed": false,
          "internalType": "uint256",
          "name": "proposalId",
          "type": "uint256"
        },
        {
          "indexed": false,
          "internalType": "uint256",
          "name": "eta",
          "type": "uint256"
        }
      ],
      "name": "ProposalQueued",
      "type": "event"
    },
    {
      "anonymous": false,
      "inputs": [
        {
          "indexed": false,
          "internalType": "uint256",
          "name": "oldQuorumNumerator",
          "type": "uint256"
        },
        {
          "indexed": false,
          "internalType": "uint256",
          "name": "newQuorumNumerator",
          "type": "uint256"
        }
      ],
      "name": "QuorumNumeratorUpdated",
      "type": "event"
    },
    {
      "anonymous": false,
      "inputs": [
        {
          "indexed": false,
          "internalType": "address",
          "name": "oldTimelock",
          "type": "address"
        },
        {
          "indexed": false,
          "internalType": "address",
          "name": "newTimelock",
          "type": "address"
        }
      ],
      "name": "TimelockChange",
      "type": "event"
    },
    {
      "anonymous": false,
      "inputs": [
        {
          "indexed": true,
          "internalType": "address",
          "name": "voter",
          "type": "address"
        },
        {
          "indexed": false,
          "internalType": "uint256",
          "name": "proposalId",
          "type": "uint256"
        },
        {
          "indexed": false,
          "internalType": "uint8",
          "name": "support",
          "type": "uint8"
        },
        {
          "indexed": false,
          "internalType": "uint256",
          "name": "weight",
          "type": "uint256"
        },
        {
          "indexed": false,
          "internalType": "string",
          "name": "reason",
          "type": "string"
        }
      ],
      "name": "VoteCast",
      "type": "event"
    },
    {
      "anonymous": false,
      "inputs": [
        {
          "indexed": true,
          "internalType": "address",
          "name": "voter",
          "type": "address"
        },
        {
          "indexed": false,
          "internalType": "uint256",
          "name": "proposalId",
          "type": "uint256"
        },
        {
          "indexed": false,
          "internalType": "uint8",
          "name": "support",
          "type": "uint8"
        },
        {
          "indexed": false,
          "internalType": "uint256",
          "name": "weight",
          "type": "uint256"
        },
        {
          "indexed": false,
          "internalType": "string",
          "name": "reason",
          "type": "string"
        },
        {
          "indexed": false,
          "internalType": "bytes",
          "name": "params",
          "type": "bytes"
        }
      ],
      "name": "VoteCastWithParams",
      "type": "event"
    },
    {
      "inputs": [],
      "name": "BALLOT_TYPEHASH",
      "outputs": [
        {
          "internalType": "bytes32",
          "name": "",
          "type": "bytes32"
        }
      ],
      "stateMutability": "view",
      "type": "function"
    },
    {
      "inputs": [],
      "name": "COUNTING_MODE",
      "outputs": [
        {
          "internalType": "string",
          "name": "",
          "type": "string"
        }
      ],
      "stateMutability": "pure",
      "type": "function"
    },
    {
      "inputs": [],
      "name": "EXTENDED_BALLOT_TYPEHASH",
      "outputs": [
        {
          "internalType": "bytes32",
          "name": "",
          "type": "bytes32"
        }
      ],
      "stateMutability": "view",
      "type": "function"
    },
    {
      "inputs": [
        {
          "internalType": "uint256",
          "name": "proposalId",
          "type": "uint256"
        },
        {
          "internalType": "uint8",
          "name": "support",
          "type": "uint8"
        }
      ],
      "name": "castVote",
      "outputs": [
        {
          "internalType": "uint256",
          "name": "",
          "type": "uint256"
        }
      ],
      "stateMutability": "nonpayable",
      "type": "function"
    },
    {
      "inputs": [
        {
          "internalType": "uint256",
          "name": "proposalId",
          "type": "uint256"
        },
        {
          "internalType": "uint8",
          "name": "support",
          "type": "uint8"
        },
        {
          "internalType": "uint8",
          "name": "v",
          "type": "uint8"
        },
        {
          "internalType": "bytes32",
          "name": "r",
          "type": "bytes32"
        },
        {
          "internalType": "bytes32",
          "name": "s",
          "type": "bytes32"
        }
      ],
      "name": "castVoteBySig",
      "outputs": [
        {
          "internalType": "uint256",
          "name": "",
          "type": "uint256"
        }
      ],
      "stateMutability": "nonpayable",
      "type": "function"
    },
    {
      "inputs": [
        {
          "internalType": "uint256",
          "name": "proposalId",
          "type": "uint256"
        },
        {
          "internalType": "uint8",
          "name": "support",
          "type": "uint8"
        },
        {
          "internalType": "string",
          "name": "reason",
          "type": "string"
        }
      ],
      "name": "castVoteWithReason",
      "outputs": [
        {
          "internalType": "uint256",
          "name": "",
          "type": "uint256"
        }
      ],
      "stateMutability": "nonpayable",
      "type": "function"
    },
    {
      "inputs": [
        {
          "internalType": "uint256",
          "name": "proposalId",
          "type": "uint256"
        },
        {
          "internalType": "uint8",
          "name": "support",
          "type": "uint8"
        },
        {
          "internalType": "string",
          "name": "reason",
          "type": "string"
        },
        {
          "internalType": "bytes",
          "name": "params",
          "type": "bytes"
        }
      ],
      "name": "castVoteWithReasonAndParams",
      "outputs": [
        {
          "internalType": "uint256",
          "name": "",
          "type": "uint256"
        }
      ],
      "stateMutability": "nonpayable",
      "type": "function"
    },
    {
      "inputs": [
        {
          "internalType": "uint256",
          "name": "proposalId",
          "type": "uint256"
        },
        {
          "internalType": "uint8",
          "name": "support",
          "type": "uint8"
        },
        {
          "internalType": "string",
          "name": "reason",
          "type": "string"
        },
        {
          "internalType": "bytes",
          "name": "params",
          "type": "bytes"
        },
        {
          "internalType": "uint8",
          "name": "v",
          "type": "uint8"
        },
        {
          "internalType": "bytes32",
          "name": "r",
          "type": "bytes32"
        },
        {
          "internalType": "bytes32",
          "name": "s",
          "type": "bytes32"
        }
      ],
      "name": "castVoteWithReasonAndParamsBySig",
      "outputs": [
        {
          "internalType": "uint256",
          "name": "",
          "type": "uint256"
        }
      ],
      "stateMutability": "nonpayable",
      "type": "function"
    },
    {
      "inputs": [
        {
          "internalType": "address[]",
          "name": "targets",
          "type": "address[]"
        },
        {
          "internalType": "uint256[]",
          "name": "values",
          "type": "uint256[]"
        },
        {
          "internalType": "bytes[]",
          "name": "calldatas",
          "type": "bytes[]"
        },
        {
          "internalType": "bytes32",
          "name": "descriptionHash",
          "type": "bytes32"
        }
      ],
      "name": "execute",
      "outputs": [
        {
          "internalType": "uint256",
          "name": "",
          "type": "uint256"
        }
      ],
      "stateMutability": "payable",
      "type": "function"
    },
    {
      "inputs": [
        {
          "internalType": "address",
          "name": "account",
          "type": "address"
        },
        {
          "internalType": "uint256",
          "name": "blockNumber",
          "type": "uint256"
        }
      ],
      "name": "getVotes",
      "outputs": [
        {
          "internalType": "uint256",
          "name": "",
          "type": "uint256"
        }
      ],
      "stateMutability": "view",
      "type": "function"
    },
    {
      "inputs": [
        {
          "internalType": "address",
          "name": "account",
          "type": "address"
        },
        {
          "internalType": "uint256",
          "name": "blockNumber",
          "type": "uint256"
        },
        {
          "internalType": "bytes",
          "name": "params",
          "type": "bytes"
        }
      ],
      "name": "getVotesWithParams",
      "outputs": [
        {
          "internalType": "uint256",
          "name": "",
          "type": "uint256"
        }
      ],
      "stateMutability": "view",
      "type": "function"
    },
    {
      "inputs": [
        {
          "internalType": "uint256",
          "name": "proposalId",
          "type": "uint256"
        },
        {
          "internalType": "address",
          "name": "account",
          "type": "address"
        }
      ],
      "name": "hasVoted",
      "outputs": [
        {
          "internalType": "bool",
          "name": "",
          "type": "bool"
        }
      ],
      "stateMutability": "view",
      "type": "function"
    },
    {
      "inputs": [
        {
          "internalType": "address[]",
          "name": "targets",
          "type": "address[]"
        },
        {
          "internalType": "uint256[]",
          "name": "values",
          "type": "uint256[]"
        },
        {
          "internalType": "bytes[]",
          "name": "calldatas",
          "type": "bytes[]"
        },
        {
          "internalType": "bytes32",
          "name": "descriptionHash",
          "type": "bytes32"
        }
      ],
      "name": "hashProposal",
      "outputs": [
        {
          "internalType": "uint256",
          "name": "",
          "type": "uint256"
        }
      ],
      "stateMutability": "pure",
      "type": "function"
    },
    {
      "inputs": [],
      "name": "name",
      "outputs": [
        {
          "internalType": "string",
          "name": "",
          "type": "string"
        }
      ],
      "stateMutability": "view",
      "type": "function"
    },
    {
      "inputs": [
        {
          "internalType": "address",
          "name": "",
          "type": "address"
        },
        {
          "internalType": "address",
          "name": "",
          "type": "address"
        },
        {
          "internalType": "uint256[]",
          "name": "",
          "type": "uint256[]"
        },
        {
          "internalType": "uint256[]",
          "name": "",
          "type": "uint256[]"
        },
        {
          "internalType": "bytes",
          "name": "",
          "type": "bytes"
        }
      ],
      "name": "onERC1155BatchReceived",
      "outputs": [
        {
          "internalType": "bytes4",
          "name": "",
          "type": "bytes4"
        }
      ],
      "stateMutability": "nonpayable",
      "type": "function"
    },
    {
      "inputs": [
        {
          "internalType": "address",
          "name": "",
          "type": "address"
        },
        {
          "internalType": "address",
          "name": "",
          "type": "address"
        },
        {
          "internalType": "uint256",
          "name": "",
          "type": "uint256"
        },
        {
          "internalType": "uint256",
          "name": "",
          "type": "uint256"
        },
        {
          "internalType": "bytes",
          "name": "",
          "type": "bytes"
        }
      ],
      "name": "onERC1155Received",
      "outputs": [
        {
          "internalType": "bytes4",
          "name": "",
          "type": "bytes4"
        }
      ],
      "stateMutability": "nonpayable",
      "type": "function"
    },
    {
      "inputs": [
        {
          "internalType": "address",
          "name": "",
          "type": "address"
        },
        {
          "internalType": "address",
          "name": "",
          "type": "address"
        },
        {
          "internalType": "uint256",
          "name": "",
          "type": "uint256"
        },
        {
          "internalType": "bytes",
          "name": "",
          "type": "bytes"
        }
      ],
      "name": "onERC721Received",
      "outputs": [
        {
          "internalType": "bytes4",
          "name": "",
          "type": "bytes4"
        }
      ],
      "stateMutability": "nonpayable",
      "type": "function"
    },
    {
      "inputs": [
        {
          "internalType": "uint256",
          "name": "proposalId",
          "type": "uint256"
        }
      ],
      "name": "proposalDeadline",
      "outputs": [
        {
          "internalType": "uint256",
          "name": "",
          "type": "uint256"
        }
      ],
      "stateMutability": "view",
      "type": "function"
    },
    {
      "inputs": [
        {
          "internalType": "uint256",
          "name": "proposalId",
          "type": "uint256"
        }
      ],
      "name": "proposalEta",
      "outputs": [
        {
          "internalType": "uint256",
          "name": "",
          "type": "uint256"
        }
      ],
      "stateMutability": "view",
      "type": "function"
    },
    {
      "inputs": [],
      "name": "proposalIterator",
      "outputs": [
        {
          "internalType": "uint256",
          "name": "",
          "type": "uint256"
        }
      ],
      "stateMutability": "view",
      "type": "function"
    },
    {
      "inputs": [
        {
          "internalType": "uint256",
          "name": "proposalId",
          "type": "uint256"
        }
      ],
      "name": "proposalSnapshot",
      "outputs": [
        {
          "internalType": "uint256",
          "name": "",
          "type": "uint256"
        }
      ],
      "stateMutability": "view",
      "type": "function"
    },
    {
      "inputs": [],
      "name": "proposalThreshold",
      "outputs": [
        {
          "internalType": "uint256",
          "name": "",
          "type": "uint256"
        }
      ],
      "stateMutability": "view",
      "type": "function"
    },
    {
      "inputs": [
        {
          "internalType": "uint256",
          "name": "proposalId",
          "type": "uint256"
        }
      ],
      "name": "proposalVotes",
      "outputs": [
        {
          "internalType": "uint256",
          "name": "againstVotes",
          "type": "uint256"
        },
        {
          "internalType": "uint256",
          "name": "forVotes",
          "type": "uint256"
        },
        {
          "internalType": "uint256",
          "name": "abstainVotes",
          "type": "uint256"
        }
      ],
      "stateMutability": "view",
      "type": "function"
    },
    {
      "inputs": [
        {
          "internalType": "uint256",
          "name": "",
          "type": "uint256"
        }
      ],
      "name": "proposals",
      "outputs": [
        {
          "internalType": "uint256",
          "name": "iterator",
          "type": "uint256"
        },
        {
          "internalType": "string",
          "name": "description",
          "type": "string"
        },
        {
          "internalType": "uint256",
          "name": "proposalId",
          "type": "uint256"
        },
        {
          "internalType": "uint256",
          "name": "startBlock",
          "type": "uint256"
        },
        {
          "internalType": "uint256",
          "name": "endBlock",
          "type": "uint256"
        },
        {
          "internalType": "bytes",
          "name": "calldatas",
          "type": "bytes"
        }
      ],
      "stateMutability": "view",
      "type": "function"
    },
    {
      "inputs": [
        {
          "internalType": "address[]",
          "name": "targets",
          "type": "address[]"
        },
        {
          "internalType": "uint256[]",
          "name": "values",
          "type": "uint256[]"
        },
        {
          "internalType": "bytes[]",
          "name": "calldatas",
          "type": "bytes[]"
        },
        {
          "internalType": "string",
          "name": "description",
          "type": "string"
        }
      ],
      "name": "propose",
      "outputs": [
        {
          "internalType": "uint256",
          "name": "",
          "type": "uint256"
        }
      ],
      "stateMutability": "nonpayable",
      "type": "function"
    },
    {
      "inputs": [
        {
          "internalType": "address[]",
          "name": "targets",
          "type": "address[]"
        },
        {
          "internalType": "uint256[]",
          "name": "values",
          "type": "uint256[]"
        },
        {
          "internalType": "bytes[]",
          "name": "calldatas",
          "type": "bytes[]"
        },
        {
          "internalType": "bytes32",
          "name": "descriptionHash",
          "type": "bytes32"
        }
      ],
      "name": "queue",
      "outputs": [
        {
          "internalType": "uint256",
          "name": "",
          "type": "uint256"
        }
      ],
      "stateMutability": "nonpayable",
      "type": "function"
    },
    {
      "inputs": [
        {
          "internalType": "uint256",
          "name": "blockNumber",
          "type": "uint256"
        }
      ],
      "name": "quorum",
      "outputs": [
        {
          "internalType": "uint256",
          "name": "",
          "type": "uint256"
        }
      ],
      "stateMutability": "view",
      "type": "function"
    },
    {
      "inputs": [],
      "name": "quorumDenominator",
      "outputs": [
        {
          "internalType": "uint256",
          "name": "",
          "type": "uint256"
        }
      ],
      "stateMutability": "view",
      "type": "function"
    },
    {
      "inputs": [
        {
          "internalType": "uint256",
          "name": "blockNumber",
          "type": "uint256"
        }
      ],
      "name": "quorumNumerator",
      "outputs": [
        {
          "internalType": "uint256",
          "name": "",
          "type": "uint256"
        }
      ],
      "stateMutability": "view",
      "type": "function"
    },
    {
      "inputs": [],
      "name": "quorumNumerator",
      "outputs": [
        {
          "internalType": "uint256",
          "name": "",
          "type": "uint256"
        }
      ],
      "stateMutability": "view",
      "type": "function"
    },
    {
      "inputs": [
        {
          "internalType": "address",
          "name": "target",
          "type": "address"
        },
        {
          "internalType": "uint256",
          "name": "value",
          "type": "uint256"
        },
        {
          "internalType": "bytes",
          "name": "data",
          "type": "bytes"
        }
      ],
      "name": "relay",
      "outputs": [],
      "stateMutability": "nonpayable",
      "type": "function"
    },
    {
      "inputs": [
        {
          "internalType": "uint256",
          "name": "proposalId",
          "type": "uint256"
        }
      ],
      "name": "state",
      "outputs": [
        {
          "internalType": "enum IGovernor.ProposalState",
          "name": "",
          "type": "uint8"
        }
      ],
      "stateMutability": "view",
      "type": "function"
    },
    {
      "inputs": [
        {
          "internalType": "bytes4",
          "name": "interfaceId",
          "type": "bytes4"
        }
      ],
      "name": "supportsInterface",
      "outputs": [
        {
          "internalType": "bool",
          "name": "",
          "type": "bool"
        }
      ],
      "stateMutability": "view",
      "type": "function"
    },
    {
      "inputs": [],
      "name": "timelock",
      "outputs": [
        {
          "internalType": "address",
          "name": "",
          "type": "address"
        }
      ],
      "stateMutability": "view",
      "type": "function"
    },
    {
      "inputs": [],
      "name": "token",
      "outputs": [
        {
          "internalType": "contract IVotes",
          "name": "",
          "type": "address"
        }
      ],
      "stateMutability": "view",
      "type": "function"
    },
    {
      "inputs": [
        {
          "internalType": "uint256",
          "name": "newQuorumNumerator",
          "type": "uint256"
        }
      ],
      "name": "updateQuorumNumerator",
      "outputs": [],
      "stateMutability": "nonpayable",
      "type": "function"
    },
    {
      "inputs": [
        {
          "internalType": "contract TimelockController",
          "name": "newTimelock",
          "type": "address"
        }
      ],
      "name": "updateTimelock",
      "outputs": [],
      "stateMutability": "nonpayable",
      "type": "function"
    },
    {
      "inputs": [],
      "name": "version",
      "outputs": [
        {
          "internalType": "string",
          "name": "",
          "type": "string"
        }
      ],
      "stateMutability": "view",
      "type": "function"
    },
    {
      "inputs": [],
      "name": "votingDelay",
      "outputs": [
        {
          "internalType": "uint256",
          "name": "",
          "type": "uint256"
        }
      ],
      "stateMutability": "view",
      "type": "function"
    },
    {
      "inputs": [],
      "name": "votingDelay_",
      "outputs": [
        {
          "internalType": "uint256",
          "name": "",
          "type": "uint256"
        }
      ],
      "stateMutability": "view",
      "type": "function"
    },
    {
      "inputs": [],
      "name": "votingPeriod",
      "outputs": [
        {
          "internalType": "uint256",
          "name": "",
          "type": "uint256"
        }
      ],
      "stateMutability": "view",
      "type": "function"
    },
    {
      "inputs": [],
      "name": "votingPeriod_",
      "outputs": [
        {
          "internalType": "uint256",
          "name": "",
          "type": "uint256"
        }
      ],
      "stateMutability": "view",
      "type": "function"
    },
    {
      "stateMutability": "payable",
      "type": "receive"
    }
  ],
  "bytecode": "0x6101606040523480156200001257600080fd5b50604051620050f2380380620050f2833981016040819052620000359162000641565b8383866040518060400160405280600d81526020016c5261737042657272792044414f60981b815250806200006f6200011e60201b60201c565b815160208084019190912082519183019190912060e08290526101008190524660a0527f8b73c3c69bb8fe3d512ecc4cf759cc79239f7b179b0ffacaa9a75d522b39400f620000c081848462000139565b6080523060c0526101205250508251620000e492506000915060208401906200054a565b50506001600160a01b031661014052620000fe8162000176565b506200010a8162000298565b50600a91909155600b555062000916915050565b6040805180820190915260018152603160f81b602082015290565b6000838383463060405160200162000156959493929190620006d8565b6040516020818303038152906040528051906020012090505b9392505050565b6064811115620001a35760405162461bcd60e51b81526004016200019a906200072e565b60405180910390fd5b6000620001af62000303565b90508015801590620001c15750600654155b156200023c5760066000016040518060400160405280600063ffffffff168152602001620001fa846200033260201b620016241760201c565b6001600160e01b0390811690915282546001810184556000938452602093849020835194909301519091166401000000000263ffffffff909316929092179101555b620002578260066200036260201b620016511790919060201c565b50507f0553476bf02ef2726e8ce5ced78d63e26e602e4a2257b1f559418e24b463399781836040516200028c9291906200079c565b60405180910390a15050565b6007546040517f08f74ea46ef7894f65eabfb5e6e695de773a000b47c529ab559178069b22640191620002d9916001600160a01b03909116908490620007bb565b60405180910390a1600780546001600160a01b0319166001600160a01b0392909216919091179055565b600654600090156200032b57620003266006620004be60201b6200177c1760201c565b905090565b5060055490565b60006001600160e01b038211156200035e5760405162461bcd60e51b81526004016200019a9062000821565b5090565b81546000908190816200037586620004be565b9050600082118015620003b9575043866200039260018562000849565b81548110620003a557620003a562000863565b60009182526020909120015463ffffffff16145b156200042d57620003d5856200033260201b620016241760201c565b86620003e360018562000849565b81548110620003f657620003f662000863565b9060005260206000200160000160046101000a8154816001600160e01b0302191690836001600160e01b03160217905550620004b5565b85600001604051806040016040528062000452436200052160201b620017d81760201c565b63ffffffff16815260200162000473886200033260201b620016241760201c565b6001600160e01b0390811690915282546001810184556000938452602093849020835194909301519091166401000000000263ffffffff909316929092179101555b95939450505050565b805460009080156200050e5782620004d860018362000849565b81548110620004eb57620004eb62000863565b60009182526020909120015464010000000090046001600160e01b031662000511565b60005b6001600160e01b03169392505050565b600063ffffffff8211156200035e5760405162461bcd60e51b81526004016200019a90620008bd565b8280546200055890620008e5565b90600052602060002090601f0160209004810192826200057c5760008555620005c7565b82601f106200059757805160ff1916838001178555620005c7565b82800160010185558215620005c7579182015b82811115620005c7578251825591602001919060010190620005aa565b506200035e9291505b808211156200035e5760008155600101620005d0565b60006001600160a01b0382165b92915050565b6000620005f382620005e6565b6200061181620005f9565b81146200061d57600080fd5b50565b8051620005f38162000606565b8062000611565b8051620005f3816200062d565b600080600080600060a086880312156200065e576200065e600080fd5b60006200066c888862000620565b95505060206200067f8882890162000620565b9450506040620006928882890162000634565b9350506060620006a58882890162000634565b9250506080620006b88882890162000634565b9150509295509295909350565b805b82525050565b620006c781620005e6565b60a08101620006e88288620006c5565b620006f76020830187620006c5565b620007066040830186620006c5565b620007156060830185620006c5565b620007246080830184620006cd565b9695505050505050565b60208082528101620005f381604381527f476f7665726e6f72566f74657351756f72756d4672616374696f6e3a2071756f60208201527f72756d4e756d657261746f72206f7665722071756f72756d44656e6f6d696e616040820152623a37b960e91b606082015260800190565b60408101620007ac8285620006c5565b6200016f6020830184620006c5565b60408101620007cb8285620006cd565b6200016f6020830184620006cd565b602781526000602082017f53616665436173743a2076616c756520646f65736e27742066697420696e20328152663234206269747360c81b602082015291505b5060400190565b60208082528101620005f381620007da565b634e487b7160e01b600052601160045260246000fd5b6000828210156200085e576200085e62000833565b500390565b634e487b7160e01b600052603260045260246000fd5b602681526000602082017f53616665436173743a2076616c756520646f65736e27742066697420696e203381526532206269747360d01b602082015291506200081a565b60208082528101620005f38162000879565b634e487b7160e01b600052602260045260246000fd5b600281046001821680620008fa57607f821691505b60208210811415620009105762000910620008cf565b50919050565b60805160a05160c05160e0516101005161012051610140516147736200097f6000396000818161092f0152818161211601526122a201526000612492015260006124d4015260006124b301526000612417015260006124410152600061246b01526147736000f3fe6080604052600436106102d55760003560e01c80637b3c71d311610179578063c01f9e37116100d6578063dd4e2ba51161008a578063f23a6e6111610064578063f23a6e61146108b8578063f8ce560a146108fd578063fc0c546a1461091d57600080fd5b8063dd4e2ba51461081e578063deaaa7cc14610864578063eb9019d41461089857600080fd5b8063c59057e4116100bb578063c59057e4146107c2578063c8d06ff9146107e2578063d33219b4146107f857600080fd5b8063c01f9e3714610782578063c28bc2fa146107a257600080fd5b8063a7713a701161012d578063ab58fb8e11610112578063ab58fb8e14610709578063b58131b014610729578063bc197c811461073d57600080fd5b8063a7713a70146106d4578063a890c910146106e957600080fd5b80638b02dbde1161015e5780638b02dbde1461068a57806397c3d334146106a05780639a802a6d146106b457600080fd5b80637b3c71d31461064a5780637d5e81e21461066a57600080fd5b80632fe3e2611161023257806343859632116101e657806356781388116101c057806356781388146105ea5780635f398a141461060a57806360c4247f1461062a57600080fd5b80634385963214610511578063544ffc9c1461055b57806354fd4d50146105a457600080fd5b80633bccf4fd116102175780633bccf4fd146104ae5780633e4f49e6146104ce57806342024c2b146104fb57600080fd5b80632fe3e261146104655780633932abb11461049957600080fd5b806306fdde0311610289578063160cbed71161026e578063160cbed7146104125780632656227d146104325780632d63f6931461044557600080fd5b806306fdde03146103c3578063150b7a02146103e557600080fd5b806302a251a3116102ba57806302a251a314610365578063034201811461038357806306f3f9e6146103a357600080fd5b8063013cf08b146102fd57806301ffc9a71461033857600080fd5b366102f857306102e361095e565b6001600160a01b0316146102f657600080fd5b005b600080fd5b34801561030957600080fd5b5061031d610318366004612bf5565b610977565b60405161032f96959493929190612c80565b60405180910390f35b34801561034457600080fd5b50610358610353366004612d02565b610abc565b60405161032f9190612d2b565b34801561037157600080fd5b50600b545b60405161032f9190612d39565b34801561038f57600080fd5b5061037661039e366004612ea1565b610acd565b3480156103af57600080fd5b506102f66103be366004612bf5565b610ba4565b3480156103cf57600080fd5b506103d8610c3c565b60405161032f9190612f7a565b3480156103f157600080fd5b50610405610400366004612fb0565b610cce565b60405161032f919061303f565b34801561041e57600080fd5b5061037661042d3660046131f7565b610cf8565b6103766104403660046131f7565b610f5f565b34801561045157600080fd5b50610376610460366004612bf5565b611051565b34801561047157600080fd5b506103767fb3b3f3b703cd84ce352197dcff232b1b5d3cfb2025ce47cf04742d0651f1af8881565b3480156104a557600080fd5b50600a54610376565b3480156104ba57600080fd5b506103766104c936600461329f565b61108a565b3480156104da57600080fd5b506104ee6104e9366004612bf5565b6110f2565b60405161032f919061335b565b34801561050757600080fd5b50610376600b5481565b34801561051d57600080fd5b5061035861052c366004613369565b60008281526004602090815260408083206001600160a01b038516845260030190915290205460ff1692915050565b34801561056757600080fd5b50610595610576366004612bf5565b6000908152600460205260409020805460018201546002909201549092565b60405161032f939291906133a6565b3480156105b057600080fd5b5060408051808201909152600181527f310000000000000000000000000000000000000000000000000000000000000060208201526103d8565b3480156105f657600080fd5b506103766106053660046133ce565b6110fd565b34801561061657600080fd5b50610376610625366004613401565b61111e565b34801561063657600080fd5b50610376610645366004612bf5565b611168565b34801561065657600080fd5b50610376610665366004613493565b6111fe565b34801561067657600080fd5b50610376610685366004613501565b611250565b34801561069657600080fd5b50610376600a5481565b3480156106ac57600080fd5b506064610376565b3480156106c057600080fd5b506103766106cf366004613598565b611354565b3480156106e057600080fd5b5061037661136b565b3480156106f557600080fd5b506102f6610704366004613622565b611387565b34801561071557600080fd5b50610376610724366004612bf5565b611413565b34801561073557600080fd5b506000610376565b34801561074957600080fd5b50610405610758366004613643565b7fbc197c810000000000000000000000000000000000000000000000000000000095945050505050565b34801561078e57600080fd5b5061037661079d366004612bf5565b6114d7565b3480156107ae57600080fd5b506102f66107bd3660046136f3565b611507565b3480156107ce57600080fd5b506103766107dd3660046131f7565b6115d3565b3480156107ee57600080fd5b50610376600c5481565b34801561080457600080fd5b506007546001600160a01b031660405161032f9190613732565b34801561082a57600080fd5b506040805180820190915260208082527f737570706f72743d627261766f2671756f72756d3d666f722c6162737461696e908201526103d8565b34801561087057600080fd5b506103767f150214d74d59b7d1e90c73fc22ef3d991dd0a76b046543d4d80ab92d2a50328f81565b3480156108a457600080fd5b506103766108b3366004613740565b61160d565b3480156108c457600080fd5b506104056108d3366004613773565b7ff23a6e610000000000000000000000000000000000000000000000000000000095945050505050565b34801561090957600080fd5b50610376610918366004612bf5565b611619565b34801561092957600080fd5b506109517f000000000000000000000000000000000000000000000000000000000000000081565b60405161032f919061380f565b60006109726007546001600160a01b031690565b905090565b6009602052600090815260409020805460018201805491929161099990613833565b80601f01602080910402602001604051908101604052809291908181526020018280546109c590613833565b8015610a125780601f106109e757610100808354040283529160200191610a12565b820191906000526020600020905b8154815290600101906020018083116109f557829003601f168201915b505050505090806002015490806003015490806004015490806005018054610a3990613833565b80601f0160208091040260200160405190810160405280929190818152602001828054610a6590613833565b8015610ab25780601f10610a8757610100808354040283529160200191610ab2565b820191906000526020600020905b815481529060010190602001808311610a9557829003601f168201915b5050505050905086565b6000610ac7826117fe565b92915050565b600080610b50610b487fb3b3f3b703cd84ce352197dcff232b1b5d3cfb2025ce47cf04742d0651f1af888c8c8c8c604051610b09929190613873565b60405180910390208b80519060200120604051602001610b2d959493929190613889565b6040516020818303038152906040528051906020012061183c565b86868661184f565b9050610b968a828b8b8b8080601f0160208091040260200160405190810160405280939291908181526020018383808284376000920191909152508d925061186d915050565b9a9950505050505050505050565b610bac61095e565b6001600160a01b0316336001600160a01b031614610be55760405162461bcd60e51b8152600401610bdc90613902565b60405180910390fd5b30610bee61095e565b6001600160a01b031614610c305760008036604051610c0e929190613873565b604051809103902090505b80610c246002611994565b14610c2e57610c19565b505b610c3981611a51565b50565b606060008054610c4b90613833565b80601f0160208091040260200160405190810160405280929190818152602001828054610c7790613833565b8015610cc45780601f10610c9957610100808354040283529160200191610cc4565b820191906000526020600020905b815481529060010190602001808311610ca757829003601f168201915b5050505050905090565b7f150b7a02000000000000000000000000000000000000000000000000000000005b949350505050565b600080610d07868686866115d3565b90506004610d14826110f2565b6007811115610d2557610d25613317565b14610d425760405162461bcd60e51b8152600401610bdc9061396f565b600754604080517ff27a0c9200000000000000000000000000000000000000000000000000000000815290516000926001600160a01b03169163f27a0c92916004808301926020929190829003018186803b158015610da057600080fd5b505afa158015610db4573d6000803e3d6000fd5b505050506040513d601f19601f82011682018060405250810190610dd8919061398a565b6007546040517fb1c5f4270000000000000000000000000000000000000000000000000000000081529192506001600160a01b03169063b1c5f42790610e2b908a908a908a906000908b90600401613ad9565b60206040518083038186803b158015610e4357600080fd5b505afa158015610e57573d6000803e3d6000fd5b505050506040513d601f19601f82011682018060405250810190610e7b919061398a565b6000838152600860205260408082209290925560075491517f8f2a0bb00000000000000000000000000000000000000000000000000000000081526001600160a01b0390921691638f2a0bb091610edf918b918b918b91908b908990600401613b21565b600060405180830381600087803b158015610ef957600080fd5b505af1158015610f0d573d6000803e3d6000fd5b505050507f9a2e42fd6722813d69113e7d0079d3d940171428df7373df9c7f7617cfda2892828242610f3f9190613b99565b604051610f4d929190613bb1565b60405180910390a15095945050505050565b600080610f6e868686866115d3565b90506000610f7b826110f2565b90506004816007811115610f9157610f91613317565b1480610fae57506005816007811115610fac57610fac613317565b145b610fca5760405162461bcd60e51b8152600401610bdc9061396f565b600082815260016020819052604091829020600201805460ff19169091179055517f712ae1383f79ac853f8d882153778e0260ef8f03b504e2866e0593e04d2b291f90611018908490612d39565b60405180910390a161102d8288888888611b3c565b61103a8288888888611bde565b6110478288888888611beb565b5095945050505050565b600081815260016020908152604080832081519283019091525467ffffffffffffffff16908190525b67ffffffffffffffff1692915050565b6000806110c8610b487f150214d74d59b7d1e90c73fc22ef3d991dd0a76b046543d4d80ab92d2a50328f8989604051602001610b2d93929190613bcc565b90506110e587828860405180602001604052806000815250611c31565b9150505b95945050505050565b6000610ac782611c54565b600080339050610cf084828560405180602001604052806000815250611c31565b6000803390506110e587828888888080601f0160208091040260200160405190810160405280939291908181526020018383808284376000920191909152508a925061186d915050565b6006546000908061117d575050600554919050565b6000600661118c600184613bf4565b8154811061119c5761119c613c0b565b60009182526020918290206040805180820190915291015463ffffffff81168083526401000000009091046001600160e01b031692820192909252915084106111f357602001516001600160e01b03169392505050565b610cf0600685611df6565b60008033905061124686828787878080601f016020809104026020016040519081016040528093929190818152602001838380828437600092019190915250611c3192505050565b9695505050505050565b60008061125f86868686611ed5565b9050600061126c82611051565b90506000611279836114d7565b600c8054919250600061128b83613c21565b91905055506040518060c00160405280600c548152602001868152602001848152602001838152602001828152602001876000815181106112ce576112ce613c0b565b602090810291909101810151909152600c546000908152600982526040902082518155828201518051919261130b92600185019290910190612b4d565b5060408201516002820155606082015160038201556080820151600482015560a08201518051611345916005840191602090910190612b4d565b50939998505050505050505050565b60006113618484846120e3565b90505b9392505050565b6006546000901561138057610972600661177c565b5060055490565b61138f61095e565b6001600160a01b0316336001600160a01b0316146113bf5760405162461bcd60e51b8152600401610bdc90613902565b306113c861095e565b6001600160a01b03161461140a57600080366040516113e8929190613873565b604051809103902090505b806113fe6002611994565b14611408576113f3565b505b610c398161219d565b6007546000828152600860205260408082205490517fd45c4435000000000000000000000000000000000000000000000000000000008152919283926001600160a01b039091169163d45c44359161146e9190600401612d39565b60206040518083038186803b15801561148657600080fd5b505afa15801561149a573d6000803e3d6000fd5b505050506040513d601f19601f820116820180604052508101906114be919061398a565b9050806001146114ce5780611364565b60009392505050565b600081815260016020818152604080842081519283019091529091015467ffffffffffffffff169081905261107a565b61150f61095e565b6001600160a01b0316336001600160a01b03161461153f5760405162461bcd60e51b8152600401610bdc90613902565b3061154861095e565b6001600160a01b03161461158a5760008036604051611568929190613873565b604051809103902090505b8061157e6002611994565b1461158857611573565b505b6115cc8483838080601f01602080910402602001604051908101604052809392919081815260200183838082843760009201919091525088925061221e915050565b5050505050565b6000848484846040516020016115ec9493929190613c3c565b60408051601f19818403018152919052805160209091012095945050505050565b60006113648383612244565b6000610ac782612265565b60006001600160e01b0382111561164d5760405162461bcd60e51b8152600401610bdc90613cde565b5090565b81546000908190816116628661177c565b90506000821180156116a05750438661167c600185613bf4565b8154811061168c5761168c613c0b565b60009182526020909120015463ffffffff16145b15611700576116ae85611624565b866116ba600185613bf4565b815481106116ca576116ca613c0b565b9060005260206000200160000160046101000a8154816001600160e01b0302191690836001600160e01b0316021790555061176e565b856000016040518060400160405280611718436117d8565b63ffffffff16815260200161172c88611624565b6001600160e01b0390811690915282546001810184556000938452602093849020835194909301519091166401000000000263ffffffff909316929092179101555b9250839150505b9250929050565b805460009080156117c55782611793600183613bf4565b815481106117a3576117a3613c0b565b60009182526020909120015464010000000090046001600160e01b03166117c8565b60005b6001600160e01b03169392505050565b600063ffffffff82111561164d5760405162461bcd60e51b8152600401610bdc90613d48565b60006001600160e01b031982167f6e665ced000000000000000000000000000000000000000000000000000000001480610ac75750610ac78261233b565b6000610ac761184961240a565b836124f8565b60008060006118608787878761252b565b915091506110478161260b565b6000858152600160208190526040822090611887886110f2565b600781111561189857611898613317565b146118b55760405162461bcd60e51b8152600401610bdc90613db2565b6040805160208101909152815467ffffffffffffffff16908190526000906118df908890866120e3565b90506118ee88888884886126f0565b835161194057866001600160a01b03167fb8e138887d0aa13bab447e82de9d5c1777041ecd21ca36ba824ff1e6c07ddda4898884896040516119339493929190613dc2565b60405180910390a26110e5565b866001600160a01b03167fe2babfbac5889a709b63bb7f598b324e08bc5a4fb9ec647fb3cbc9ec07eb87128988848989604051611981959493929190613dfc565b60405180910390a2979650505050505050565b60006119bc8254600f81810b700100000000000000000000000000000000909204900b131590565b156119f3576040517f3db2a12a00000000000000000000000000000000000000000000000000000000815260040160405180910390fd5b508054600f0b6000818152600180840160205260408220805492905583547fffffffffffffffffffffffffffffffff000000000000000000000000000000001692016fffffffffffffffffffffffffffffffff169190911790915590565b6064811115611a725760405162461bcd60e51b8152600401610bdc90613e4a565b6000611a7c61136b565b90508015801590611a8d5750600654155b15611af257604080518082019091526000815260069060208101611ab084611624565b6001600160e01b0390811690915282546001810184556000938452602093849020835194909301519091166401000000000263ffffffff909316929092179101555b611afd600683611651565b50507f0553476bf02ef2726e8ce5ced78d63e26e602e4a2257b1f559418e24b46339978183604051611b30929190613bb1565b60405180910390a15050565b30611b4561095e565b6001600160a01b0316146115cc5760005b8451811015611bd657306001600160a01b0316858281518110611b7b57611b7b613c0b565b60200260200101516001600160a01b03161415611bc657611bc6838281518110611ba757611ba7613c0b565b60200260200101518051906020012060026127e190919063ffffffff16565b611bcf81613c21565b9050611b56565b505050505050565b6115cc8585858585612833565b30611bf461095e565b6001600160a01b0316146115cc57600254600f81810b700100000000000000000000000000000000909204900b13156115cc5760006002556115cc565b60006110e985858585611c4f60408051602081019091526000815290565b61186d565b600080611c60836128c0565b90506004816007811115611c7657611c76613317565b14611c815792915050565b60008381526008602052604090205480611c9c575092915050565b6007546040517f2ab0f5290000000000000000000000000000000000000000000000000000000081526001600160a01b0390911690632ab0f52990611ce5908490600401612d39565b60206040518083038186803b158015611cfd57600080fd5b505afa158015611d11573d6000803e3d6000fd5b505050506040513d601f19601f82011682018060405250810190611d359190613ee4565b15611d44575060079392505050565b6007546040517f584b153e0000000000000000000000000000000000000000000000000000000081526001600160a01b039091169063584b153e90611d8d908490600401612d39565b60206040518083038186803b158015611da557600080fd5b505afa158015611db9573d6000803e3d6000fd5b505050506040513d601f19601f82011682018060405250810190611ddd9190613ee4565b15611dec575060059392505050565b5060029392505050565b6000438210611e175760405162461bcd60e51b8152600401610bdc90613f37565b825460005b81811015611e7c576000611e30828461299c565b905084866000018281548110611e4857611e48613c0b565b60009182526020909120015463ffffffff161115611e6857809250611e76565b611e73816001613b99565b91505b50611e1c565b8115611ec05784611e8e600184613bf4565b81548110611e9e57611e9e613c0b565b60009182526020909120015464010000000090046001600160e01b0316611ec3565b60005b6001600160e01b031695945050505050565b600080611ee7336108b3600143613bf4565b1015611f055760405162461bcd60e51b8152600401610bdc90613fa1565b6000611f1a86868686805190602001206115d3565b90508451865114611f3d5760405162461bcd60e51b8152600401610bdc9061400b565b8351865114611f5e5760405162461bcd60e51b8152600401610bdc9061400b565b6000865111611f7f5760405162461bcd60e51b8152600401610bdc9061404f565b6000818152600160209081526040918290208251918201909252815467ffffffffffffffff169081905215611fc65760405162461bcd60e51b8152600401610bdc906140b9565b6000611fd9611fd4600a5490565b6129b7565b611fe2436129b7565b611fec91906140c9565b90506000611ffc611fd4600b5490565b61200690836140c9565b835467ffffffffffffffff191667ffffffffffffffff8416178455905060018301805467ffffffffffffffff191667ffffffffffffffff83161790557f7d84a6263ae0d98d3329bd7b46bb4e8d6f98cd35a7adb45c274c8b7fd5ebd5e084338b8b8d5167ffffffffffffffff81111561208157612081612da6565b6040519080825280602002602001820160405280156120b457816020015b606081526020019060019003908161209f5790505b508c88888e6040516120ce99989796959493929190614177565b60405180910390a15091979650505050505050565b6040517f3a46b1a80000000000000000000000000000000000000000000000000000000081526000906001600160a01b037f00000000000000000000000000000000000000000000000000000000000000001690633a46b1a89061214d908790879060040161421f565b60206040518083038186803b15801561216557600080fd5b505afa158015612179573d6000803e3d6000fd5b505050506040513d601f19601f82011682018060405250810190611361919061398a565b6007546040517f08f74ea46ef7894f65eabfb5e6e695de773a000b47c529ab559178069b226401916121dc916001600160a01b0390911690849061422d565b60405180910390a1600780547fffffffffffffffffffffffff0000000000000000000000000000000000000000166001600160a01b0392909216919091179055565b6060611361848484604051806060016040528060298152602001614715602991396129e1565b6000611364838361226060408051602081019091526000815290565b6120e3565b6000606461227283611168565b6040517f8e539e8c0000000000000000000000000000000000000000000000000000000081526001600160a01b037f00000000000000000000000000000000000000000000000000000000000000001690638e539e8c906122d7908790600401612d39565b60206040518083038186803b1580156122ef57600080fd5b505afa158015612303573d6000803e3d6000fd5b505050506040513d601f19601f82011682018060405250810190612327919061398a565b6123319190614248565b610ac7919061427d565b60006001600160e01b031982167fbf26d89700000000000000000000000000000000000000000000000000000000148061239e57506001600160e01b031982167f79dd796f00000000000000000000000000000000000000000000000000000000145b806123d257506001600160e01b031982167f4e2312e000000000000000000000000000000000000000000000000000000000145b80610ac757507f01ffc9a7000000000000000000000000000000000000000000000000000000006001600160e01b0319831614610ac7565b6000306001600160a01b037f00000000000000000000000000000000000000000000000000000000000000001614801561246357507f000000000000000000000000000000000000000000000000000000000000000046145b1561248d57507f000000000000000000000000000000000000000000000000000000000000000090565b6109727f00000000000000000000000000000000000000000000000000000000000000007f00000000000000000000000000000000000000000000000000000000000000007f0000000000000000000000000000000000000000000000000000000000000000612aa3565b6000828260405160200161250d929190614297565b60405160208183030381529060405280519060200120905092915050565b6000807f7fffffffffffffffffffffffffffffff5d576e7357a4501ddfe92f46681b20a08311156125625750600090506003612602565b8460ff16601b1415801561257a57508460ff16601c14155b1561258b5750600090506004612602565b6000600187878787604051600081526020016040526040516125b094939291906142e3565b6020604051602081039080840390855afa1580156125d2573d6000803e3d6000fd5b5050604051601f1901519150506001600160a01b0381166125fb57600060019250925050612602565b9150600090505b94509492505050565b600081600481111561261f5761261f613317565b14156126285750565b600181600481111561263c5761263c613317565b141561265a5760405162461bcd60e51b8152600401610bdc9061434c565b600281600481111561266e5761266e613317565b141561268c5760405162461bcd60e51b8152600401610bdc90614390565b60038160048111156126a0576126a0613317565b14156126be5760405162461bcd60e51b8152600401610bdc906143fa565b60048160048111156126d2576126d2613317565b1415610c395760405162461bcd60e51b8152600401610bdc90614464565b60008581526004602090815260408083206001600160a01b0388168452600381019092529091205460ff16156127385760405162461bcd60e51b8152600401610bdc906144ce565b6001600160a01b03851660009081526003820160205260408120805460ff1916600117905560ff168460ff161415612789578281600001600082825461277e9190613b99565b90915550611bd69050565b60ff8416600114156127a9578281600101600082825461277e9190613b99565b60ff8416600214156127c9578281600201600082825461277e9190613b99565b60405162461bcd60e51b8152600401610bdc90614538565b815470010000000000000000000000000000000090819004600f0b6000818152600180860160205260409091209390935583546fffffffffffffffffffffffffffffffff908116939091011602179055565b6007546040517fe38335e50000000000000000000000000000000000000000000000000000000081526001600160a01b039091169063e38335e5903490612887908890889088906000908990600401613ad9565b6000604051808303818588803b1580156128a057600080fd5b505af11580156128b4573d6000803e3d6000fd5b50505050505050505050565b6000818152600160205260408120600281015460ff16156128e45750600792915050565b6002810154610100900460ff16156128ff5750600292915050565b600061290a84611051565b9050806129295760405162461bcd60e51b8152600401610bdc9061457c565b43811061293a575060009392505050565b6000612945856114d7565b905043811061295957506001949350505050565b61296285612add565b8015612981575060008581526004602052604090208054600190910154115b1561299157506004949350505050565b506003949350505050565b60006129ab600284841861427d565b61136490848416613b99565b600067ffffffffffffffff82111561164d5760405162461bcd60e51b8152600401610bdc906145e6565b606082471015612a035760405162461bcd60e51b8152600401610bdc90614650565b6001600160a01b0385163b612a2a5760405162461bcd60e51b8152600401610bdc90614694565b600080866001600160a01b03168587604051612a4691906146c6565b60006040518083038185875af1925050503d8060008114612a83576040519150601f19603f3d011682016040523d82523d6000602084013e612a88565b606091505b5091509150612a98828286612b14565b979650505050505050565b60008383834630604051602001612abe9594939291906146d2565b6040516020818303038152906040528051906020012090509392505050565b600081815260046020526040812060028101546001820154612aff9190613b99565b612b0b61091885611051565b11159392505050565b60608315612b23575081611364565b825115612b335782518084602001fd5b8160405162461bcd60e51b8152600401610bdc9190612f7a565b828054612b5990613833565b90600052602060002090601f016020900481019282612b7b5760008555612bc1565b82601f10612b9457805160ff1916838001178555612bc1565b82800160010185558215612bc1579182015b82811115612bc1578251825591602001919060010190612ba6565b5061164d9291505b8082111561164d5760008155600101612bc9565b805b8114610c3957600080fd5b8035610ac781612bdd565b600060208284031215612c0a57612c0a600080fd5b6000610cf08484612bea565b805b82525050565b60005b83811015612c39578181015183820152602001612c21565b83811115612c48576000848401525b50505050565b6000612c58825190565b808452602084019350612c6f818560208601612c1e565b601f01601f19169290920192915050565b60c08101612c8e8289612c16565b8181036020830152612ca08188612c4e565b9050612caf6040830187612c16565b612cbc6060830186612c16565b612cc96080830185612c16565b81810360a0830152612cdb8184612c4e565b98975050505050505050565b6001600160e01b03198116612bdf565b8035610ac781612ce7565b600060208284031215612d1757612d17600080fd5b6000610cf08484612cf7565b801515612c18565b60208101610ac78284612d23565b60208101610ac78284612c16565b60ff8116612bdf565b8035610ac781612d47565b60008083601f840112612d7057612d70600080fd5b50813567ffffffffffffffff811115612d8b57612d8b600080fd5b60208301915083600182028301111561177557611775600080fd5b634e487b7160e01b600052604160045260246000fd5b601f19601f830116810181811067ffffffffffffffff82111715612de257612de2612da6565b6040525050565b6000612df460405190565b9050612e008282612dbc565b919050565b600067ffffffffffffffff821115612e1f57612e1f612da6565b601f19601f83011660200192915050565b82818337506000910152565b6000612e4f612e4a84612e05565b612de9565b905082815260208101848484011115612e6a57612e6a600080fd5b612e75848285612e30565b509392505050565b600082601f830112612e9157612e91600080fd5b8135610cf0848260208601612e3c565b60008060008060008060008060e0898b031215612ec057612ec0600080fd5b6000612ecc8b8b612bea565b9850506020612edd8b828c01612d50565b975050604089013567ffffffffffffffff811115612efd57612efd600080fd5b612f098b828c01612d5b565b9650965050606089013567ffffffffffffffff811115612f2b57612f2b600080fd5b612f378b828c01612e7d565b9450506080612f488b828c01612d50565b93505060a0612f598b828c01612bea565b92505060c0612f6a8b828c01612bea565b9150509295985092959890939650565b602080825281016113648184612c4e565b60006001600160a01b038216610ac7565b612bdf81612f8b565b8035610ac781612f9c565b60008060008060808587031215612fc957612fc9600080fd5b6000612fd58787612fa5565b9450506020612fe687828801612fa5565b9350506040612ff787828801612bea565b925050606085013567ffffffffffffffff81111561301757613017600080fd5b61302387828801612e7d565b91505092959194509250565b6001600160e01b03198116612c18565b60208101610ac7828461302f565b600067ffffffffffffffff82111561306757613067612da6565b5060209081020190565b600061307f612e4a8461304d565b8381529050602080820190840283018581111561309e5761309e600080fd5b835b818110156130c257806130b38882612fa5565b845250602092830192016130a0565b5050509392505050565b600082601f8301126130e0576130e0600080fd5b8135610cf0848260208601613071565b60006130fe612e4a8461304d565b8381529050602080820190840283018581111561311d5761311d600080fd5b835b818110156130c257806131328882612bea565b8452506020928301920161311f565b600082601f83011261315557613155600080fd5b8135610cf08482602086016130f0565b6000613173612e4a8461304d565b8381529050602080820190840283018581111561319257613192600080fd5b835b818110156130c257803567ffffffffffffffff8111156131b6576131b6600080fd5b8086016131c38982612e7d565b8552505060209283019201613194565b600082601f8301126131e7576131e7600080fd5b8135610cf0848260208601613165565b6000806000806080858703121561321057613210600080fd5b843567ffffffffffffffff81111561322a5761322a600080fd5b613236878288016130cc565b945050602085013567ffffffffffffffff81111561325657613256600080fd5b61326287828801613141565b935050604085013567ffffffffffffffff81111561328257613282600080fd5b61328e878288016131d3565b925050606061302387828801612bea565b600080600080600060a086880312156132ba576132ba600080fd5b60006132c68888612bea565b95505060206132d788828901612d50565b94505060406132e888828901612d50565b93505060606132f988828901612bea565b925050608061330a88828901612bea565b9150509295509295909350565b634e487b7160e01b600052602160045260246000fd5b60088110610c3957610c39613317565b80612e008161332d565b6000610ac78261333d565b612c1881613347565b60208101610ac78284613352565b6000806040838503121561337f5761337f600080fd5b600061338b8585612bea565b925050602061339c85828601612fa5565b9150509250929050565b606081016133b48286612c16565b6133c16020830185612c16565b610cf06040830184612c16565b600080604083850312156133e4576133e4600080fd5b60006133f08585612bea565b925050602061339c85828601612d50565b60008060008060006080868803121561341c5761341c600080fd5b60006134288888612bea565b955050602061343988828901612d50565b945050604086013567ffffffffffffffff81111561345957613459600080fd5b61346588828901612d5b565b9350935050606086013567ffffffffffffffff81111561348757613487600080fd5b61330a88828901612e7d565b600080600080606085870312156134ac576134ac600080fd5b60006134b88787612bea565b94505060206134c987828801612d50565b935050604085013567ffffffffffffffff8111156134e9576134e9600080fd5b6134f587828801612d5b565b95989497509550505050565b6000806000806080858703121561351a5761351a600080fd5b843567ffffffffffffffff81111561353457613534600080fd5b613540878288016130cc565b945050602085013567ffffffffffffffff81111561356057613560600080fd5b61356c87828801613141565b935050604085013567ffffffffffffffff81111561358c5761358c600080fd5b612ff7878288016131d3565b6000806000606084860312156135b0576135b0600080fd5b60006135bc8686612fa5565b93505060206135cd86828701612bea565b925050604084013567ffffffffffffffff8111156135ed576135ed600080fd5b6135f986828701612e7d565b9150509250925092565b6000610ac782612f8b565b612bdf81613603565b8035610ac78161360e565b60006020828403121561363757613637600080fd5b6000610cf08484613617565b600080600080600060a0868803121561365e5761365e600080fd5b600061366a8888612fa5565b955050602061367b88828901612fa5565b945050604086013567ffffffffffffffff81111561369b5761369b600080fd5b6136a788828901613141565b935050606086013567ffffffffffffffff8111156136c7576136c7600080fd5b6136d388828901613141565b925050608086013567ffffffffffffffff81111561348757613487600080fd5b6000806000806060858703121561370c5761370c600080fd5b60006137188787612fa5565b94505060206134c987828801612bea565b612c1881612f8b565b60208101610ac78284613729565b6000806040838503121561375657613756600080fd5b60006137628585612fa5565b925050602061339c85828601612bea565b600080600080600060a0868803121561378e5761378e600080fd5b600061379a8888612fa5565b95505060206137ab88828901612fa5565b94505060406137bc88828901612bea565b93505060606136d388828901612bea565b6000610ac76001600160a01b0383166137e4565b90565b6001600160a01b031690565b6000610ac7826137cd565b6000610ac7826137f0565b612c18816137fb565b60208101610ac78284613806565b634e487b7160e01b600052602260045260246000fd5b60028104600182168061384757607f821691505b6020821081141561385a5761385a61381d565b50919050565b600061386d838584612e30565b50500190565b6000610cf0828486613860565b60ff8116612c18565b60a081016138978288612c16565b6138a46020830187612c16565b6138b16040830186613880565b6138be6060830185612c16565b6112466080830184612c16565b601881526000602082017f476f7665726e6f723a206f6e6c79476f7665726e616e63650000000000000000815291505b5060200190565b60208082528101610ac7816138cb565b602181526000602082017f476f7665726e6f723a2070726f706f73616c206e6f742073756363657373667581527f6c00000000000000000000000000000000000000000000000000000000000000602082015291505b5060400190565b60208082528101610ac781613912565b8051610ac781612bdd565b60006020828403121561399f5761399f600080fd5b6000610cf0848461397f565b60006139b78383613729565b505060200190565b60006139c9825190565b80845260209384019383018060005b838110156139fd5781516139ec88826139ab565b9750602083019250506001016139d8565b509495945050505050565b60006139b78383612c16565b6000613a1e825190565b80845260209384019383018060005b838110156139fd578151613a418882613a08565b975060208301925050600101613a2d565b60006113648383612c4e565b6000613a68825190565b80845260208401935083602082028501613a828560200190565b8060005b85811015613ab75784840389528151613a9f8582613a52565b94506020830160209a909a0199925050600101613a86565b5091979650505050505050565b6000610ac76137e18381565b612c1881613ac4565b60a08082528101613aea81886139bf565b90508181036020830152613afe8187613a14565b90508181036040830152613b128186613a5e565b90506138be6060830185613ad0565b60c08082528101613b3281896139bf565b90508181036020830152613b468188613a14565b90508181036040830152613b5a8187613a5e565b9050613b696060830186613ad0565b613b766080830185612c16565b612a9860a0830184612c16565b634e487b7160e01b600052601160045260246000fd5b60008219821115613bac57613bac613b83565b500190565b60408101613bbf8285612c16565b6113646020830184612c16565b60608101613bda8286612c16565b613be76020830185612c16565b610cf06040830184613880565b600082821015613c0657613c06613b83565b500390565b634e487b7160e01b600052603260045260246000fd5b6000600019821415613c3557613c35613b83565b5060010190565b60808082528101613c4d81876139bf565b90508181036020830152613c618186613a14565b90508181036040830152613c758185613a5e565b90506110e96060830184612c16565b602781526000602082017f53616665436173743a2076616c756520646f65736e27742066697420696e203281527f323420626974730000000000000000000000000000000000000000000000000060208201529150613968565b60208082528101610ac781613c84565b602681526000602082017f53616665436173743a2076616c756520646f65736e27742066697420696e203381527f322062697473000000000000000000000000000000000000000000000000000060208201529150613968565b60208082528101610ac781613cee565b602381526000602082017f476f7665726e6f723a20766f7465206e6f742063757272656e746c792061637481527f697665000000000000000000000000000000000000000000000000000000000060208201529150613968565b60208082528101610ac781613d58565b60808101613dd08287612c16565b613ddd6020830186613880565b613dea6040830185612c16565b81810360608301526112468184612c4e565b60a08101613e0a8288612c16565b613e176020830187613880565b613e246040830186612c16565b8181036060830152613e368185612c4e565b90508181036080830152612a988184612c4e565b60208082528101610ac781604381527f476f7665726e6f72566f74657351756f72756d4672616374696f6e3a2071756f60208201527f72756d4e756d657261746f72206f7665722071756f72756d44656e6f6d696e6160408201527f746f720000000000000000000000000000000000000000000000000000000000606082015260800190565b801515612bdf565b8051610ac781613ed1565b600060208284031215613ef957613ef9600080fd5b6000610cf08484613ed9565b60208082527f436865636b706f696e74733a20626c6f636b206e6f7420796574206d696e6564910190815260006138fb565b60208082528101610ac781613f05565b603181526000602082017f476f7665726e6f723a2070726f706f73657220766f7465732062656c6f77207081527f726f706f73616c207468726573686f6c6400000000000000000000000000000060208201529150613968565b60208082528101610ac781613f47565b602181526000602082017f476f7665726e6f723a20696e76616c69642070726f706f73616c206c656e677481527f680000000000000000000000000000000000000000000000000000000000000060208201529150613968565b60208082528101610ac781613fb1565b601881526000602082017f476f7665726e6f723a20656d7074792070726f706f73616c0000000000000000815291506138fb565b60208082528101610ac78161401b565b602181526000602082017f476f7665726e6f723a2070726f706f73616c20616c726561647920657869737481527f730000000000000000000000000000000000000000000000000000000000000060208201529150613968565b60208082528101610ac78161405f565b600067ffffffffffffffff8216915067ffffffffffffffff831692508267ffffffffffffffff03821115613bac57613bac613b83565b6000614109825190565b808452602084019350836020820285016141238560200190565b8060005b85811015613ab757848403895281516141408582613a52565b94506020830160209a909a0199925050600101614127565b6000610ac76137e167ffffffffffffffff841681565b612c1881614158565b6101208101614186828c612c16565b614193602083018b613729565b81810360408301526141a5818a6139bf565b905081810360608301526141b98189613a14565b905081810360808301526141cd81886140ff565b905081810360a08301526141e18187613a5e565b90506141f060c083018661416e565b6141fd60e083018561416e565b8181036101008301526142108184612c4e565b9b9a5050505050505050505050565b60408101613bbf8285613729565b6040810161423b8285613729565b6113646020830184613729565b600081600019048311821515161561426257614262613b83565b500290565b634e487b7160e01b600052601260045260246000fd5b60008261428c5761428c614267565b500490565b80612c18565b7f1901000000000000000000000000000000000000000000000000000000000000815260020160006142c98285614291565b6020820191506142d98284614291565b5060200192915050565b608081016142f18287612c16565b6142fe6020830186613880565b61430b6040830185612c16565b6110e96060830184612c16565b601881526000602082017f45434453413a20696e76616c6964207369676e61747572650000000000000000815291506138fb565b60208082528101610ac781614318565b601f81526000602082017f45434453413a20696e76616c6964207369676e6174757265206c656e67746800815291506138fb565b60208082528101610ac78161435c565b602281526000602082017f45434453413a20696e76616c6964207369676e6174757265202773272076616c81527f756500000000000000000000000000000000000000000000000000000000000060208201529150613968565b60208082528101610ac7816143a0565b602281526000602082017f45434453413a20696e76616c6964207369676e6174757265202776272076616c81527f756500000000000000000000000000000000000000000000000000000000000060208201529150613968565b60208082528101610ac78161440a565b602781526000602082017f476f7665726e6f72566f74696e6753696d706c653a20766f746520616c72656181527f647920636173740000000000000000000000000000000000000000000000000060208201529150613968565b60208082528101610ac781614474565b603581526000602082017f476f7665726e6f72566f74696e6753696d706c653a20696e76616c696420766181527f6c756520666f7220656e756d20566f746554797065000000000000000000000060208201529150613968565b60208082528101610ac7816144de565b601d81526000602082017f476f7665726e6f723a20756e6b6e6f776e2070726f706f73616c206964000000815291506138fb565b60208082528101610ac781614548565b602681526000602082017f53616665436173743a2076616c756520646f65736e27742066697420696e203681527f342062697473000000000000000000000000000000000000000000000000000060208201529150613968565b60208082528101610ac78161458c565b602681526000602082017f416464726573733a20696e73756666696369656e742062616c616e636520666f81527f722063616c6c000000000000000000000000000000000000000000000000000060208201529150613968565b60208082528101610ac7816145f6565b601d81526000602082017f416464726573733a2063616c6c20746f206e6f6e2d636f6e7472616374000000815291506138fb565b60208082528101610ac781614660565b60006146ae825190565b6146bc818560208601612c1e565b9290920192915050565b600061136482846146a4565b60a081016146e08288612c16565b6146ed6020830187612c16565b6146fa6040830186612c16565b6147076060830185612c16565b611246608083018461372956fe416464726573733a206c6f772d6c6576656c2063616c6c20776974682076616c7565206661696c6564a2646970667358221220adf17fe44adcf5a2e5ea850761d74c0ffcf3a057e7cfc2128b6868a333101d8164736f6c63430008090033",
  "linkReferences": {},
  "deployedLinkReferences": {}
}