{
  "_format": "hh-sol-artifact-1",
  "contractName": "Governance",
  "sourceName": "contracts/Governance.sol",
  "abi": [
    {
      "inputs": [
        {
          "internalType": "contract IVotes",
          "name": "_token",
          "type": "address"
        },
        {
          "internalType": "contract TimelockController",
          "name": "_timelock",
          "type": "address"
        },
        {
          "internalType": "address",
          "name": "_treasuryAdderess",
          "type": "address"
        }
      ],
      "stateMutability": "nonpayable",
      "type": "constructor"
    },
    {
      "inputs": [],
      "name": "Empty",
      "type": "error"
    },
    {
      "anonymous": false,
      "inputs": [
        {
          "indexed": false,
          "internalType": "address",
          "name": "locker",
          "type": "address"
        },
        {
          "indexed": false,
          "internalType": "uint256",
          "name": "amount",
          "type": "uint256"
        },
        {
          "indexed": false,
          "internalType": "uint256",
          "name": "proposalId",
          "type": "uint256"
        }
      ],
      "name": "FundsLocked",
      "type": "event"
    },
    {
      "anonymous": false,
      "inputs": [
        {
          "indexed": false,
          "internalType": "uint256",
          "name": "proposalId",
          "type": "uint256"
        }
      ],
      "name": "ProposalCanceled",
      "type": "event"
    },
    {
      "anonymous": false,
      "inputs": [
        {
          "indexed": false,
          "internalType": "uint256",
          "name": "proposalId",
          "type": "uint256"
        },
        {
          "indexed": false,
          "internalType": "address",
          "name": "proposer",
          "type": "address"
        },
        {
          "indexed": false,
          "internalType": "address[]",
          "name": "targets",
          "type": "address[]"
        },
        {
          "indexed": false,
          "internalType": "uint256[]",
          "name": "values",
          "type": "uint256[]"
        },
        {
          "indexed": false,
          "internalType": "string[]",
          "name": "signatures",
          "type": "string[]"
        },
        {
          "indexed": false,
          "internalType": "bytes[]",
          "name": "calldatas",
          "type": "bytes[]"
        },
        {
          "indexed": false,
          "internalType": "uint256",
          "name": "startBlock",
          "type": "uint256"
        },
        {
          "indexed": false,
          "internalType": "uint256",
          "name": "endBlock",
          "type": "uint256"
        },
        {
          "indexed": false,
          "internalType": "string",
          "name": "description",
          "type": "string"
        }
      ],
      "name": "ProposalCreated",
      "type": "event"
    },
    {
      "anonymous": false,
      "inputs": [
        {
          "indexed": false,
          "internalType": "uint256",
          "name": "proposalId",
          "type": "uint256"
        }
      ],
      "name": "ProposalExecuted",
      "type": "event"
    },
    {
      "anonymous": false,
      "inputs": [
        {
          "indexed": false,
          "internalType": "uint256",
          "name": "proposalId",
          "type": "uint256"
        },
        {
          "indexed": false,
          "internalType": "uint256",
          "name": "eta",
          "type": "uint256"
        }
      ],
      "name": "ProposalQueued",
      "type": "event"
    },
    {
      "anonymous": false,
      "inputs": [
        {
          "indexed": false,
          "internalType": "uint256",
          "name": "oldProposalThreshold",
          "type": "uint256"
        },
        {
          "indexed": false,
          "internalType": "uint256",
          "name": "newProposalThreshold",
          "type": "uint256"
        }
      ],
      "name": "ProposalThresholdSet",
      "type": "event"
    },
    {
      "anonymous": false,
      "inputs": [
        {
          "indexed": false,
          "internalType": "uint256",
          "name": "oldQuorumNumerator",
          "type": "uint256"
        },
        {
          "indexed": false,
          "internalType": "uint256",
          "name": "newQuorumNumerator",
          "type": "uint256"
        }
      ],
      "name": "QuorumNumeratorUpdated",
      "type": "event"
    },
    {
      "anonymous": false,
      "inputs": [
        {
          "indexed": false,
          "internalType": "address",
          "name": "oldTimelock",
          "type": "address"
        },
        {
          "indexed": false,
          "internalType": "address",
          "name": "newTimelock",
          "type": "address"
        }
      ],
      "name": "TimelockChange",
      "type": "event"
    },
    {
      "anonymous": false,
      "inputs": [
        {
          "indexed": true,
          "internalType": "address",
          "name": "voter",
          "type": "address"
        },
        {
          "indexed": false,
          "internalType": "uint256",
          "name": "proposalId",
          "type": "uint256"
        },
        {
          "indexed": false,
          "internalType": "uint8",
          "name": "support",
          "type": "uint8"
        },
        {
          "indexed": false,
          "internalType": "uint256",
          "name": "weight",
          "type": "uint256"
        },
        {
          "indexed": false,
          "internalType": "string",
          "name": "reason",
          "type": "string"
        }
      ],
      "name": "VoteCast",
      "type": "event"
    },
    {
      "anonymous": false,
      "inputs": [
        {
          "indexed": true,
          "internalType": "address",
          "name": "voter",
          "type": "address"
        },
        {
          "indexed": false,
          "internalType": "uint256",
          "name": "proposalId",
          "type": "uint256"
        },
        {
          "indexed": false,
          "internalType": "uint8",
          "name": "support",
          "type": "uint8"
        },
        {
          "indexed": false,
          "internalType": "uint256",
          "name": "weight",
          "type": "uint256"
        },
        {
          "indexed": false,
          "internalType": "string",
          "name": "reason",
          "type": "string"
        },
        {
          "indexed": false,
          "internalType": "bytes",
          "name": "params",
          "type": "bytes"
        }
      ],
      "name": "VoteCastWithParams",
      "type": "event"
    },
    {
      "anonymous": false,
      "inputs": [
        {
          "indexed": false,
          "internalType": "uint256",
          "name": "oldVotingDelay",
          "type": "uint256"
        },
        {
          "indexed": false,
          "internalType": "uint256",
          "name": "newVotingDelay",
          "type": "uint256"
        }
      ],
      "name": "VotingDelaySet",
      "type": "event"
    },
    {
      "anonymous": false,
      "inputs": [
        {
          "indexed": false,
          "internalType": "uint256",
          "name": "oldVotingPeriod",
          "type": "uint256"
        },
        {
          "indexed": false,
          "internalType": "uint256",
          "name": "newVotingPeriod",
          "type": "uint256"
        }
      ],
      "name": "VotingPeriodSet",
      "type": "event"
    },
    {
      "inputs": [],
      "name": "BALLOT_TYPEHASH",
      "outputs": [
        {
          "internalType": "bytes32",
          "name": "",
          "type": "bytes32"
        }
      ],
      "stateMutability": "view",
      "type": "function"
    },
    {
      "inputs": [],
      "name": "COUNTING_MODE",
      "outputs": [
        {
          "internalType": "string",
          "name": "",
          "type": "string"
        }
      ],
      "stateMutability": "pure",
      "type": "function"
    },
    {
      "inputs": [],
      "name": "EXTENDED_BALLOT_TYPEHASH",
      "outputs": [
        {
          "internalType": "bytes32",
          "name": "",
          "type": "bytes32"
        }
      ],
      "stateMutability": "view",
      "type": "function"
    },
    {
      "inputs": [
        {
          "internalType": "uint256",
          "name": "proposalId",
          "type": "uint256"
        },
        {
          "internalType": "uint8",
          "name": "support",
          "type": "uint8"
        }
      ],
      "name": "castVote",
      "outputs": [
        {
          "internalType": "uint256",
          "name": "",
          "type": "uint256"
        }
      ],
      "stateMutability": "nonpayable",
      "type": "function"
    },
    {
      "inputs": [
        {
          "internalType": "uint256",
          "name": "proposalId",
          "type": "uint256"
        },
        {
          "internalType": "uint8",
          "name": "support",
          "type": "uint8"
        },
        {
          "internalType": "uint8",
          "name": "v",
          "type": "uint8"
        },
        {
          "internalType": "bytes32",
          "name": "r",
          "type": "bytes32"
        },
        {
          "internalType": "bytes32",
          "name": "s",
          "type": "bytes32"
        }
      ],
      "name": "castVoteBySig",
      "outputs": [
        {
          "internalType": "uint256",
          "name": "",
          "type": "uint256"
        }
      ],
      "stateMutability": "nonpayable",
      "type": "function"
    },
    {
      "inputs": [
        {
          "internalType": "uint256",
          "name": "proposalId",
          "type": "uint256"
        },
        {
          "internalType": "uint8",
          "name": "support",
          "type": "uint8"
        },
        {
          "internalType": "string",
          "name": "reason",
          "type": "string"
        }
      ],
      "name": "castVoteWithReason",
      "outputs": [
        {
          "internalType": "uint256",
          "name": "",
          "type": "uint256"
        }
      ],
      "stateMutability": "nonpayable",
      "type": "function"
    },
    {
      "inputs": [
        {
          "internalType": "uint256",
          "name": "proposalId",
          "type": "uint256"
        },
        {
          "internalType": "uint8",
          "name": "support",
          "type": "uint8"
        },
        {
          "internalType": "string",
          "name": "reason",
          "type": "string"
        },
        {
          "internalType": "bytes",
          "name": "params",
          "type": "bytes"
        }
      ],
      "name": "castVoteWithReasonAndParams",
      "outputs": [
        {
          "internalType": "uint256",
          "name": "",
          "type": "uint256"
        }
      ],
      "stateMutability": "nonpayable",
      "type": "function"
    },
    {
      "inputs": [
        {
          "internalType": "uint256",
          "name": "proposalId",
          "type": "uint256"
        },
        {
          "internalType": "uint8",
          "name": "support",
          "type": "uint8"
        },
        {
          "internalType": "string",
          "name": "reason",
          "type": "string"
        },
        {
          "internalType": "bytes",
          "name": "params",
          "type": "bytes"
        },
        {
          "internalType": "uint8",
          "name": "v",
          "type": "uint8"
        },
        {
          "internalType": "bytes32",
          "name": "r",
          "type": "bytes32"
        },
        {
          "internalType": "bytes32",
          "name": "s",
          "type": "bytes32"
        }
      ],
      "name": "castVoteWithReasonAndParamsBySig",
      "outputs": [
        {
          "internalType": "uint256",
          "name": "",
          "type": "uint256"
        }
      ],
      "stateMutability": "nonpayable",
      "type": "function"
    },
    {
      "inputs": [
        {
          "internalType": "address[]",
          "name": "targets",
          "type": "address[]"
        },
        {
          "internalType": "uint256[]",
          "name": "values",
          "type": "uint256[]"
        },
        {
          "internalType": "bytes[]",
          "name": "calldatas",
          "type": "bytes[]"
        },
        {
          "internalType": "bytes32",
          "name": "descriptionHash",
          "type": "bytes32"
        }
      ],
      "name": "execute",
      "outputs": [
        {
          "internalType": "uint256",
          "name": "",
          "type": "uint256"
        }
      ],
      "stateMutability": "payable",
      "type": "function"
    },
    {
      "inputs": [
        {
          "internalType": "uint256",
          "name": "",
          "type": "uint256"
        }
      ],
      "name": "fundsLockedforProposals",
      "outputs": [
        {
          "internalType": "uint256",
          "name": "",
          "type": "uint256"
        }
      ],
      "stateMutability": "view",
      "type": "function"
    },
    {
      "inputs": [
        {
          "internalType": "address",
          "name": "account",
          "type": "address"
        },
        {
          "internalType": "uint256",
          "name": "blockNumber",
          "type": "uint256"
        }
      ],
      "name": "getVotes",
      "outputs": [
        {
          "internalType": "uint256",
          "name": "",
          "type": "uint256"
        }
      ],
      "stateMutability": "view",
      "type": "function"
    },
    {
      "inputs": [
        {
          "internalType": "address",
          "name": "account",
          "type": "address"
        },
        {
          "internalType": "uint256",
          "name": "blockNumber",
          "type": "uint256"
        },
        {
          "internalType": "bytes",
          "name": "params",
          "type": "bytes"
        }
      ],
      "name": "getVotesWithParams",
      "outputs": [
        {
          "internalType": "uint256",
          "name": "",
          "type": "uint256"
        }
      ],
      "stateMutability": "view",
      "type": "function"
    },
    {
      "inputs": [
        {
          "internalType": "uint256",
          "name": "proposalId",
          "type": "uint256"
        },
        {
          "internalType": "address",
          "name": "account",
          "type": "address"
        }
      ],
      "name": "hasVoted",
      "outputs": [
        {
          "internalType": "bool",
          "name": "",
          "type": "bool"
        }
      ],
      "stateMutability": "view",
      "type": "function"
    },
    {
      "inputs": [
        {
          "internalType": "address[]",
          "name": "targets",
          "type": "address[]"
        },
        {
          "internalType": "uint256[]",
          "name": "values",
          "type": "uint256[]"
        },
        {
          "internalType": "bytes[]",
          "name": "calldatas",
          "type": "bytes[]"
        },
        {
          "internalType": "bytes32",
          "name": "descriptionHash",
          "type": "bytes32"
        }
      ],
      "name": "hashProposal",
      "outputs": [
        {
          "internalType": "uint256",
          "name": "",
          "type": "uint256"
        }
      ],
      "stateMutability": "pure",
      "type": "function"
    },
    {
      "inputs": [
        {
          "internalType": "address[]",
          "name": "targets",
          "type": "address[]"
        },
        {
          "internalType": "uint256[]",
          "name": "values",
          "type": "uint256[]"
        },
        {
          "internalType": "bytes[]",
          "name": "calldatas",
          "type": "bytes[]"
        },
        {
          "internalType": "string",
          "name": "description",
          "type": "string"
        }
      ],
      "name": "lockFundsAndPropose",
      "outputs": [],
      "stateMutability": "payable",
      "type": "function"
    },
    {
      "inputs": [],
      "name": "name",
      "outputs": [
        {
          "internalType": "string",
          "name": "",
          "type": "string"
        }
      ],
      "stateMutability": "view",
      "type": "function"
    },
    {
      "inputs": [
        {
          "internalType": "address",
          "name": "",
          "type": "address"
        },
        {
          "internalType": "address",
          "name": "",
          "type": "address"
        },
        {
          "internalType": "uint256[]",
          "name": "",
          "type": "uint256[]"
        },
        {
          "internalType": "uint256[]",
          "name": "",
          "type": "uint256[]"
        },
        {
          "internalType": "bytes",
          "name": "",
          "type": "bytes"
        }
      ],
      "name": "onERC1155BatchReceived",
      "outputs": [
        {
          "internalType": "bytes4",
          "name": "",
          "type": "bytes4"
        }
      ],
      "stateMutability": "nonpayable",
      "type": "function"
    },
    {
      "inputs": [
        {
          "internalType": "address",
          "name": "",
          "type": "address"
        },
        {
          "internalType": "address",
          "name": "",
          "type": "address"
        },
        {
          "internalType": "uint256",
          "name": "",
          "type": "uint256"
        },
        {
          "internalType": "uint256",
          "name": "",
          "type": "uint256"
        },
        {
          "internalType": "bytes",
          "name": "",
          "type": "bytes"
        }
      ],
      "name": "onERC1155Received",
      "outputs": [
        {
          "internalType": "bytes4",
          "name": "",
          "type": "bytes4"
        }
      ],
      "stateMutability": "nonpayable",
      "type": "function"
    },
    {
      "inputs": [
        {
          "internalType": "address",
          "name": "",
          "type": "address"
        },
        {
          "internalType": "address",
          "name": "",
          "type": "address"
        },
        {
          "internalType": "uint256",
          "name": "",
          "type": "uint256"
        },
        {
          "internalType": "bytes",
          "name": "",
          "type": "bytes"
        }
      ],
      "name": "onERC721Received",
      "outputs": [
        {
          "internalType": "bytes4",
          "name": "",
          "type": "bytes4"
        }
      ],
      "stateMutability": "nonpayable",
      "type": "function"
    },
    {
      "inputs": [
        {
          "internalType": "uint256",
          "name": "proposalId",
          "type": "uint256"
        }
      ],
      "name": "proposalDeadline",
      "outputs": [
        {
          "internalType": "uint256",
          "name": "",
          "type": "uint256"
        }
      ],
      "stateMutability": "view",
      "type": "function"
    },
    {
      "inputs": [
        {
          "internalType": "uint256",
          "name": "proposalId",
          "type": "uint256"
        }
      ],
      "name": "proposalEta",
      "outputs": [
        {
          "internalType": "uint256",
          "name": "",
          "type": "uint256"
        }
      ],
      "stateMutability": "view",
      "type": "function"
    },
    {
      "inputs": [
        {
          "internalType": "uint256",
          "name": "proposalId",
          "type": "uint256"
        }
      ],
      "name": "proposalSnapshot",
      "outputs": [
        {
          "internalType": "uint256",
          "name": "",
          "type": "uint256"
        }
      ],
      "stateMutability": "view",
      "type": "function"
    },
    {
      "inputs": [],
      "name": "proposalThreshold",
      "outputs": [
        {
          "internalType": "uint256",
          "name": "",
          "type": "uint256"
        }
      ],
      "stateMutability": "view",
      "type": "function"
    },
    {
      "inputs": [
        {
          "internalType": "uint256",
          "name": "proposalId",
          "type": "uint256"
        }
      ],
      "name": "proposalVotes",
      "outputs": [
        {
          "internalType": "uint256",
          "name": "againstVotes",
          "type": "uint256"
        },
        {
          "internalType": "uint256",
          "name": "forVotes",
          "type": "uint256"
        },
        {
          "internalType": "uint256",
          "name": "abstainVotes",
          "type": "uint256"
        }
      ],
      "stateMutability": "view",
      "type": "function"
    },
    {
      "inputs": [
        {
          "internalType": "address[]",
          "name": "targets",
          "type": "address[]"
        },
        {
          "internalType": "uint256[]",
          "name": "values",
          "type": "uint256[]"
        },
        {
          "internalType": "bytes[]",
          "name": "calldatas",
          "type": "bytes[]"
        },
        {
          "internalType": "string",
          "name": "description",
          "type": "string"
        }
      ],
      "name": "propose",
      "outputs": [
        {
          "internalType": "uint256",
          "name": "",
          "type": "uint256"
        }
      ],
      "stateMutability": "nonpayable",
      "type": "function"
    },
    {
      "inputs": [
        {
          "internalType": "address",
          "name": "",
          "type": "address"
        },
        {
          "internalType": "uint256",
          "name": "",
          "type": "uint256"
        }
      ],
      "name": "proposerLockedAmt",
      "outputs": [
        {
          "internalType": "uint256",
          "name": "",
          "type": "uint256"
        }
      ],
      "stateMutability": "view",
      "type": "function"
    },
    {
      "inputs": [
        {
          "internalType": "address[]",
          "name": "targets",
          "type": "address[]"
        },
        {
          "internalType": "uint256[]",
          "name": "values",
          "type": "uint256[]"
        },
        {
          "internalType": "bytes[]",
          "name": "calldatas",
          "type": "bytes[]"
        },
        {
          "internalType": "bytes32",
          "name": "descriptionHash",
          "type": "bytes32"
        }
      ],
      "name": "queue",
      "outputs": [
        {
          "internalType": "uint256",
          "name": "",
          "type": "uint256"
        }
      ],
      "stateMutability": "nonpayable",
      "type": "function"
    },
    {
      "inputs": [
        {
          "internalType": "uint256",
          "name": "blockNumber",
          "type": "uint256"
        }
      ],
      "name": "quorum",
      "outputs": [
        {
          "internalType": "uint256",
          "name": "",
          "type": "uint256"
        }
      ],
      "stateMutability": "view",
      "type": "function"
    },
    {
      "inputs": [],
      "name": "quorumDenominator",
      "outputs": [
        {
          "internalType": "uint256",
          "name": "",
          "type": "uint256"
        }
      ],
      "stateMutability": "view",
      "type": "function"
    },
    {
      "inputs": [
        {
          "internalType": "uint256",
          "name": "blockNumber",
          "type": "uint256"
        }
      ],
      "name": "quorumNumerator",
      "outputs": [
        {
          "internalType": "uint256",
          "name": "",
          "type": "uint256"
        }
      ],
      "stateMutability": "view",
      "type": "function"
    },
    {
      "inputs": [],
      "name": "quorumNumerator",
      "outputs": [
        {
          "internalType": "uint256",
          "name": "",
          "type": "uint256"
        }
      ],
      "stateMutability": "view",
      "type": "function"
    },
    {
      "inputs": [
        {
          "internalType": "address",
          "name": "target",
          "type": "address"
        },
        {
          "internalType": "uint256",
          "name": "value",
          "type": "uint256"
        },
        {
          "internalType": "bytes",
          "name": "data",
          "type": "bytes"
        }
      ],
      "name": "relay",
      "outputs": [],
      "stateMutability": "nonpayable",
      "type": "function"
    },
    {
      "inputs": [
        {
          "internalType": "uint256",
          "name": "newProposalThreshold",
          "type": "uint256"
        }
      ],
      "name": "setProposalThreshold",
      "outputs": [],
      "stateMutability": "nonpayable",
      "type": "function"
    },
    {
      "inputs": [
        {
          "internalType": "uint256",
          "name": "newVotingDelay",
          "type": "uint256"
        }
      ],
      "name": "setVotingDelay",
      "outputs": [],
      "stateMutability": "nonpayable",
      "type": "function"
    },
    {
      "inputs": [
        {
          "internalType": "uint256",
          "name": "newVotingPeriod",
          "type": "uint256"
        }
      ],
      "name": "setVotingPeriod",
      "outputs": [],
      "stateMutability": "nonpayable",
      "type": "function"
    },
    {
      "inputs": [
        {
          "internalType": "uint256",
          "name": "proposalId",
          "type": "uint256"
        }
      ],
      "name": "state",
      "outputs": [
        {
          "internalType": "enum IGovernor.ProposalState",
          "name": "",
          "type": "uint8"
        }
      ],
      "stateMutability": "view",
      "type": "function"
    },
    {
      "inputs": [
        {
          "internalType": "bytes4",
          "name": "interfaceId",
          "type": "bytes4"
        }
      ],
      "name": "supportsInterface",
      "outputs": [
        {
          "internalType": "bool",
          "name": "",
          "type": "bool"
        }
      ],
      "stateMutability": "view",
      "type": "function"
    },
    {
      "inputs": [],
      "name": "timelock",
      "outputs": [
        {
          "internalType": "address",
          "name": "",
          "type": "address"
        }
      ],
      "stateMutability": "view",
      "type": "function"
    },
    {
      "inputs": [],
      "name": "token",
      "outputs": [
        {
          "internalType": "contract IVotes",
          "name": "",
          "type": "address"
        }
      ],
      "stateMutability": "view",
      "type": "function"
    },
    {
      "inputs": [],
      "name": "treasuryAddress",
      "outputs": [
        {
          "internalType": "address",
          "name": "",
          "type": "address"
        }
      ],
      "stateMutability": "view",
      "type": "function"
    },
    {
      "inputs": [
        {
          "internalType": "uint256",
          "name": "newQuorumNumerator",
          "type": "uint256"
        }
      ],
      "name": "updateQuorumNumerator",
      "outputs": [],
      "stateMutability": "nonpayable",
      "type": "function"
    },
    {
      "inputs": [
        {
          "internalType": "contract TimelockController",
          "name": "newTimelock",
          "type": "address"
        }
      ],
      "name": "updateTimelock",
      "outputs": [],
      "stateMutability": "nonpayable",
      "type": "function"
    },
    {
      "inputs": [],
      "name": "version",
      "outputs": [
        {
          "internalType": "string",
          "name": "",
          "type": "string"
        }
      ],
      "stateMutability": "view",
      "type": "function"
    },
    {
      "inputs": [],
      "name": "votingDelay",
      "outputs": [
        {
          "internalType": "uint256",
          "name": "",
          "type": "uint256"
        }
      ],
      "stateMutability": "view",
      "type": "function"
    },
    {
      "inputs": [],
      "name": "votingPeriod",
      "outputs": [
        {
          "internalType": "uint256",
          "name": "",
          "type": "uint256"
        }
      ],
      "stateMutability": "view",
      "type": "function"
    },
    {
      "inputs": [
        {
          "internalType": "uint256",
          "name": "_proposalId",
          "type": "uint256"
        }
      ],
      "name": "withdrawProposerLockedAmounts",
      "outputs": [],
      "stateMutability": "nonpayable",
      "type": "function"
    },
    {
      "stateMutability": "payable",
      "type": "receive"
    }
  ],
  "bytecode": "0x6101606040523480156200001257600080fd5b50604051620056e3380380620056e3833981016040819052620000359162000778565b81600484600160c868056bc75e2d631000006040518060400160405280600d81526020016c5261737062657272792044414f60981b815250806200007e6200016860201b60201c565b815160208084019190912082519183019190912060e08290526101008190524660a0527f8b73c3c69bb8fe3d512ecc4cf759cc79239f7b179b0ffacaa9a75d522b39400f620000cf81848462000183565b6080523060c0526101205250508251620000f392506000915060208401906200067d565b5062000101905083620001c0565b6200010c8262000202565b620001178162000270565b5050506001600160a01b0316610140526200013281620002b2565b506200013e81620003cb565b50600f80546001600160a01b0319166001600160a01b03929092169190911790555062000a789050565b6040805180820190915260018152603160f81b602082015290565b60008383834630604051602001620001a0959493929190620007e3565b6040516020818303038152906040528051906020012090505b9392505050565b7fc565b045403dc03c2eea82b81a0465edad9e2e7fc4d97e11421c209da93d7a9360045482604051620001f592919062000839565b60405180910390a1600455565b600081116200022e5760405162461bcd60e51b815260040162000225906200089f565b60405180910390fd5b7f7e3f7f0708a84de9203036abaa450dccc85ad5ff52f78c170f3edb55cf5e8828600554826040516200026392919062000839565b60405180910390a1600555565b7fccb45da8d5717e6c4544694297c4ba5cf151d455c9bb0ed4fc7a38411bc0546160065482604051620002a592919062000839565b60405180910390a1600655565b6064811115620002d65760405162461bcd60e51b81526004016200022590620008b1565b6000620002e262000436565b90508015801590620002f45750600954155b156200036f5760096000016040518060400160405280600063ffffffff1681526020016200032d846200046560201b620018ef1760201c565b6001600160e01b0390811690915282546001810184556000938452602093849020835194909301519091166401000000000263ffffffff909316929092179101555b6200038a8260096200049560201b6200191c1790919060201c565b50507f0553476bf02ef2726e8ce5ced78d63e26e602e4a2257b1f559418e24b46339978183604051620003bf92919062000839565b60405180910390a15050565b600a546040517f08f74ea46ef7894f65eabfb5e6e695de773a000b47c529ab559178069b226401916200040c916001600160a01b039091169084906200091f565b60405180910390a1600a80546001600160a01b0319166001600160a01b0392909216919091179055565b600954600090156200045e57620004596009620005f160201b62001a471760201c565b905090565b5060085490565b60006001600160e01b03821115620004915760405162461bcd60e51b8152600401620002259062000983565b5090565b8154600090819081620004a886620005f1565b9050600082118015620004ec57504386620004c5600185620009ab565b81548110620004d857620004d8620009c5565b60009182526020909120015463ffffffff16145b15620005605762000508856200046560201b620018ef1760201c565b8662000516600185620009ab565b81548110620005295762000529620009c5565b9060005260206000200160000160046101000a8154816001600160e01b0302191690836001600160e01b03160217905550620005e8565b85600001604051806040016040528062000585436200065460201b62001aa31760201c565b63ffffffff168152602001620005a6886200046560201b620018ef1760201c565b6001600160e01b0390811690915282546001810184556000938452602093849020835194909301519091166401000000000263ffffffff909316929092179101555b95939450505050565b805460009080156200064157826200060b600183620009ab565b815481106200061e576200061e620009c5565b60009182526020909120015464010000000090046001600160e01b031662000644565b60005b6001600160e01b03169392505050565b600063ffffffff821115620004915760405162461bcd60e51b8152600401620002259062000a1f565b8280546200068b9062000a47565b90600052602060002090601f016020900481019282620006af5760008555620006fa565b82601f10620006ca57805160ff1916838001178555620006fa565b82800160010185558215620006fa579182015b82811115620006fa578251825591602001919060010190620006dd565b50620004919291505b8082111562000491576000815560010162000703565b60006001600160a01b0382165b92915050565b6000620007268262000719565b62000744816200072c565b81146200075057600080fd5b50565b8051620007268162000739565b620007448162000719565b8051620007268162000760565b600080600060608486031215620007925762000792600080fd5b6000620007a0868662000753565b9350506020620007b38682870162000753565b9250506040620007c6868287016200076b565b9150509250925092565b805b82525050565b620007d28162000719565b60a08101620007f38288620007d0565b620008026020830187620007d0565b620008116040830186620007d0565b620008206060830185620007d0565b6200082f6080830184620007d8565b9695505050505050565b60408101620008498285620007d0565b620001b96020830184620007d0565b602781526000602082017f476f7665726e6f7253657474696e67733a20766f74696e6720706572696f6420815266746f6f206c6f7760c81b602082015291505b5060400190565b60208082528101620007268162000858565b602080825281016200072681604381527f476f7665726e6f72566f74657351756f72756d4672616374696f6e3a2071756f60208201527f72756d4e756d657261746f72206f7665722071756f72756d44656e6f6d696e616040820152623a37b960e91b606082015260800190565b604081016200092f8285620007d8565b620001b96020830184620007d8565b602781526000602082017f53616665436173743a2076616c756520646f65736e27742066697420696e20328152663234206269747360c81b6020820152915062000898565b6020808252810162000726816200093e565b634e487b7160e01b600052601160045260246000fd5b600082821015620009c057620009c062000995565b500390565b634e487b7160e01b600052603260045260246000fd5b602681526000602082017f53616665436173743a2076616c756520646f65736e27742066697420696e203381526532206269747360d01b6020820152915062000898565b602080825281016200072681620009db565b634e487b7160e01b600052602260045260246000fd5b60028104600182168062000a5c57607f821691505b6020821081141562000a725762000a7262000a31565b50919050565b60805160a05160c05160e051610100516101205161014051614c0262000ae160003960008181610a09015281816124260152612631015260006128210152600061286301526000612842015260006127a6015260006127d0015260006127fa0152614c026000f3fe6080604052600436106103015760003560e01c806397c3d3341161018f578063c59057e4116100e1578063ea0217cf1161008a578063f23a6e6111610064578063f23a6e6114610992578063f8ce560a146109d7578063fc0c546a146109f757600080fd5b8063ea0217cf14610932578063eb9019d414610952578063ece40cc11461097257600080fd5b8063d61573d3116100bb578063d61573d31461088b578063dd4e2ba5146108b8578063deaaa7cc146108fe57600080fd5b8063c59057e414610820578063c5f956af14610840578063d33219b41461086d57600080fd5b8063ab58fb8e11610143578063bc197c811161011d578063bc197c811461079b578063c01f9e37146107e0578063c28bc2fa1461080057600080fd5b8063ab58fb8e14610753578063b57361dd14610773578063b58131b01461078657600080fd5b8063a7713a7011610174578063a7713a70146106fe578063a7a5c86a14610713578063a890c9101461073357600080fd5b806397c3d334146106ca5780639a802a6d146106de57600080fd5b80633932abb11161025357806356781388116101fc57806370b0f660116101d657806370b0f6601461066a5780637b3c71d31461068a5780637d5e81e2146106aa57600080fd5b8063567813881461060a5780635f398a141461062a57806360c4247f1461064a57600080fd5b8063438596321161022d5780634385963214610531578063544ffc9c1461057b57806354fd4d50146105c457600080fd5b80633932abb1146104cf5780633bccf4fd146104e45780633e4f49e61461050457600080fd5b8063150b7a02116102b55780632656227d1161028f5780632656227d146104685780632d63f6931461047b5780632fe3e2611461049b57600080fd5b8063150b7a02146103e3578063160cbed7146104105780632193fd561461043057600080fd5b806303420181116102e6578063034201811461038157806306f3f9e6146103a157806306fdde03146103c157600080fd5b806301ffc9a71461032957806302a251a31461035f57600080fd5b36610324573061030f610a38565b6001600160a01b03161461032257600080fd5b005b600080fd5b34801561033557600080fd5b50610349610344366004612efe565b610a51565b6040516103569190612f29565b60405180910390f35b34801561036b57600080fd5b50610374610a62565b6040516103569190612f3d565b34801561038d57600080fd5b5061037461039c3660046130b6565b610a6d565b3480156103ad57600080fd5b506103226103bc36600461318f565b610b44565b3480156103cd57600080fd5b506103d6610bdc565b6040516103569190613212565b3480156103ef57600080fd5b506104036103fe366004613248565b610c6e565b60405161035691906132d7565b34801561041c57600080fd5b5061037461042b36600461348f565b610c98565b34801561043c57600080fd5b5061037461044b366004613537565b600e60209081526000928352604080842090915290825290205481565b61037461047636600461348f565b610eff565b34801561048757600080fd5b5061037461049636600461318f565b610ff1565b3480156104a757600080fd5b506103747fb3b3f3b703cd84ce352197dcff232b1b5d3cfb2025ce47cf04742d0651f1af8881565b3480156104db57600080fd5b5061037461102a565b3480156104f057600080fd5b506103746104ff366004613574565b611035565b34801561051057600080fd5b5061052461051f36600461318f565b61109d565b6040516103569190613630565b34801561053d57600080fd5b5061034961054c36600461363e565b60008281526007602090815260408083206001600160a01b038516845260030190915290205460ff1692915050565b34801561058757600080fd5b506105b561059636600461318f565b6000908152600760205260409020805460018201546002909201549092565b60405161035693929190613671565b3480156105d057600080fd5b5060408051808201909152600181527f310000000000000000000000000000000000000000000000000000000000000060208201526103d6565b34801561061657600080fd5b50610374610625366004613699565b6110a8565b34801561063657600080fd5b506103746106453660046136cc565b6110c9565b34801561065657600080fd5b5061037461066536600461318f565b611113565b34801561067657600080fd5b5061032261068536600461318f565b6111a9565b34801561069657600080fd5b506103746106a536600461375e565b611235565b3480156106b657600080fd5b506103746106c53660046137cc565b611287565b3480156106d657600080fd5b506064610374565b3480156106ea57600080fd5b506103746106f9366004613863565b6112f9565b34801561070a57600080fd5b50610374611310565b34801561071f57600080fd5b5061032261072e36600461318f565b61132c565b34801561073f57600080fd5b5061032261074e3660046138ed565b61142d565b34801561075f57600080fd5b5061037461076e36600461318f565b6114b9565b6103226107813660046137cc565b61157d565b34801561079257600080fd5b5061037461166a565b3480156107a757600080fd5b506104036107b636600461390e565b7fbc197c810000000000000000000000000000000000000000000000000000000095945050505050565b3480156107ec57600080fd5b506103746107fb36600461318f565b611675565b34801561080c57600080fd5b5061032261081b3660046139be565b6116a5565b34801561082c57600080fd5b5061037461083b36600461348f565b611771565b34801561084c57600080fd5b50600f54610860906001600160a01b031681565b60405161035691906139fd565b34801561087957600080fd5b50600a546001600160a01b0316610860565b34801561089757600080fd5b506103746108a636600461318f565b600d6020526000908152604090205481565b3480156108c457600080fd5b506040805180820190915260208082527f737570706f72743d627261766f2671756f72756d3d666f722c6162737461696e908201526103d6565b34801561090a57600080fd5b506103747f150214d74d59b7d1e90c73fc22ef3d991dd0a76b046543d4d80ab92d2a50328f81565b34801561093e57600080fd5b5061032261094d36600461318f565b6117ab565b34801561095e57600080fd5b5061037461096d366004613537565b611837565b34801561097e57600080fd5b5061032261098d36600461318f565b611858565b34801561099e57600080fd5b506104036109ad366004613a0b565b7ff23a6e610000000000000000000000000000000000000000000000000000000095945050505050565b3480156109e357600080fd5b506103746109f236600461318f565b6118e4565b348015610a0357600080fd5b50610a2b7f000000000000000000000000000000000000000000000000000000000000000081565b6040516103569190613aa7565b6000610a4c600a546001600160a01b031690565b905090565b6000610a5c82611ac9565b92915050565b6000610a4c60055490565b600080610af0610ae87fb3b3f3b703cd84ce352197dcff232b1b5d3cfb2025ce47cf04742d0651f1af888c8c8c8c604051610aa9929190613ac8565b60405180910390208b80519060200120604051602001610acd959493929190613ade565b60405160208183030381529060405280519060200120611b07565b868686611b1a565b9050610b368a828b8b8b8080601f0160208091040260200160405190810160405280939291908181526020018383808284376000920191909152508d9250611b38915050565b9a9950505050505050505050565b610b4c610a38565b6001600160a01b0316336001600160a01b031614610b855760405162461bcd60e51b8152600401610b7c90613b57565b60405180910390fd5b30610b8e610a38565b6001600160a01b031614610bd05760008036604051610bae929190613ac8565b604051809103902090505b80610bc46002611c5f565b14610bce57610bb9565b505b610bd981611d1c565b50565b606060008054610beb90613b7d565b80601f0160208091040260200160405190810160405280929190818152602001828054610c1790613b7d565b8015610c645780601f10610c3957610100808354040283529160200191610c64565b820191906000526020600020905b815481529060010190602001808311610c4757829003601f168201915b5050505050905090565b7f150b7a02000000000000000000000000000000000000000000000000000000005b949350505050565b600080610ca786868686611771565b90506004610cb48261109d565b6007811115610cc557610cc56135ec565b14610ce25760405162461bcd60e51b8152600401610b7c90613c07565b600a54604080517ff27a0c9200000000000000000000000000000000000000000000000000000000815290516000926001600160a01b03169163f27a0c92916004808301926020929190829003018186803b158015610d4057600080fd5b505afa158015610d54573d6000803e3d6000fd5b505050506040513d601f19601f82011682018060405250810190610d789190613c22565b600a546040517fb1c5f4270000000000000000000000000000000000000000000000000000000081529192506001600160a01b03169063b1c5f42790610dcb908a908a908a906000908b90600401613d71565b60206040518083038186803b158015610de357600080fd5b505afa158015610df7573d6000803e3d6000fd5b505050506040513d601f19601f82011682018060405250810190610e1b9190613c22565b6000838152600b602052604080822092909255600a5491517f8f2a0bb00000000000000000000000000000000000000000000000000000000081526001600160a01b0390921691638f2a0bb091610e7f918b918b918b91908b908990600401613db9565b600060405180830381600087803b158015610e9957600080fd5b505af1158015610ead573d6000803e3d6000fd5b505050507f9a2e42fd6722813d69113e7d0079d3d940171428df7373df9c7f7617cfda2892828242610edf9190613e31565b604051610eed929190613e49565b60405180910390a15095945050505050565b600080610f0e86868686611771565b90506000610f1b8261109d565b90506004816007811115610f3157610f316135ec565b1480610f4e57506005816007811115610f4c57610f4c6135ec565b145b610f6a5760405162461bcd60e51b8152600401610b7c90613c07565b600082815260016020819052604091829020600201805460ff19169091179055517f712ae1383f79ac853f8d882153778e0260ef8f03b504e2866e0593e04d2b291f90610fb8908490612f3d565b60405180910390a1610fcd8288888888611e07565b610fda8288888888611ea9565b610fe78288888888611eb6565b5095945050505050565b600081815260016020908152604080832081519283019091525467ffffffffffffffff16908190525b67ffffffffffffffff1692915050565b6000610a4c60045490565b600080611073610ae87f150214d74d59b7d1e90c73fc22ef3d991dd0a76b046543d4d80ab92d2a50328f8989604051602001610acd93929190613e64565b905061109087828860405180602001604052806000815250611efc565b9150505b95945050505050565b6000610a5c82611f1f565b600080339050610c9084828560405180602001604052806000815250611efc565b60008033905061109087828888888080601f0160208091040260200160405190810160405280939291908181526020018383808284376000920191909152508a9250611b38915050565b60095460009080611128575050600854919050565b60006009611137600184613e8c565b8154811061114757611147613ea3565b60009182526020918290206040805180820190915291015463ffffffff81168083526401000000009091046001600160e01b0316928201929092529150841061119e57602001516001600160e01b03169392505050565b610c906009856120c1565b6111b1610a38565b6001600160a01b0316336001600160a01b0316146111e15760405162461bcd60e51b8152600401610b7c90613b57565b306111ea610a38565b6001600160a01b03161461122c576000803660405161120a929190613ac8565b604051809103902090505b806112206002611c5f565b1461122a57611215565b505b610bd9816121a0565b60008033905061127d86828787878080601f016020809104026020016040519081016040528093929190818152602001838380828437600092019190915250611efc92505050565b9695505050505050565b600f546000906001600160a01b03163160646112a482600a613eb9565b6112ae9190613eee565b600d6000600c5460016112c19190613e31565b815260200190815260200160002054116112ed5760405162461bcd60e51b8152600401610b7c90613f36565b61127d868686866121e0565b60006113068484846123f3565b90505b9392505050565b6009546000901561132557610a4c6009611a47565b5060085490565b60046113378261109d565b6007811115611348576113486135ec565b146113655760405162461bcd60e51b8152600401610b7c90613f7a565b336000908152600e6020908152604080832084845290915290205461139c5760405162461bcd60e51b8152600401610b7c90613fe4565b336000818152600e602090815260408083208584529091528082205490519192916113c690613ff4565b60006040518083038185875af1925050503d8060008114611403576040519150601f19603f3d011682016040523d82523d6000602084013e611408565b606091505b50509050806114295760405162461bcd60e51b8152600401610b7c90614033565b5050565b611435610a38565b6001600160a01b0316336001600160a01b0316146114655760405162461bcd60e51b8152600401610b7c90613b57565b3061146e610a38565b6001600160a01b0316146114b0576000803660405161148e929190613ac8565b604051809103902090505b806114a46002611c5f565b146114ae57611499565b505b610bd9816124ad565b600a546000828152600b60205260408082205490517fd45c4435000000000000000000000000000000000000000000000000000000008152919283926001600160a01b039091169163d45c4435916115149190600401612f3d565b60206040518083038186803b15801561152c57600080fd5b505afa158015611540573d6000803e3d6000fd5b505050506040513d601f19601f820116820180604052508101906115649190613c22565b9050806001146115745780611309565b60009392505050565b600f546001600160a01b031631606461159782600a613eb9565b6115a19190613eee565b3410156115c05760405162461bcd60e51b8152600401610b7c90614077565b34600d6000600c5460016115d49190613e31565b81526020019081526020016000208190555060006115f486868686611287565b336000908152600e602090815260408083208484529091528120349055600c80549293509061162283614087565b91905055507fe52cdcd45f0913116ea4f3de9bab0401ca2bbb5593445d1f6736170f57db75e833348360405161165a939291906140a2565b60405180910390a1505050505050565b6000610a4c60065490565b600081815260016020818152604080842081519283019091529091015467ffffffffffffffff169081905261101a565b6116ad610a38565b6001600160a01b0316336001600160a01b0316146116dd5760405162461bcd60e51b8152600401610b7c90613b57565b306116e6610a38565b6001600160a01b0316146117285760008036604051611706929190613ac8565b604051809103902090505b8061171c6002611c5f565b1461172657611711565b505b61176a8483838080601f01602080910402602001604051908101604052809392919081815260200183838082843760009201919091525088925061252e915050565b5050505050565b60008484848460405160200161178a94939291906140b0565b60408051601f19818403018152919052805160209091012095945050505050565b6117b3610a38565b6001600160a01b0316336001600160a01b0316146117e35760405162461bcd60e51b8152600401610b7c90613b57565b306117ec610a38565b6001600160a01b03161461182e576000803660405161180c929190613ac8565b604051809103902090505b806118226002611c5f565b1461182c57611817565b505b610bd981612554565b6000611309838361185360408051602081019091526000815290565b6123f3565b611860610a38565b6001600160a01b0316336001600160a01b0316146118905760405162461bcd60e51b8152600401610b7c90613b57565b30611899610a38565b6001600160a01b0316146118db57600080366040516118b9929190613ac8565b604051809103902090505b806118cf6002611c5f565b146118d9576118c4565b505b610bd9816125b4565b6000610a5c826125f4565b60006001600160e01b038211156119185760405162461bcd60e51b8152600401610b7c90614152565b5090565b815460009081908161192d86611a47565b905060008211801561196b57504386611947600185613e8c565b8154811061195757611957613ea3565b60009182526020909120015463ffffffff16145b156119cb57611979856118ef565b86611985600185613e8c565b8154811061199557611995613ea3565b9060005260206000200160000160046101000a8154816001600160e01b0302191690836001600160e01b03160217905550611a39565b8560000160405180604001604052806119e343611aa3565b63ffffffff1681526020016119f7886118ef565b6001600160e01b0390811690915282546001810184556000938452602093849020835194909301519091166401000000000263ffffffff909316929092179101555b9250839150505b9250929050565b80546000908015611a905782611a5e600183613e8c565b81548110611a6e57611a6e613ea3565b60009182526020909120015464010000000090046001600160e01b0316611a93565b60005b6001600160e01b03169392505050565b600063ffffffff8211156119185760405162461bcd60e51b8152600401610b7c906141bc565b60006001600160e01b031982167f6e665ced000000000000000000000000000000000000000000000000000000001480610a5c5750610a5c826126ca565b6000610a5c611b14612799565b83612887565b6000806000611b2b878787876128ba565b91509150610fe78161299a565b6000858152600160208190526040822090611b528861109d565b6007811115611b6357611b636135ec565b14611b805760405162461bcd60e51b8152600401610b7c90614226565b6040805160208101909152815467ffffffffffffffff1690819052600090611baa908890866123f3565b9050611bb98888888488612a7f565b8351611c0b57866001600160a01b03167fb8e138887d0aa13bab447e82de9d5c1777041ecd21ca36ba824ff1e6c07ddda489888489604051611bfe9493929190614236565b60405180910390a2611090565b866001600160a01b03167fe2babfbac5889a709b63bb7f598b324e08bc5a4fb9ec647fb3cbc9ec07eb87128988848989604051611c4c959493929190614270565b60405180910390a2979650505050505050565b6000611c878254600f81810b700100000000000000000000000000000000909204900b131590565b15611cbe576040517f3db2a12a00000000000000000000000000000000000000000000000000000000815260040160405180910390fd5b508054600f0b6000818152600180840160205260408220805492905583547fffffffffffffffffffffffffffffffff000000000000000000000000000000001692016fffffffffffffffffffffffffffffffff169190911790915590565b6064811115611d3d5760405162461bcd60e51b8152600401610b7c906142be565b6000611d47611310565b90508015801590611d585750600954155b15611dbd57604080518082019091526000815260099060208101611d7b846118ef565b6001600160e01b0390811690915282546001810184556000938452602093849020835194909301519091166401000000000263ffffffff909316929092179101555b611dc860098361191c565b50507f0553476bf02ef2726e8ce5ced78d63e26e602e4a2257b1f559418e24b46339978183604051611dfb929190613e49565b60405180910390a15050565b30611e10610a38565b6001600160a01b03161461176a5760005b8451811015611ea157306001600160a01b0316858281518110611e4657611e46613ea3565b60200260200101516001600160a01b03161415611e9157611e91838281518110611e7257611e72613ea3565b6020026020010151805190602001206002612b7090919063ffffffff16565b611e9a81614087565b9050611e21565b505050505050565b61176a8585858585612bc2565b30611ebf610a38565b6001600160a01b03161461176a57600254600f81810b700100000000000000000000000000000000909204900b131561176a57600060025561176a565b600061109485858585611f1a60408051602081019091526000815290565b611b38565b600080611f2b83612c4f565b90506004816007811115611f4157611f416135ec565b14611f4c5792915050565b6000838152600b602052604090205480611f67575092915050565b600a546040517f2ab0f5290000000000000000000000000000000000000000000000000000000081526001600160a01b0390911690632ab0f52990611fb0908490600401612f3d565b60206040518083038186803b158015611fc857600080fd5b505afa158015611fdc573d6000803e3d6000fd5b505050506040513d601f19601f820116820180604052508101906120009190614358565b1561200f575060079392505050565b600a546040517f584b153e0000000000000000000000000000000000000000000000000000000081526001600160a01b039091169063584b153e90612058908490600401612f3d565b60206040518083038186803b15801561207057600080fd5b505afa158015612084573d6000803e3d6000fd5b505050506040513d601f19601f820116820180604052508101906120a89190614358565b156120b7575060059392505050565b5060029392505050565b60004382106120e25760405162461bcd60e51b8152600401610b7c906143ab565b825460005b818110156121475760006120fb8284612d2b565b90508486600001828154811061211357612113613ea3565b60009182526020909120015463ffffffff16111561213357809250612141565b61213e816001613e31565b91505b506120e7565b811561218b5784612159600184613e8c565b8154811061216957612169613ea3565b60009182526020909120015464010000000090046001600160e01b031661218e565b60005b6001600160e01b031695945050505050565b7fc565b045403dc03c2eea82b81a0465edad9e2e7fc4d97e11421c209da93d7a93600454826040516121d3929190613e49565b60405180910390a1600455565b60006121ea61166a565b6121f93361096d600143613e8c565b10156122175760405162461bcd60e51b8152600401610b7c90614415565b600061222c8686868680519060200120611771565b9050845186511461224f5760405162461bcd60e51b8152600401610b7c9061447f565b83518651146122705760405162461bcd60e51b8152600401610b7c9061447f565b60008651116122915760405162461bcd60e51b8152600401610b7c906144c3565b6000818152600160209081526040918290208251918201909252815467ffffffffffffffff1690819052156122d85760405162461bcd60e51b8152600401610b7c9061452d565b60006122ea6122e561102a565b612d46565b6122f343612d46565b6122fd919061453d565b9050600061230c6122e5610a62565b612316908361453d565b835467ffffffffffffffff191667ffffffffffffffff8416178455905060018301805467ffffffffffffffff191667ffffffffffffffff83161790557f7d84a6263ae0d98d3329bd7b46bb4e8d6f98cd35a7adb45c274c8b7fd5ebd5e084338b8b8d5167ffffffffffffffff81111561239157612391612fbb565b6040519080825280602002602001820160405280156123c457816020015b60608152602001906001900390816123af5790505b508c88888e6040516123de999897969594939291906145eb565b60405180910390a15091979650505050505050565b6040517f3a46b1a80000000000000000000000000000000000000000000000000000000081526000906001600160a01b037f00000000000000000000000000000000000000000000000000000000000000001690633a46b1a89061245d9087908790600401614693565b60206040518083038186803b15801561247557600080fd5b505afa158015612489573d6000803e3d6000fd5b505050506040513d601f19601f820116820180604052508101906113069190613c22565b600a546040517f08f74ea46ef7894f65eabfb5e6e695de773a000b47c529ab559178069b226401916124ec916001600160a01b039091169084906146a1565b60405180910390a1600a80547fffffffffffffffffffffffff0000000000000000000000000000000000000000166001600160a01b0392909216919091179055565b6060611306848484604051806060016040528060298152602001614ba460299139612d70565b600081116125745760405162461bcd60e51b8152600401610b7c90614716565b7f7e3f7f0708a84de9203036abaa450dccc85ad5ff52f78c170f3edb55cf5e8828600554826040516125a7929190613e49565b60405180910390a1600555565b7fccb45da8d5717e6c4544694297c4ba5cf151d455c9bb0ed4fc7a38411bc05461600654826040516125e7929190613e49565b60405180910390a1600655565b6000606461260183611113565b6040517f8e539e8c0000000000000000000000000000000000000000000000000000000081526001600160a01b037f00000000000000000000000000000000000000000000000000000000000000001690638e539e8c90612666908790600401612f3d565b60206040518083038186803b15801561267e57600080fd5b505afa158015612692573d6000803e3d6000fd5b505050506040513d601f19601f820116820180604052508101906126b69190613c22565b6126c09190613eb9565b610a5c9190613eee565b60006001600160e01b031982167fbf26d89700000000000000000000000000000000000000000000000000000000148061272d57506001600160e01b031982167f79dd796f00000000000000000000000000000000000000000000000000000000145b8061276157506001600160e01b031982167f4e2312e000000000000000000000000000000000000000000000000000000000145b80610a5c57507f01ffc9a7000000000000000000000000000000000000000000000000000000006001600160e01b0319831614610a5c565b6000306001600160a01b037f0000000000000000000000000000000000000000000000000000000000000000161480156127f257507f000000000000000000000000000000000000000000000000000000000000000046145b1561281c57507f000000000000000000000000000000000000000000000000000000000000000090565b610a4c7f00000000000000000000000000000000000000000000000000000000000000007f00000000000000000000000000000000000000000000000000000000000000007f0000000000000000000000000000000000000000000000000000000000000000612e32565b6000828260405160200161289c929190614726565b60405160208183030381529060405280519060200120905092915050565b6000807f7fffffffffffffffffffffffffffffff5d576e7357a4501ddfe92f46681b20a08311156128f15750600090506003612991565b8460ff16601b1415801561290957508460ff16601c14155b1561291a5750600090506004612991565b60006001878787876040516000815260200160405260405161293f9493929190614772565b6020604051602081039080840390855afa158015612961573d6000803e3d6000fd5b5050604051601f1901519150506001600160a01b03811661298a57600060019250925050612991565b9150600090505b94509492505050565b60008160048111156129ae576129ae6135ec565b14156129b75750565b60018160048111156129cb576129cb6135ec565b14156129e95760405162461bcd60e51b8152600401610b7c906147db565b60028160048111156129fd576129fd6135ec565b1415612a1b5760405162461bcd60e51b8152600401610b7c9061481f565b6003816004811115612a2f57612a2f6135ec565b1415612a4d5760405162461bcd60e51b8152600401610b7c90614889565b6004816004811115612a6157612a616135ec565b1415610bd95760405162461bcd60e51b8152600401610b7c906148f3565b60008581526007602090815260408083206001600160a01b0388168452600381019092529091205460ff1615612ac75760405162461bcd60e51b8152600401610b7c9061495d565b6001600160a01b03851660009081526003820160205260408120805460ff1916600117905560ff168460ff161415612b185782816000016000828254612b0d9190613e31565b90915550611ea19050565b60ff841660011415612b385782816001016000828254612b0d9190613e31565b60ff841660021415612b585782816002016000828254612b0d9190613e31565b60405162461bcd60e51b8152600401610b7c906149c7565b815470010000000000000000000000000000000090819004600f0b6000818152600180860160205260409091209390935583546fffffffffffffffffffffffffffffffff908116939091011602179055565b600a546040517fe38335e50000000000000000000000000000000000000000000000000000000081526001600160a01b039091169063e38335e5903490612c16908890889088906000908990600401613d71565b6000604051808303818588803b158015612c2f57600080fd5b505af1158015612c43573d6000803e3d6000fd5b50505050505050505050565b6000818152600160205260408120600281015460ff1615612c735750600792915050565b6002810154610100900460ff1615612c8e5750600292915050565b6000612c9984610ff1565b905080612cb85760405162461bcd60e51b8152600401610b7c90614a0b565b438110612cc9575060009392505050565b6000612cd485611675565b9050438110612ce857506001949350505050565b612cf185612e6c565b8015612d10575060008581526007602052604090208054600190910154115b15612d2057506004949350505050565b506003949350505050565b6000612d3a6002848418613eee565b61130990848416613e31565b600067ffffffffffffffff8211156119185760405162461bcd60e51b8152600401610b7c90614a75565b606082471015612d925760405162461bcd60e51b8152600401610b7c90614adf565b6001600160a01b0385163b612db95760405162461bcd60e51b8152600401610b7c90614b23565b600080866001600160a01b03168587604051612dd59190614b55565b60006040518083038185875af1925050503d8060008114612e12576040519150601f19603f3d011682016040523d82523d6000602084013e612e17565b606091505b5091509150612e27828286612ea3565b979650505050505050565b60008383834630604051602001612e4d959493929190614b61565b6040516020818303038152906040528051906020012090509392505050565b600081815260076020526040812060028101546001820154612e8e9190613e31565b612e9a6109f285610ff1565b11159392505050565b60608315612eb2575081611309565b825115612ec25782518084602001fd5b8160405162461bcd60e51b8152600401610b7c9190613212565b6001600160e01b031981165b8114610bd957600080fd5b8035610a5c81612edc565b600060208284031215612f1357612f13600080fd5b6000610c908484612ef3565b8015155b82525050565b60208101610a5c8284612f1f565b80612f23565b60208101610a5c8284612f37565b80612ee8565b8035610a5c81612f4b565b60ff8116612ee8565b8035610a5c81612f5c565b60008083601f840112612f8557612f85600080fd5b50813567ffffffffffffffff811115612fa057612fa0600080fd5b602083019150836001820283011115611a4057611a40600080fd5b634e487b7160e01b600052604160045260246000fd5b601f19601f830116810181811067ffffffffffffffff82111715612ff757612ff7612fbb565b6040525050565b600061300960405190565b90506130158282612fd1565b919050565b600067ffffffffffffffff82111561303457613034612fbb565b601f19601f83011660200192915050565b82818337506000910152565b600061306461305f8461301a565b612ffe565b90508281526020810184848401111561307f5761307f600080fd5b61308a848285613045565b509392505050565b600082601f8301126130a6576130a6600080fd5b8135610c90848260208601613051565b60008060008060008060008060e0898b0312156130d5576130d5600080fd5b60006130e18b8b612f51565b98505060206130f28b828c01612f65565b975050604089013567ffffffffffffffff81111561311257613112600080fd5b61311e8b828c01612f70565b9650965050606089013567ffffffffffffffff81111561314057613140600080fd5b61314c8b828c01613092565b945050608061315d8b828c01612f65565b93505060a061316e8b828c01612f51565b92505060c061317f8b828c01612f51565b9150509295985092959890939650565b6000602082840312156131a4576131a4600080fd5b6000610c908484612f51565b60005b838110156131cb5781810151838201526020016131b3565b838111156131da576000848401525b50505050565b60006131ea825190565b8084526020840193506132018185602086016131b0565b601f01601f19169290920192915050565b6020808252810161130981846131e0565b60006001600160a01b038216610a5c565b612ee881613223565b8035610a5c81613234565b6000806000806080858703121561326157613261600080fd5b600061326d878761323d565b945050602061327e8782880161323d565b935050604061328f87828801612f51565b925050606085013567ffffffffffffffff8111156132af576132af600080fd5b6132bb87828801613092565b91505092959194509250565b6001600160e01b03198116612f23565b60208101610a5c82846132c7565b600067ffffffffffffffff8211156132ff576132ff612fbb565b5060209081020190565b600061331761305f846132e5565b8381529050602080820190840283018581111561333657613336600080fd5b835b8181101561335a578061334b888261323d565b84525060209283019201613338565b5050509392505050565b600082601f83011261337857613378600080fd5b8135610c90848260208601613309565b600061339661305f846132e5565b838152905060208082019084028301858111156133b5576133b5600080fd5b835b8181101561335a57806133ca8882612f51565b845250602092830192016133b7565b600082601f8301126133ed576133ed600080fd5b8135610c90848260208601613388565b600061340b61305f846132e5565b8381529050602080820190840283018581111561342a5761342a600080fd5b835b8181101561335a57803567ffffffffffffffff81111561344e5761344e600080fd5b80860161345b8982613092565b855250506020928301920161342c565b600082601f83011261347f5761347f600080fd5b8135610c908482602086016133fd565b600080600080608085870312156134a8576134a8600080fd5b843567ffffffffffffffff8111156134c2576134c2600080fd5b6134ce87828801613364565b945050602085013567ffffffffffffffff8111156134ee576134ee600080fd5b6134fa878288016133d9565b935050604085013567ffffffffffffffff81111561351a5761351a600080fd5b6135268782880161346b565b92505060606132bb87828801612f51565b6000806040838503121561354d5761354d600080fd5b6000613559858561323d565b925050602061356a85828601612f51565b9150509250929050565b600080600080600060a0868803121561358f5761358f600080fd5b600061359b8888612f51565b95505060206135ac88828901612f65565b94505060406135bd88828901612f65565b93505060606135ce88828901612f51565b92505060806135df88828901612f51565b9150509295509295909350565b634e487b7160e01b600052602160045260246000fd5b60088110610bd957610bd96135ec565b8061301581613602565b6000610a5c82613612565b612f238161361c565b60208101610a5c8284613627565b6000806040838503121561365457613654600080fd5b60006136608585612f51565b925050602061356a8582860161323d565b6060810161367f8286612f37565b61368c6020830185612f37565b610c906040830184612f37565b600080604083850312156136af576136af600080fd5b60006136bb8585612f51565b925050602061356a85828601612f65565b6000806000806000608086880312156136e7576136e7600080fd5b60006136f38888612f51565b955050602061370488828901612f65565b945050604086013567ffffffffffffffff81111561372457613724600080fd5b61373088828901612f70565b9350935050606086013567ffffffffffffffff81111561375257613752600080fd5b6135df88828901613092565b6000806000806060858703121561377757613777600080fd5b60006137838787612f51565b945050602061379487828801612f65565b935050604085013567ffffffffffffffff8111156137b4576137b4600080fd5b6137c087828801612f70565b95989497509550505050565b600080600080608085870312156137e5576137e5600080fd5b843567ffffffffffffffff8111156137ff576137ff600080fd5b61380b87828801613364565b945050602085013567ffffffffffffffff81111561382b5761382b600080fd5b613837878288016133d9565b935050604085013567ffffffffffffffff81111561385757613857600080fd5b61328f8782880161346b565b60008060006060848603121561387b5761387b600080fd5b6000613887868661323d565b935050602061389886828701612f51565b925050604084013567ffffffffffffffff8111156138b8576138b8600080fd5b6138c486828701613092565b9150509250925092565b6000610a5c82613223565b612ee8816138ce565b8035610a5c816138d9565b60006020828403121561390257613902600080fd5b6000610c9084846138e2565b600080600080600060a0868803121561392957613929600080fd5b6000613935888861323d565b95505060206139468882890161323d565b945050604086013567ffffffffffffffff81111561396657613966600080fd5b613972888289016133d9565b935050606086013567ffffffffffffffff81111561399257613992600080fd5b61399e888289016133d9565b925050608086013567ffffffffffffffff81111561375257613752600080fd5b600080600080606085870312156139d7576139d7600080fd5b60006139e3878761323d565b945050602061379487828801612f51565b612f2381613223565b60208101610a5c82846139f4565b600080600080600060a08688031215613a2657613a26600080fd5b6000613a32888861323d565b9550506020613a438882890161323d565b9450506040613a5488828901612f51565b935050606061399e88828901612f51565b6000610a5c6001600160a01b038316613a7c565b90565b6001600160a01b031690565b6000610a5c82613a65565b6000610a5c82613a88565b612f2381613a93565b60208101610a5c8284613a9e565b6000613ac2838584613045565b50500190565b6000610c90828486613ab5565b60ff8116612f23565b60a08101613aec8288612f37565b613af96020830187612f37565b613b066040830186613ad5565b613b136060830185612f37565b61127d6080830184612f37565b601881526000602082017f476f7665726e6f723a206f6e6c79476f7665726e616e63650000000000000000815291505b5060200190565b60208082528101610a5c81613b20565b634e487b7160e01b600052602260045260246000fd5b600281046001821680613b9157607f821691505b60208210811415613ba457613ba4613b67565b50919050565b602181526000602082017f476f7665726e6f723a2070726f706f73616c206e6f742073756363657373667581527f6c00000000000000000000000000000000000000000000000000000000000000602082015291505b5060400190565b60208082528101610a5c81613baa565b8051610a5c81612f4b565b600060208284031215613c3757613c37600080fd5b6000610c908484613c17565b6000613c4f83836139f4565b505060200190565b6000613c61825190565b80845260209384019383018060005b83811015613c95578151613c848882613c43565b975060208301925050600101613c70565b509495945050505050565b6000613c4f8383612f37565b6000613cb6825190565b80845260209384019383018060005b83811015613c95578151613cd98882613ca0565b975060208301925050600101613cc5565b600061130983836131e0565b6000613d00825190565b80845260208401935083602082028501613d1a8560200190565b8060005b85811015613d4f5784840389528151613d378582613cea565b94506020830160209a909a0199925050600101613d1e565b5091979650505050505050565b6000610a5c613a798381565b612f2381613d5c565b60a08082528101613d828188613c57565b90508181036020830152613d968187613cac565b90508181036040830152613daa8186613cf6565b9050613b136060830185613d68565b60c08082528101613dca8189613c57565b90508181036020830152613dde8188613cac565b90508181036040830152613df28187613cf6565b9050613e016060830186613d68565b613e0e6080830185612f37565b612e2760a0830184612f37565b634e487b7160e01b600052601160045260246000fd5b60008219821115613e4457613e44613e1b565b500190565b60408101613e578285612f37565b6113096020830184612f37565b60608101613e728286612f37565b613e7f6020830185612f37565b610c906040830184613ad5565b600082821015613e9e57613e9e613e1b565b500390565b634e487b7160e01b600052603260045260246000fd5b6000816000190483118215151615613ed357613ed3613e1b565b500290565b634e487b7160e01b600052601260045260246000fd5b600082613efd57613efd613ed8565b500490565b601881526000602082017f596f7520686176656e2774206c6f636b65642066756e6473000000000000000081529150613b50565b60208082528101610a5c81613f02565b601b81526000602082017f50726f706f73616c206861736e2774206265656e20706173736564000000000081529150613b50565b60208082528101610a5c81613f46565b602981526000602082017f596f7520686176656e74206c6f636b656420616e792066756e647320666f722081527f70726f706f73696e67000000000000000000000000000000000000000000000060208201529150613c00565b60208082528101610a5c81613f8a565b6000610a5c82613a79565b601281526000602082017f5769746864726177616c206661696c656421000000000000000000000000000081529150613b50565b60208082528101610a5c81613fff565b601c81526000602082017f4e6f74206c6f636b696e672073756666696369656e742066756e64730000000081529150613b50565b60208082528101610a5c81614043565b600060001982141561409b5761409b613e1b565b5060010190565b6060810161367f82866139f4565b608080825281016140c18187613c57565b905081810360208301526140d58186613cac565b905081810360408301526140e98185613cf6565b90506110946060830184612f37565b602781526000602082017f53616665436173743a2076616c756520646f65736e27742066697420696e203281527f323420626974730000000000000000000000000000000000000000000000000060208201529150613c00565b60208082528101610a5c816140f8565b602681526000602082017f53616665436173743a2076616c756520646f65736e27742066697420696e203381527f322062697473000000000000000000000000000000000000000000000000000060208201529150613c00565b60208082528101610a5c81614162565b602381526000602082017f476f7665726e6f723a20766f7465206e6f742063757272656e746c792061637481527f697665000000000000000000000000000000000000000000000000000000000060208201529150613c00565b60208082528101610a5c816141cc565b608081016142448287612f37565b6142516020830186613ad5565b61425e6040830185612f37565b818103606083015261127d81846131e0565b60a0810161427e8288612f37565b61428b6020830187613ad5565b6142986040830186612f37565b81810360608301526142aa81856131e0565b90508181036080830152612e2781846131e0565b60208082528101610a5c81604381527f476f7665726e6f72566f74657351756f72756d4672616374696f6e3a2071756f60208201527f72756d4e756d657261746f72206f7665722071756f72756d44656e6f6d696e6160408201527f746f720000000000000000000000000000000000000000000000000000000000606082015260800190565b801515612ee8565b8051610a5c81614345565b60006020828403121561436d5761436d600080fd5b6000610c90848461434d565b60208082527f436865636b706f696e74733a20626c6f636b206e6f7420796574206d696e656491019081526000613b50565b60208082528101610a5c81614379565b603181526000602082017f476f7665726e6f723a2070726f706f73657220766f7465732062656c6f77207081527f726f706f73616c207468726573686f6c6400000000000000000000000000000060208201529150613c00565b60208082528101610a5c816143bb565b602181526000602082017f476f7665726e6f723a20696e76616c69642070726f706f73616c206c656e677481527f680000000000000000000000000000000000000000000000000000000000000060208201529150613c00565b60208082528101610a5c81614425565b601881526000602082017f476f7665726e6f723a20656d7074792070726f706f73616c000000000000000081529150613b50565b60208082528101610a5c8161448f565b602181526000602082017f476f7665726e6f723a2070726f706f73616c20616c726561647920657869737481527f730000000000000000000000000000000000000000000000000000000000000060208201529150613c00565b60208082528101610a5c816144d3565b600067ffffffffffffffff8216915067ffffffffffffffff831692508267ffffffffffffffff03821115613e4457613e44613e1b565b600061457d825190565b808452602084019350836020820285016145978560200190565b8060005b85811015613d4f57848403895281516145b48582613cea565b94506020830160209a909a019992505060010161459b565b6000610a5c613a7967ffffffffffffffff841681565b612f23816145cc565b61012081016145fa828c612f37565b614607602083018b6139f4565b8181036040830152614619818a613c57565b9050818103606083015261462d8189613cac565b905081810360808301526146418188614573565b905081810360a08301526146558187613cf6565b905061466460c08301866145e2565b61467160e08301856145e2565b81810361010083015261468481846131e0565b9b9a5050505050505050505050565b60408101613e5782856139f4565b604081016146af82856139f4565b61130960208301846139f4565b602781526000602082017f476f7665726e6f7253657474696e67733a20766f74696e6720706572696f642081527f746f6f206c6f770000000000000000000000000000000000000000000000000060208201529150613c00565b60208082528101610a5c816146bc565b7f1901000000000000000000000000000000000000000000000000000000000000815260020160006147588285612f37565b6020820191506147688284612f37565b5060200192915050565b608081016147808287612f37565b61478d6020830186613ad5565b61479a6040830185612f37565b6110946060830184612f37565b601881526000602082017f45434453413a20696e76616c6964207369676e6174757265000000000000000081529150613b50565b60208082528101610a5c816147a7565b601f81526000602082017f45434453413a20696e76616c6964207369676e6174757265206c656e6774680081529150613b50565b60208082528101610a5c816147eb565b602281526000602082017f45434453413a20696e76616c6964207369676e6174757265202773272076616c81527f756500000000000000000000000000000000000000000000000000000000000060208201529150613c00565b60208082528101610a5c8161482f565b602281526000602082017f45434453413a20696e76616c6964207369676e6174757265202776272076616c81527f756500000000000000000000000000000000000000000000000000000000000060208201529150613c00565b60208082528101610a5c81614899565b602781526000602082017f476f7665726e6f72566f74696e6753696d706c653a20766f746520616c72656181527f647920636173740000000000000000000000000000000000000000000000000060208201529150613c00565b60208082528101610a5c81614903565b603581526000602082017f476f7665726e6f72566f74696e6753696d706c653a20696e76616c696420766181527f6c756520666f7220656e756d20566f746554797065000000000000000000000060208201529150613c00565b60208082528101610a5c8161496d565b601d81526000602082017f476f7665726e6f723a20756e6b6e6f776e2070726f706f73616c20696400000081529150613b50565b60208082528101610a5c816149d7565b602681526000602082017f53616665436173743a2076616c756520646f65736e27742066697420696e203681527f342062697473000000000000000000000000000000000000000000000000000060208201529150613c00565b60208082528101610a5c81614a1b565b602681526000602082017f416464726573733a20696e73756666696369656e742062616c616e636520666f81527f722063616c6c000000000000000000000000000000000000000000000000000060208201529150613c00565b60208082528101610a5c81614a85565b601d81526000602082017f416464726573733a2063616c6c20746f206e6f6e2d636f6e747261637400000081529150613b50565b60208082528101610a5c81614aef565b6000614b3d825190565b614b4b8185602086016131b0565b9290920192915050565b60006113098284614b33565b60a08101614b6f8288612f37565b614b7c6020830187612f37565b614b896040830186612f37565b614b966060830185612f37565b61127d60808301846139f456fe416464726573733a206c6f772d6c6576656c2063616c6c20776974682076616c7565206661696c6564a26469706673582212203a4b9d63b41aaa83af4f5b864ea745cdabc05e2e1435ddbaec3be68e97d95cec64736f6c63430008090033",
  "linkReferences": {},
  "deployedLinkReferences": {}
}