{
  "_format": "hh-sol-artifact-1",
  "contractName": "Treasury",
  "sourceName": "contracts/Treasury.sol",
  "abi": [
    {
      "inputs": [],
      "stateMutability": "nonpayable",
      "type": "constructor"
    },
    {
      "anonymous": false,
      "inputs": [
        {
          "indexed": true,
          "internalType": "address",
          "name": "previousOwner",
          "type": "address"
        },
        {
          "indexed": true,
          "internalType": "address",
          "name": "newOwner",
          "type": "address"
        }
      ],
      "name": "OwnershipTransferred",
      "type": "event"
    },
    {
      "inputs": [
        {
          "internalType": "address",
          "name": "",
          "type": "address"
        },
        {
          "internalType": "address",
          "name": "",
          "type": "address"
        },
        {
          "internalType": "uint256",
          "name": "",
          "type": "uint256"
        },
        {
          "internalType": "bytes",
          "name": "",
          "type": "bytes"
        }
      ],
      "name": "onERC721Received",
      "outputs": [
        {
          "internalType": "bytes4",
          "name": "",
          "type": "bytes4"
        }
      ],
      "stateMutability": "nonpayable",
      "type": "function"
    },
    {
      "inputs": [],
      "name": "owner",
      "outputs": [
        {
          "internalType": "address",
          "name": "",
          "type": "address"
        }
      ],
      "stateMutability": "view",
      "type": "function"
    },
    {
      "inputs": [],
      "name": "renounceOwnership",
      "outputs": [],
      "stateMutability": "nonpayable",
      "type": "function"
    },
    {
      "inputs": [
        {
          "internalType": "address",
          "name": "newOwner",
          "type": "address"
        }
      ],
      "name": "transferOwnership",
      "outputs": [],
      "stateMutability": "nonpayable",
      "type": "function"
    },
    {
      "inputs": [
        {
          "internalType": "uint256[]",
          "name": "_amounts",
          "type": "uint256[]"
        },
        {
          "internalType": "address[]",
          "name": "_tokenAddresses",
          "type": "address[]"
        },
        {
          "internalType": "address",
          "name": "_recepient",
          "type": "address"
        }
      ],
      "name": "withdrawERC20s",
      "outputs": [],
      "stateMutability": "nonpayable",
      "type": "function"
    },
    {
      "inputs": [
        {
          "internalType": "uint256",
          "name": "_amount",
          "type": "uint256"
        }
      ],
      "name": "withdrawFunds",
      "outputs": [],
      "stateMutability": "nonpayable",
      "type": "function"
    },
    {
      "inputs": [
        {
          "internalType": "uint256[]",
          "name": "_tokenIds",
          "type": "uint256[]"
        },
        {
          "internalType": "address[]",
          "name": "_nftAddresses",
          "type": "address[]"
        },
        {
          "internalType": "address",
          "name": "_recepient",
          "type": "address"
        }
      ],
      "name": "withdrawNFT",
      "outputs": [],
      "stateMutability": "nonpayable",
      "type": "function"
    }
  ],
  "bytecode": "0x608060405234801561001057600080fd5b5061001a3361001f565b61006f565b600080546001600160a01b038381166001600160a01b0319831681178455604051919092169283917f8be0079c531659141344cd1fd0a4f28419497f9722a3daafe3b4186f6b6457e09190a35050565b610a9e8061007e6000396000f3fe608060405234801561001057600080fd5b506004361061007d5760003560e01c80636cb2bcd81161005b5780636cb2bcd8146100d3578063715018a6146100e65780638da5cb5b146100ee578063f2fde38b1461011457600080fd5b8063150b7a0214610082578063155dd5ee146100ab57806315d9b0e0146100c0575b600080fd5b610095610090366004610648565b610127565b6040516100a291906106f1565b60405180910390f35b6100be6100b93660046106ff565b610151565b005b6100be6100ce366004610772565b610228565b6100be6100e1366004610772565b610323565b6100be6103f6565b60005473ffffffffffffffffffffffffffffffffffffffff166040516100a2919061080a565b6100be610122366004610818565b61040a565b7f150b7a02000000000000000000000000000000000000000000000000000000005b949350505050565b610159610451565b47808211156101835760405162461bcd60e51b815260040161017a90610896565b60405180910390fd5b6000805473ffffffffffffffffffffffffffffffffffffffff1673ffffffffffffffffffffffffffffffffffffffff16836040516101c0906108a6565b60006040518083038185875af1925050503d80600081146101fd576040519150601f19603f3d011682016040523d82523d6000602084013e610202565b606091505b50509050806102235760405162461bcd60e51b815260040161017a906108e5565b505050565b610230610451565b60005b8481101561031b5783838281811061024d5761024d6108f5565b90506020020160208101906102629190610818565b73ffffffffffffffffffffffffffffffffffffffff166323b872dd3084898986818110610291576102916108f5565b905060200201356040518463ffffffff1660e01b81526004016102b693929190610911565b602060405180830381600087803b1580156102d057600080fd5b505af11580156102e4573d6000803e3d6000fd5b505050506040513d601f19601f82011682018060405250810190610308919061094c565b508061031381610983565b915050610233565b505050505050565b61032b610451565b60005b8481101561031b57838382818110610348576103486108f5565b905060200201602081019061035d9190610818565b73ffffffffffffffffffffffffffffffffffffffff166323b872dd308489898681811061038c5761038c6108f5565b905060200201356040518463ffffffff1660e01b81526004016103b193929190610911565b600060405180830381600087803b1580156103cb57600080fd5b505af11580156103df573d6000803e3d6000fd5b5050505080806103ee90610983565b91505061032e565b6103fe610451565b6104086000610488565b565b610412610451565b73ffffffffffffffffffffffffffffffffffffffff81166104455760405162461bcd60e51b815260040161017a90610a16565b61044e81610488565b50565b60005473ffffffffffffffffffffffffffffffffffffffff1633146104085760405162461bcd60e51b815260040161017a90610a58565b6000805473ffffffffffffffffffffffffffffffffffffffff8381167fffffffffffffffffffffffff0000000000000000000000000000000000000000831681178455604051919092169283917f8be0079c531659141344cd1fd0a4f28419497f9722a3daafe3b4186f6b6457e09190a35050565b600073ffffffffffffffffffffffffffffffffffffffff82165b92915050565b610526816104fd565b811461044e57600080fd5b80356105178161051d565b80610526565b80356105178161053c565b634e487b7160e01b600052604160045260246000fd5b601f19601f830116810181811067ffffffffffffffff821117156105895761058961054d565b6040525050565b600061059b60405190565b90506105a78282610563565b919050565b600067ffffffffffffffff8211156105c6576105c661054d565b601f19601f83011660200192915050565b82818337506000910152565b60006105f66105f1846105ac565b610590565b90508281526020810184848401111561061157610611600080fd5b61061c8482856105d7565b509392505050565b600082601f83011261063857610638600080fd5b81356101498482602086016105e3565b6000806000806080858703121561066157610661600080fd5b600061066d8787610531565b945050602061067e87828801610531565b935050604061068f87828801610542565b925050606085013567ffffffffffffffff8111156106af576106af600080fd5b6106bb87828801610624565b91505092959194509250565b7fffffffff0000000000000000000000000000000000000000000000000000000081165b82525050565b6020810161051782846106c7565b60006020828403121561071457610714600080fd5b60006101498484610542565b60008083601f84011261073557610735600080fd5b50813567ffffffffffffffff81111561075057610750600080fd5b60208301915083602082028301111561076b5761076b600080fd5b9250929050565b60008060008060006060868803121561078d5761078d600080fd5b853567ffffffffffffffff8111156107a7576107a7600080fd5b6107b388828901610720565b9550955050602086013567ffffffffffffffff8111156107d5576107d5600080fd5b6107e188828901610720565b935093505060406107f488828901610531565b9150509295509295909350565b6106eb816104fd565b602081016105178284610801565b60006020828403121561082d5761082d600080fd5b60006101498484610531565b602781526000602082017f42726964676520436f6e747261637420646f6e2774206861766520656e6f756781527f682066756e647300000000000000000000000000000000000000000000000000602082015291505b5060400190565b6020808252810161051781610839565b600081610517565b601d81526000602082017f4661696c656420746f2073656e6420457468657220746f206f776e6572000000815291505b5060200190565b60208082528101610517816108ae565b634e487b7160e01b600052603260045260246000fd5b806106eb565b6060810161091f8286610801565b61092c6020830185610801565b610149604083018461090b565b801515610526565b805161051781610939565b60006020828403121561096157610961600080fd5b60006101498484610941565b634e487b7160e01b600052601160045260246000fd5b60007fffffffffffffffffffffffffffffffffffffffffffffffffffffffffffffffff8214156109b5576109b561096d565b5060010190565b602681526000602082017f4f776e61626c653a206e6577206f776e657220697320746865207a65726f206181527f64647265737300000000000000000000000000000000000000000000000000006020820152915061088f565b60208082528101610517816109bc565b60208082527f4f776e61626c653a2063616c6c6572206973206e6f7420746865206f776e6572910190815260006108de565b6020808252810161051781610a2656fea2646970667358221220548c236563e3236fb2d68a442f364d29902f8185ee488036b8da1e22aaa00f7c64736f6c63430008090033",
  "linkReferences": {},
  "deployedLinkReferences": {}
}