{
  "_format": "hh-sol-artifact-1",
  "contractName": "Treasury",
  "sourceName": "contracts/Treasury.sol",
  "abi": [
    {
      "inputs": [
        {
          "internalType": "address",
          "name": "_payee",
          "type": "address"
        }
      ],
      "stateMutability": "payable",
      "type": "constructor"
    },
    {
      "anonymous": false,
      "inputs": [
        {
          "indexed": true,
          "internalType": "address",
          "name": "previousOwner",
          "type": "address"
        },
        {
          "indexed": true,
          "internalType": "address",
          "name": "newOwner",
          "type": "address"
        }
      ],
      "name": "OwnershipTransferred",
      "type": "event"
    },
    {
      "inputs": [],
      "name": "isReleased",
      "outputs": [
        {
          "internalType": "bool",
          "name": "",
          "type": "bool"
        }
      ],
      "stateMutability": "view",
      "type": "function"
    },
    {
      "inputs": [],
      "name": "owner",
      "outputs": [
        {
          "internalType": "address",
          "name": "",
          "type": "address"
        }
      ],
      "stateMutability": "view",
      "type": "function"
    },
    {
      "inputs": [],
      "name": "payee",
      "outputs": [
        {
          "internalType": "address",
          "name": "",
          "type": "address"
        }
      ],
      "stateMutability": "view",
      "type": "function"
    },
    {
      "inputs": [],
      "name": "releaseFunds",
      "outputs": [],
      "stateMutability": "nonpayable",
      "type": "function"
    },
    {
      "inputs": [],
      "name": "renounceOwnership",
      "outputs": [],
      "stateMutability": "nonpayable",
      "type": "function"
    },
    {
      "inputs": [],
      "name": "totalFunds",
      "outputs": [
        {
          "internalType": "uint256",
          "name": "",
          "type": "uint256"
        }
      ],
      "stateMutability": "view",
      "type": "function"
    },
    {
      "inputs": [
        {
          "internalType": "address",
          "name": "newOwner",
          "type": "address"
        }
      ],
      "name": "transferOwnership",
      "outputs": [],
      "stateMutability": "nonpayable",
      "type": "function"
    }
  ],
  "bytecode": "0x60806040526040516108703803806108708339818101604052810190610025919061018b565b6100416100366100aa60201b60201c565b6100b260201b60201c565b3460018190555080600260006101000a81548173ffffffffffffffffffffffffffffffffffffffff021916908373ffffffffffffffffffffffffffffffffffffffff1602179055506000600260146101000a81548160ff021916908315150217905550506101fd565b600033905090565b60008060009054906101000a900473ffffffffffffffffffffffffffffffffffffffff169050816000806101000a81548173ffffffffffffffffffffffffffffffffffffffff021916908373ffffffffffffffffffffffffffffffffffffffff1602179055508173ffffffffffffffffffffffffffffffffffffffff168173ffffffffffffffffffffffffffffffffffffffff167f8be0079c531659141344cd1fd0a4f28419497f9722a3daafe3b4186f6b6457e060405160405180910390a35050565b600081519050610185816101e6565b92915050565b60006020828403121561019d57600080fd5b60006101ab84828501610176565b91505092915050565b60006101bf826101c6565b9050919050565b600073ffffffffffffffffffffffffffffffffffffffff82169050919050565b6101ef816101b4565b81146101fa57600080fd5b50565b6106648061020c6000396000f3fe608060405234801561001057600080fd5b506004361061007d5760003560e01c8063968ed6001161005b578063968ed600146100b4578063ae90b213146100d2578063f2fde38b146100f0578063fa2a89971461010c5761007d565b806369d8957514610082578063715018a61461008c5780638da5cb5b14610096575b600080fd5b61008a61012a565b005b6100946101ba565b005b61009e6101ce565b6040516100ab91906104b5565b60405180910390f35b6100bc6101f7565b6040516100c9919061052b565b60405180910390f35b6100da6101fd565b6040516100e791906104b5565b60405180910390f35b61010a60048036038101906101059190610419565b610223565b005b6101146102a7565b60405161012191906104d0565b60405180910390f35b6101326102ba565b6001600260146101000a81548160ff021916908315150217905550600260009054906101000a900473ffffffffffffffffffffffffffffffffffffffff1673ffffffffffffffffffffffffffffffffffffffff166108fc6001549081150290604051600060405180830381858888f193505050501580156101b7573d6000803e3d6000fd5b50565b6101c26102ba565b6101cc6000610338565b565b60008060009054906101000a900473ffffffffffffffffffffffffffffffffffffffff16905090565b60015481565b600260009054906101000a900473ffffffffffffffffffffffffffffffffffffffff1681565b61022b6102ba565b600073ffffffffffffffffffffffffffffffffffffffff168173ffffffffffffffffffffffffffffffffffffffff16141561029b576040517f08c379a0000000000000000000000000000000000000000000000000000000008152600401610292906104eb565b60405180910390fd5b6102a481610338565b50565b600260149054906101000a900460ff1681565b6102c26103fc565b73ffffffffffffffffffffffffffffffffffffffff166102e06101ce565b73ffffffffffffffffffffffffffffffffffffffff1614610336576040517f08c379a000000000000000000000000000000000000000000000000000000000815260040161032d9061050b565b60405180910390fd5b565b60008060009054906101000a900473ffffffffffffffffffffffffffffffffffffffff169050816000806101000a81548173ffffffffffffffffffffffffffffffffffffffff021916908373ffffffffffffffffffffffffffffffffffffffff1602179055508173ffffffffffffffffffffffffffffffffffffffff168173ffffffffffffffffffffffffffffffffffffffff167f8be0079c531659141344cd1fd0a4f28419497f9722a3daafe3b4186f6b6457e060405160405180910390a35050565b600033905090565b60008135905061041381610617565b92915050565b60006020828403121561042b57600080fd5b600061043984828501610404565b91505092915050565b61044b81610557565b82525050565b61045a81610569565b82525050565b600061046d602683610546565b91506104788261059f565b604082019050919050565b6000610490602083610546565b915061049b826105ee565b602082019050919050565b6104af81610595565b82525050565b60006020820190506104ca6000830184610442565b92915050565b60006020820190506104e56000830184610451565b92915050565b6000602082019050818103600083015261050481610460565b9050919050565b6000602082019050818103600083015261052481610483565b9050919050565b600060208201905061054060008301846104a6565b92915050565b600082825260208201905092915050565b600061056282610575565b9050919050565b60008115159050919050565b600073ffffffffffffffffffffffffffffffffffffffff82169050919050565b6000819050919050565b7f4f776e61626c653a206e6577206f776e657220697320746865207a65726f206160008201527f6464726573730000000000000000000000000000000000000000000000000000602082015250565b7f4f776e61626c653a2063616c6c6572206973206e6f7420746865206f776e6572600082015250565b61062081610557565b811461062b57600080fd5b5056fea2646970667358221220fe44967088692da0e838124f64cfa66cbf00c040a86f9890f8513c7c0d1a9b4f64736f6c63430008040033",
  "linkReferences": {},
  "deployedLinkReferences": {}
}